:020000040000fa
:080000000002040000000000f2
:020000040000fa
:040008006606000088
:020000040000fa
:04000c005206000098
:020000040000fa
:040010005606000090
:020000040000fa
:04001400580600008a
:020000040000fa
:040018005c06000082
:020000040000fa
:04001c00600600007a
:020000040000fa
:040020006606000070
:020000040000fa
:04002400660600006c
:020000040000fa
:040028006606000068
:020000040000fa
:04002c006606000064
:020000040000fa
:040030006606000060
:020000040000fa
:04003400660600005c
:020000040000fa
:04003800fa020000c8
:020000040000fa
:04003c006606000054
:020000040000fa
:040040006606000050
:020000040000fa
:040044007204000042
:020000040000fa
:040048008a04000026
:020000040000fa
:04004c006606000044
:020000040000fa
:040050006606000040
:020000040000fa
:040054001c05000087
:020000040000fa
:04005800f2050000ad
:020000040000fa
:04005c006606000034
:020000040000fa
:04006000b0030000e9
:020000040000fa
:04006400660600002c
:020000040000fa
:040068006606000028
:020000040000fa
:04006c006606000024
:020000040000fa
:040070006606000020
:020000040000fa
:04007400660600001c
:020000040000fa
:040078006606000018
:020000040000fa
:04007c006606000014
:020000040000fa
:040080006606000010
:020000040000fa
:04008400660600000c
:020000040000fa
:040088005a04000016
:020000040000fa
:04008c006606000004
:020000040000fa
:040090006606000000
:020000040000fa
:0400940066060000fc
:020000040000fa
:0400980066060000f8
:020000040000fa
:04009c0066060000f4
:020000040000fa
:0400a000da0500007d
:020000040000fa
:0400a4000a06000048
:020000040000fa
:0400a80066060000e8
:020000040000fa
:0400ac0066060000e4
:020000040000fa
:0400b00066060000e0
:020000040000fa
:0400b40066060000dc
:020000040000fa
:0400b80066060000d8
:020000040000fa
:0400bc0066060000d4
:020000040000fa
:0400c00066060000d0
:020000040000fa
:0400c40066060000cc
:020000040000fa
:0400c80066060000c8
:020000040000fa
:0400cc0066060000c4
:020000040000fa
:0400d00066060000c0
:020000040000fa
:0400d40066060000bc
:020000040000fa
:0400d80066060000b8
:020000040000fa
:0400dc0066060000b4
:020000040000fa
:0400e00066060000b0
:020000040000fa
:0400e40066060000ac
:020000040000fa
:0400e80066060000a8
:020000040000fa
:0400ec0066060000a4
:020000040000fa
:0400f00066060000a0
:020000040000fa
:0400f400660600009c
:020000040000fa
:0400f8006606000098
:020000040000fa
:0400fc006606000094
:020000040000fa
:04010000660600008f
:020000040000fa
:04010400660600008b
:020000040000fa
:040108006606000087
:020000040000fa
:04010c006606000083
:020000040000fa
:04011000660600007f
:020000040000fa
:04011400660600007b
:020000040000fa
:040118006606000077
:020000040000fa
:04011c006606000073
:020000040000fa
:04012000660600006f
:020000040000fa
:04012400660600006b
:020000040000fa
:040128006606000067
:020000040000fa
:04012c0022060000a7
:020000040000fa
:040130003a0600008b
:020000040000fa
:04013400660600005b
:020000040000fa
:040138006606000057
:020000040000fa
:04013c006606000053
:020000040000fa
:04014000660600004f
:020000040000fa
:04014400660600004b
:020000040000fa
:040148006606000047
:020000040000fa
:04014c006606000043
:020000040000fa
:04015000660600003f
:020000040000fa
:04015400660600003b
:020000040000fa
:040158006606000037
:020000040000fa
:04015c006606000033
:020000040000fa
:04016000660600002f
:020000040000fa
:04016400660600002b
:020000040000fa
:040168006606000027
:020000040000fa
:04016c006606000023
:020000040000fa
:04017000660600001f
:020000040000fa
:04017400660600001b
:020000040000fa
:040178006606000017
:020000040000fa
:04017c006606000013
:020000040000fa
:04018000660600000f
:020000040000fa
:04018400660600000b
:020000040000fa
:040188006606000007
:020000040000fa
:04018c006606000003
:020000040000fa
:0401900066060000ff
:020000040000fa
:0401940066060000fb
:020000040000fa
:0401980066060000f7
:020000040000fa
:04019c0066060000f3
:020000040000fa
:0401a00066060000ef
:020000040000fa
:0401a40066060000eb
:020000040000fa
:0401a80066060000e7
:020000040000fa
:0401ac0066060000e3
:020000040000fa
:0401b00066060000df
:020000040000fa
:0401b40066060000db
:020000040000fa
:0401b80066060000d7
:020000040000fa
:0401bc0066060000d3
:020000040000fa
:0401c00066060000cf
:020000040000fa
:0401c40066060000cb
:020000040000fa
:0401c80066060000c7
:020000040000fa
:0401cc0066060000c3
:020000040000fa
:0401d00066060000bf
:020000040000fa
:0401d40066060000bb
:020000040000fa
:0401d80066060000b7
:020000040000fa
:0401dc0066060000b3
:020000040000fa
:0401e00066060000af
:020000040000fa
:0401e40066060000ab
:020000040000fa
:0401e80066060000a7
:020000040000fa
:0401ec0066060000a3
:020000040000fa
:0401f000660600009f
:020000040000fa
:0401f400660600009b
:020000040000fa
:0401f8006606000097
:020000040000fa
:0401fc006606000093
:020000040000fa
:04020000660600008e
:020000040000fa
:04020400660600008a
:020000040000fa
:040208006606000086
:020000040000fa
:04020c006606000082
:020000040000fa
:04021000660600007e
:020000040000fa
:04021400660600007a
:020000040000fa
:040218006606000076
:020000040000fa
:04021c006606000072
:020000040000fa
:04022000660600006e
:020000040000fa
:04022400660600006a
:020000040000fa
:040228006606000066
:020000040000fa
:04022c006606000062
:020000040000fa
:04023000660600005e
:020000040000fa
:04023400660600005a
:020000040000fa
:040238006606000056
:020000040000fa
:04023c006606000052
:020000040000fa
:04024000660600004e
:020000040000fa
:04024400660600004a
:020000040000fa
:040248006606000046
:020000040000fa
:04024c006606000042
:020000040000fa
:04025000660600003e
:020000040000fa
:04025400660600003a
:020000040000fa
:040258006606000036
:020000040000fa
:04025c006606000032
:020000040000fa
:04026000660600002e
:020000040000fa
:04026400660600002a
:020000040000fa
:040268006606000026
:020000040000fa
:04026c006606000022
:020000040000fa
:04027000660600001e
:020000040000fa
:04027400660600001a
:020000040000fa
:040278006606000016
:020000040000fa
:04027c006606000012
:020000040000fa
:04028000660600000e
:020000040000fa
:100400006f0925006ea527000e018800000000007e
:10041000000020000000e000020032000001200087
:1004200020028800140007002a0207000000e000f4
:1004300003003a0020ed21002100200002003700d7
:100440000000200001002000810f70000100320038
:100450000f000700000020000000e0000200320052
:100460000000020000000000482d02000100000012
:100470000040da000000fe00c06120000000e00043
:1004800002003200002020009001880000000600d9
:10049000a1028800800478000000eb001f003700f4
:1004a000e284440054a0b4009905ba00e2844400f8
:1004b00054a0b4009906ba00e284440054a0b400e9
:1004c0000006eb00476fde00fd07b200ae018800ba
:1004d000636ce10003003a000ad801000000eb0061
:1004e0000e003700606ce10008003a00004deb00a0
:1004f0000a05e800020039003420ec000af0a000f0
:100500008b05e900f9ff3e00040037006168e10057
:10051000010032000086eb000b00070019c7ba008b
:100520000e04e0001905ba0003003a000a00e000da
:10053000dbff3a0000000600fe07b200ae028800b2
:100540008a047800f5ff37000cd0a300e20f4d00bd
:100550001c003b0089027800354dba000a05e8000e
:10056000020039003420ec000af0a0008b05e900fd
:100570000f003200254dba000a05e80002003900dc
:100580003420ec000af0a0008b05e90008003200de
:100590000c00e0000600320015cdba000a05e800a4
:1005a000020039003420ec000af0a0008b05e900bd
:1005b0008984e80054a0b4000b00e000e2ff3a0098
:1005c000000006009902ba00055d78008b05e9007d
:1005d000f7ff3200c82ade00055d78008b05e900d0
:1005e000f3ff32000c00e000f1ff320019ddba0029
:1005f000eeff37003600f800809fbe00829fbe00ed
:10060000849fbe00869fbe00881f78003200f800dd
:100610003400f80010002000a00188000020200015
:1006200000d0fe001400fa000088a900a00c2400ed
:1006300010007800610060001d003200400682005a
:10064000d0058a00f487470074845700400b2400cb
:1006500009000900301c78004801b10040eb23007c
:100660009ef90200010000008807780000f4810074
:100670000000e0000b00340081e723000e0078004a
:10068000f6f7020001000000400b240009000900f9
:100690003e1878004e01b100a00582004058880045
:1006a0001f003700206a21001008e8001c003700f6
:1006b0004006820030058a00f487470074845700a2
:1006c000000a240009000900301c78004801b1002c
:1006d00040eb23009ef9020001000000880778002b
:1006e00000f481000000e0000b00340081e72300eb
:1006f0000e007800f6f7020001000000000a240056
:10070000090009003e1878004e01b1000005820082
:100710002058880002003700206a21001008e800f5
:10072000a00c2400900078000181ea0061016100c2
:100730000100a100028870000080fa003400f90076
:100740003200f9004f0478004f03be004f02be0094
:100750004f01be004f00be003600f9000040060009
:100760003600f800809fbe00829fbe00849fbe00be
:10077000869fbe003200f8003400f8001000200010
:10078000a00188000020200000d0fe0001c8a900c0
:10079000b0f381000018a3001c003a000038a30049
:1007a0000d003200475c2100c6582100e56f210092
:1007b000a41024008372210002e52300c1e323007a
:1007c00040e123007e7902000100000060e7230081
:1007d0001030a1002f003700475c2100c6582100cf
:1007e000e56f2100a41024008372210002e523009c
:1007f00081e2230000e023007e7902000100000076
:1008000060e723001030a000220037000008a3009a
:1008100005003a0060e723001000a000f0f281001c
:10082000f05888001b00370060e7230010017800b3
:100830000210a100102bef00202bef00e1b9800087
:100840008100d100031820008181510033488800c5
:100850000118b0002148880081ff2f0001086100c5
:1008600000b1800011b18000826821009401200055
:10087000050020000419400005914800e3ad800008
:100880008263210000824100e08248000489be00aa
:1008900021c8a9003400f9003200f9004f03be005e
:1008a0004f02be004f01be004f00be003600f900ef
:1008b000004006003200f8003400f800881f78007d
:1008c00018002000a80188000820200008d0fe00a1
:1008d0004f0478000308a9003400f9003200f90041
:1008e000004006003200f8003400f800881f78004d
:1008f00018002000a80188000820200008d0fe0071
:100900004f04780000e8a9003400f9003200f90033
:1009100000400600809fbe00829fbe003200f800ab
:100920003400f80010002000a00188000020200002
:1009300000d0fe000108a90090b580007008880072
:10094000a0b58000816b2100910f500001003e0096
:100950000e21ec00616b2100910f500002003a0063
:10096000406b21000008eb00406b21001008e800fc
:10097000a06f210010007800610060000a003200c2
:10098000a16b21001100e80080087800a16d210012
:10099000910f500004003900c06f21001000a0002a
:1009a000a06b21000008eb00a06f21001000780070
:1009b000620060000a003200c16b21001100e800f3
:1009c00080087800c16d2100910f500004003900ab
:1009d000c06f21001010a000c06b21000008eb00c8
:1009e000e0b780000008a30008003200c16f2100ba
:1009f0000000a10080087800406221001200200061
:100a0000030020001008410050904900e0b780002a
:100a10000018a30003003200c16f21000010a100e4
:100a2000800878003400f9003200f9004f01be0060
:100a30004f00be0000400600809fbe00829fbe00a7
:100a4000849fbe00869fbe00889fbe008a9fbe0016
:100a50008c9fbe008e1f78003200f8003400f80032
:100a600010002000a00188000020200000d0fe001f
:100a70000168a90061722100060c2000c2702100eb
:100a80008571210083702100cd712100e471210066
:100a9000ee6f2100ec702100360037003711800026
:100aa00011047800700064002c003a0012007800f5
:100ab000950f500025003d00130478006145b900f2
:100ac0008a8fd2008b85d2000af0a1008a04d00060
:100ad0003e00d000008544004220a800ae854d00b5
:100ae0004200a9004220ae004200a8000a85d300bf
:100af000a00180008b047800a9018800074d7800d0
:100b0000a00188000804e800880978001200e800c5
:100b1000000978009c0f500001003400000e78009e
:100b2000950f540002003a000004eb008809780099
:100b3000140ae800868f53000e003a00930e7800e6
:100b40008004eb00090a78000a0037009d0978004c
:100b5000140950001140a00006003700868f530092
:100b600004003a00110078000050a0000040a100ed
:100b7000800878002202ab00c8ff3a002222ab00b6
:100b8000010032002222a9003400f9003200f900ed
:100b90004f0778004f06be004f05be004f04be0051
:100ba0004f03be004f02be004f01be004f00be000b
:100bb000004006003200f8003400f800881f78007a
:100bc00018002000a80188000820200008d0fe009e
:100bd0004f04780003c8a9003400f9003200f9007e
:100be000004006003200f8003400f800881f78004a
:100bf00018002000a80188000820200008d0fe006e
:100c00004f0478000188a9003400f9003200f9008f
:100c1000004006003200f8003400f800881f780019
:100c200018002000a80188000820200008d0fe003d
:100c30004f04780003e8a9003400f9003200f900fd
:100c4000004006003200f8003400f800881f7800e9
:100c500018002000a80188000820200008d0fe000d
:100c60004f0478000828a9003400f9003200f90088
:100c7000004006003200f8003400f800881f7800b9
:100c800018002000a80188000820200008d0fe00dd
:100c90004f0478000848a9003400f9003200f90038
:100ca00000400600c068a9000040060000400600a1
:100cb000c048a90000400600c088a9000040060006
:100cc000c0a8a900f02bef00004006000040da00a9
:100cd0000000fe0000000500839f68000100e000a6
:100ce00002003d0060001000e08018000300e000fa
:100cf00002003d0060011100e081190005000700bd
:100d00004f00e00002003b0060001000e08018008f
:100d1000000006006022b800060220000000d0009b
:100d20008180d2000482d2008582d2000000a0001f
:100d30000202520083825a00030031000202420084
:100d400083824a000000a1000603e900f3ff3a0095
:100d500000000600889fbe008a9fbe00300442004b
:100d6000b0844a0030054b0090854b006000b10014
:100d70000898be000a90be000440e10005c8e100ea
:100d800006d0e10007d8e100020031006800400011
:100d90001008e8004f05be004f04be00000006002a
:100da000889fbe008a9fbe001004780090049000c7
:100db00020059000b00590000418540005985c00d0
:100dc00006185d0007985d00110020000440e10056
:100dd00005c8e10006d0e10007d8e10001003900b4
:100de0008000eb00108810004f05be004f04be00cd
:100df00000000600f4874700889fbe008a9fbe005f
:100e00008c9fbe008e1f7800d0b79f00e1b79f0077
:100e1000f2b79f0083bf9f000605be000404be001a
:100e2000cfae97000000eb00c0b79f00b0b79f00a7
:100e3000a0b79f0090b79f0080b79f000006780082
:100e40004fb09700000140000000e00006003d00a8
:100e50003c0007000f074700450007000f00400057
:100e6000bcff070005003700360007000f074700ea
:100e70003f0007000f004000c9ff07004fb7970071
:100e80000e00e0000c0035005fb29700efb2970053
:100e90007fb397008fbb9700100020000100200057
:100ea0006011b800000272008182720002037300b8
:100eb000838373001c0007000c06e8000104200077
:100ec000810f5600deff3a000e00e00005003d00f5
:100ed0000802be000a03be0000fe2f000f00400003
:100ee0009cff07000d00e00005003a000fb29700dc
:100ef0009fb297002fb39700bfb397000a00070077
:100f00005fb09700efb097007fb197008fb997005f
:100f10004f0778004f06be004f05be004f04be00cd
:100f20004f01b100000006000100070000000600ac
:100f300094b79f00a5b79f00b6b79f00c7b79f00a3
:100f4000000006009fb097004f08de00020170000d
:100f5000a2b79f000fb097004f01de0081804000d4
:100f60008100710091b79f000efe2f000000060067
:100f7000de0078004f09de00000040000000710034
:100f800080b79f006fa897004f01de00818040006e
:100f9000010f71000e0007004f3ade000000400014
:100fa00004007000e0af9f00090007000402420047
:100fb00085824a0006034b0087834b00dcff070055
:100fc0000802be000a03be0000fe2f00000006005b
:100fd0001fb29700afb297003fb39700cfb397000f
:100fe00000000600881f780018002000881f780085
:100ff00080ff07008f87e9004f047800000006009b
:10100000801feb007bff07008f87e90000000600d0
:10101000889fbe008a9fbe00e00f5000e08f5800fe
:10102000e00f5900e08f59000c003d006044b8000b
:101030006055b8000000540081805c0002015d0032
:1010400083815d00180020001500070008003d00a6
:10105000180007000004eb00050037000004eb0057
:101060000f00070002003d001200070018002000da
:10107000dcff07000800e000060032006022b80034
:101080006033b8000000520081805a0002015b000a
:1010900083815b004f05be004f04be0000000600c8
:1010a000e00f5200e08f5a00e00f5b00e08f5b0022
:1010b000000006006044b8006055b8000402540007
:1010c00085825c0006035d0087835d0000000600ea
:1010d000889fbe008a9fbe008c1f7800e00f5000e2
:1010e000e08f5800e00f5900e08f59000d003d00df
:1010f0006044b8006055b8000000540081805c0076
:1011000002015d0083815d001c0020000820e100d9
:1011100009a8e1000ab0e1000bb8e1000d003d00b4
:10112000080037000006eb00e00f5200e08f5a0085
:10113000e00f5b00e08f5b0006003d006044b800fc
:101140006055b8000402540085825c0006035d000f
:1011500087835d00aaff07000c00e0000600320054
:101160006022b8006033b8000000520081805a004d
:1011700002015b0083815b004f0678004f05be00d3
:081180004f04be000000060050
:020000040000fa
:101188003a300000323000003030000030300000cb
:10119800343000003030000035660000350a0000a9
:1011a8003a310000303200003830000030300000a2
:1011b8003032000066300000386200003030000035
:1011c80030380000383900006662000065300000e1
:1011d80030380000613900006662000065300000a8
:1011e8003038000063390000666200006530000096
:1011f80030320000630a00003a310000303200004b
:10120800383100003030000030380000653100000f
:101218006637000038300000306300003365000096
:1012280038610000393000003032000031360000eb
:1012380038610000393000003032000031380000d9
:10124800386100003930000030620000620a000096
:101258003a310000303200003832000030300000ef
:1012680030300000313600003861000039300000ad
:10127800303000003138000038610000393000009b
:10128800306300003032000038650000663000002e
:10129800303400003432000037650000663000004a
:1012a80030330000330a00003a31000030320000c9
:1012b8003833000030300000303600003030000095
:1012c800343200003030000030330000303300008a
:1012d80061380000383000003066000030660000d9
:1012e8006532000066300000303000003037000002
:1012f800303800003830000030300000640a000048
:101308003a3100003032000038340000303000003c
:1013180030650000306200003232000038300000d2
:101328003038000030370000303800003830000016
:10133800303000003432000065650000663000007f
:10134800303000003030000035320000303000000e
:1013580030310000300a00003a310000303200001d
:1013680038350000303000003061000030370000b0
:1013780030380000383000003031000030300000d4
:1013880030320000303000003037000030370000c5
:10139800303800003830000030310000653200007d
:1013a800656500006630000030300000640a000007
:1013b8003a3100003032000038360000303000008a
:1013c80030300000633200006565000066300000c0
:1013d80030310000633200006565000066300000af
:1013e80030300000613200006565000066300000a2
:1013f8003031000061320000656500006630000091
:1014080030610000380a00003a3100003032000034
:1014180038370000303000003030000030660000ff
:1014280063320000663000003032000032330000c2
:10143800343800003030000030380000323000000e
:10144800303600003030000030300000313000000d
:10145800306100003030000030640000340a0000c1
:101468003a310000303200003838000030300000d7
:1014780030320000313300003438000038300000ca
:10148800303000003166000038320000663000005d
:1014980030320000333300003638000030300000ae
:1014a800303800003338000030360000303000009b
:1014b80030300000370a00003a31000030320000b6
:1014c800383900003030000030350000313000007d
:1014d8003262000033300000303200003133000047
:1014e8003638000038300000303000003433000057
:1014f800343800003030000030380000343000004c
:10150800303600003030000030620000370a00003a
:101518003a310000303200003861000030300000fd
:1015280030330000313000003062000033300000fa
:10153800303000003133000034380000383000000b
:1015480030380000383000003662000036300000c5
:1015580030300000303400003061000030300000ce
:1015680030360000330a00003a3100003032000003
:1015780038620000303000003034000030330000a2
:10158800343800003830000030300000613200008c
:101598006561000038300000303100006132000021
:1015a8006561000038300000303200003032000041
:1015b800326500006630000030310000620a000029
:1015c8003a3100003032000038630000303000004b
:1015d8003066000030310000313200003030000049
:1015e800303400003031000031380000383000005d
:1015f8003038000030300000303200003830000051
:101608003030000030310000313800003830000040
:1016180030630000640a00003a31000030320000f4
:1016280038640000303000003030000030350000f1
:10163800313200003030000030310000303100001d
:1016480031380000383000003038000030300000f9
:1016580034300000393000003030000030300000f5
:10166800303000003030000030350000310a000012
:101678003a31000030320000386500003030000098
:10168800303100003561000065610000383000002d
:10169800303100003465000065610000383000001a
:1016a8003031000035380000656100003830000036
:1016b80030310000356300006561000038300000fb
:1016c80030660000640a00003a3100003032000041
:1016d8003866000030300000303000003030000044
:1016e800303200003230000030300000313000006d
:1016f800303200003030000030300000323000005e
:101708003032000033300000303000003330000049
:10171800303200003030000030340000640a00002d
:101728003a3100003032000039300000303000001b
:1017380030300000303000003865000062300000b2
:101748003036000032300000303400003030000005
:1017580030650000303800003034000038300000b8
:1017680030380000323000006635000030300000ac
:1017780030610000390a00003a31000030320000c0
:1017880039310000303000003038000033380000b4
:1017980066350000383000003066000061660000e1
:1017a800663300006130000030360000303300003e
:1017b80033620000383000003065000036610000f8
:1017c800373900006630000030610000330a00003d
:1017d8003a31000030320000393200003030000069
:1017e80030660000376100003739000066300000bd
:1017f800303100003430000030320000303000005a
:1018080030390000343900006639000066300000c5
:1018180030300000303000003465000062300000d5
:1018280030370000350a00003a310000303200003d
:1018380039330000303000003061000038390000d2
:101848006639000066300000303600003035000090
:10185800356200003830000030620000616100002d
:101868003739000066300000306300006261000014
:10187800373900006630000030330000330a0000ba
:101888003a310000303200003934000030300000b6
:10189800306600006139000037390000663000000a
:1018a80030380000623900006639000066300000f8
:1018b800303800003830000035370000383000007c
:1018c80030640000626100003739000066300000b3
:1018d80030360000380a00003a310000303200008b
:1018e800393500003030000030360000303100005b
:1018f80031620000383000003038000062300000eb
:1019080032370000383000003063000035390000fd
:10191800663900006630000030620000353900008a
:10192800663900006630000030350000330a0000d8
:101938003a31000030320000393600003030000003
:101948003064000035390000663900006630000058
:101958003066000035390000663900006630000046
:101968003065000035390000663900006630000037
:10197800303600003030000030620000383000009f
:1019880030650000360a00003a31000030320000ad
:10199800393700003030000030300000633000007c
:1019a800303200003230000030380000636100003f
:1019b80037390000663000003063000064660000bc
:1019c800393200006630000030380000643800000a
:1019d800363400003730000030300000380a00008c
:1019e8003a31000030320000393800003030000051
:1019f80030650000643900003739000066300000a7
:101a080030300000643800003365000038300000d2
:101a180030360000313300003462000038300000f6
:101a280030620000383900003739000066300000a5
:101a380030370000310a00003a310000303200002f
:101a480039390000303000003063000039390000b7
:101a58003739000066300000303400003966000075
:101a68003932000066300000303800003938000094
:101a78003434000037300000306400003939000089
:101a8800373900006630000030360000340a0000a4
:101a98003a31000030320000396100003030000077
:101aa800303000003938000035650000383000005b
:101ab80030610000613900003739000066300000ed
:101ac800303000003630000030330000373000007e
:101ad80030360000666100003639000037300000fb
:101ae80030650000380a00003a310000303200004a
:101af8003962000030300000306600006661000086
:101b08003639000037300000303600003130000030
:101b180036340000363000003065000030380000f0
:101b28003634000065300000306500006361000055
:101b3800373900006630000030340000380a0000f1
:101b48003a310000303200003963000030300000c4
:101b5800306600006461000037390000663000001c
:101b680030300000343000003065000030300000b4
:101b780030310000323000003033000032300000d5
:101b880030300000363200003432000034300000bb
:101b980030340000650a00003a310000303200009d
:101ba8003964000030300000306600003730000033
:101bb800303200003030000030360000666100002e
:101bc80034390000373000003066000066610000dc
:101bd800343900003730000030380000363000005b
:101be800663500003430000030310000330a000050
:101bf8003a31000030320000396500003030000012
:101c080030380000373800006635000063300000c7
:101c180030300000623000003033000061300000d6
:101c28003030000037310000303200003030000022
:101c380030300000303000003462000065300000b1
:101c480030330000370a00003a310000303200001b
:101c5800396600003030000030310000613100008a
:101c680031380000303000003038000061380000a2
:101c78003036000033300000306600006466000033
:101c88006633000032300000303000003830000089
:101c9800306200006530000030630000620a000016
:101ca8003a3100003032000061300000303000006e
:101cb800306200003630000034320000303000005e
:101cc8003032000036310000313800003830000072
:101cd8003036000030360000366200003830000030
:101ce800306500006361000037390000663000008d
:101cf80030370000640a00003a310000303200003a
:101d0800613100003030000030660000646100007e
:101d180037390000663000003030000030360000ef
:101d280030660000653000003032000032300000bc
:101d38003261000062300000306500003366000048
:101d4800663300003230000030330000320a0000f1
:101d58003a310000303200006132000030300000bb
:101d680030330000343100003138000030300000da
:101d780030320000363000003532000030300000cc
:101d88003038000036300000663500003230000080
:101d98003030000032300000303300006130000085
:101da80030370000330a00003a31000030320000ba
:101db8006133000030300000303000003030000067
:101dc800306600006530000030310000333000001c
:101dd8003033000037300000303600003630000065
:101de8003532000030300000303800003630000056
:101df800663500003230000030640000630a0000dd
:101e08003a31000030320000613400003030000008
:101e18003031000030300000303300006130000005
:101e28003030000036310000303200003030000021
:101e380030380000353000003337000038300000fb
:101e480030300000303000003262000065300000a1
:101e580030340000360a00003a3100003032000009
:101e680061350000303000003030000037300000ad
:101e78003037000038300000303100006431000095
:101e88003138000030300000303800006430000085
:101e98003036000033300000306600006466000011
:101ea800663300003230000030320000620a000061
:101eb8003a31000030320000613600003030000056
:101ec8003030000030300000333700003830000078
:101ed800303000003430000030620000653000000f
:101ee800303800003630000032370000383000004b
:101ef800303400003430000036320000303000004a
:101f080030620000660a00003a31000030320000fa
:101f180061370000303000003032000034310000fa
:101f280031380000383000003031000035630000df
:101f380065610000393000003030000030300000aa
:101f48003265000062300000306400003461000037
:101f5800373900006630000030300000360a0000d3
:101f68003a310000303200006138000030300000a3
:101f78003036000061300000313300003730000097
:101f88003035000066610000343900003730000049
:101f98003036000031340000336200003930000070
:101fa8003065000061300000663500003330000005
:101fb80030360000310a00003a31000030320000ab
:101fc8006139000030300000306500003038000012
:101fd8006635000062300000303600003530000001
:101fe800313300006530000030300000363000002a
:101ff8003630000031300000303000006130000021
:10200800303300003730000030370000610a00002c
:102018003a310000303200006161000030300000c9
:1020280030340000633000003033000037300000e7
:102038003036000032300000303300003730000006
:1020480030370000633000003033000037300000c4
:1020580030390000313000003033000037300000e4
:1020680030380000660a00003a31000030320000c3
:10207800616200003030000030610000383000003c
:102088003033000037300000306200006630000056
:102098003033000037300000306400006230000048
:1020a8003033000037300000306600003030000068
:1020b800303300003730000030300000380a0000ac
:1020c8003a31000030320000616300003030000017
:1020d800303000006230000031330000373000003b
:1020e8003033000061300000313300003730000029
:1020f80030310000356300006561000039300000b0
:10210800306100003630000033320000303000000b
:1021180030660000630a00003a31000030320000e7
:1021280061640000303000003038000036300000b4
:1021380066350000323000003035000035300000d0
:10214800313300006130000030390000663900008a
:1021580063390000373000003030000039300000ab
:10216800306500003030000030630000340a0000a1
:102178003a31000030320000616500003030000064
:1021880030330000343000003033000032300000bb
:10219800303200006332000037650000663000000e
:1021a8003032000061320000376500006630000000
:1021b800303300003030000030320000343000008e
:1021c80030610000610a00003a310000303200003e
:1021d8006166000030300000303400003033000009
:1021e8003938000038300000303000003630000048
:1021f80030660000633000003035000030300000e9
:102208003532000030300000303700003033000035
:10221800393800003830000030320000640a00000d
:102228003a310000303200006230000030300000e7
:1022380030610000303000006132000030300000b2
:1022480030370000303300003938000038300000e3
:102258003032000039650000376100003830000076
:1022680030300000303000003030000030300000e6
:1022780030310000320a00003a31000030320000ec
:102288006231000030300000303000003030000093
:1022980030300000303000003032000038300000ac
:1022a80037650000323000003066000065660000c7
:1022b8006633000035300000303000003030000058
:1022c800356500006230000030380000320a000036
:1022d8003a31000030320000623200003030000035
:1022e8003064000061380000663900006630000084
:1022f80030610000303000006632000030300000ed
:102308003061000030300000323800003830000002
:102318003030000031340000303200003930000025
:1023280030330000610a00003a310000303200000a
:1023380062330000303000003030000031300000df
:10234800646200006230000030320000303000006b
:1023580030320000303000003038000061300000ba
:1023680030370000383000003038000030380000c6
:10237800386200006230000030630000370a000055
:102388003a31000030320000623400003030000082
:102398003030000030300000386200006230000049
:1023a8003030000031380000386200006230000030
:1023b80030320000633200003765000066300000ec
:1023c80030320000613200003765000066300000de
:1023d80030660000630a00003a3100003032000025
:1023e800623500003030000030310000303000002d
:1023f8003032000034300000303400003033000048
:102408003938000038300000303000003630000025
:1024180030660000633000003035000030300000c6
:10242800353200003030000030630000390a000007
:102438003a310000303200006236000030300000cf
:1024480030370000303300003938000038300000e1
:102458003061000030300000613200003030000090
:1024680030370000303300003938000038300000c1
:102478003032000039650000376100003830000054
:1024880030380000310a00003a31000030320000d4
:10249800623700003030000030300000303000007b
:1024a80030300000303000003030000030300000a4
:1024b800303000003030000030320000383000008a
:1024c80037650000323000003066000065660000a5
:1024d800663300003530000030310000320a000059
:1024e8003a3100003032000062380000303000001d
:1024f80030300000303000003065000062300000ed
:102508003061000030380000663900006630000095
:102518003062000030380000663900006630000084
:102528003063000030380000663900006630000073
:1025380030630000300a00003a31000030320000f9
:1025480062390000303000003039000030390000b6
:102558006639000066300000306600006330000015
:1025680030320000303000003030000064300000ad
:10257800303200003030000030620000636100003b
:10258800373900006630000030310000630a00006f
:102598003a31000030320000626100003030000043
:1025a80030630000646100003739000066300000c5
:1025b8003030000032380000303200003030000087
:1025c800303000003330000030320000303000007e
:1025d800303400003030000030320000303000006d
:1025e80030650000640a00003a3100003032000013
:1025f80062620000303000003030000031300000ee
:1026080030320000303000003064000066610000a5
:1026180036390000373000003038000064300000e0
:102628003665000038300000306400006461000046
:10263800373900006630000030330000610a0000be
:102648003a31000030320000626300003030000090
:102658003038000030300000326500006230000081
:10266800306300003539000066390000663000002c
:10267800306200003539000066390000663000001d
:10268800306400003539000066390000663000000b
:1026980030380000660a00003a310000303200008d
:1026a8006264000030300000303400003830000030
:1026b8003333000037300000303100003538000077
:1026c80065610000393000003030000036660000d7
:1026d8006432000066300000303000003430000002
:1026e800333400003330000030610000620a00001b
:1026f8003a310000303200006265000030300000de
:1027080030650000393000006635000033300000c5
:1027180030300000643000003033000036300000f4
:10272800306600003666000039320000663000006e
:102738003030000034300000333400003330000003
:1027480030650000660a00003a31000030320000af
:10275800626600003030000030650000353000004f
:1027680066350000333000003030000033300000a0
:102778003033000065300000303900003666000054
:102788006132000066300000303000003430000054
:10279800333400003330000030340000340a0000c5
:1027a8003a31000030320000633000003030000061
:1027b8003030000036300000303300003730000081
:1027c80030660000366600006232000066300000a5
:1027d8003030000034300000333400003330000063
:1027e80030650000353000006635000033300000e9
:1027f80030640000360a00003a3100003032000030
:102808006331000030300000303500003330000004
:1028180033330000653000003039000036660000b0
:1028280063320000663000003030000034300000b1
:1028380033340000333000003034000034330000fb
:10284800336400006430000030630000310a000087
:102858003a310000303200006332000030300000ae
:10286800306200003639000066390000663000002a
:1028780030320000343000003032000030300000c8
:102888003064000034610000373900006630000011
:10289800306600006630000030330000373000003a
:1028a80030310000630a00003a3100003032000085
:1028b8006333000030300000303100003465000020
:1028c80065610000393000003030000036660000d5
:1028d8006432000066300000303000003430000000
:1028e8003334000033300000306500003930000018
:1028f800663500003330000030320000320a000034
:102908003a310000303200006334000030300000fb
:1029180030300000643000003033000036300000f2
:10292800306600003666000039320000663000006c
:102938003030000034300000333400003330000001
:102948003065000035300000663500003330000087
:1029580030390000320a00003a31000030320000fd
:1029680063350000303000003030000033300000a4
:102978003033000065300000303900003666000052
:102988006132000066300000303000003430000052
:10299800333400003330000030300000363000009f
:1029a800303300003730000030650000640a000052
:1029b8003a31000030320000633600003030000049
:1029c80030660000366600006232000066300000a3
:1029d8003030000034300000333400003330000061
:1029e80030650000353000006635000033300000e7
:1029f800303400003430000033330000653000000c
:102a080030320000650a00003a3100003032000020
:102a180063370000303000003039000036660000af
:102a280063320000663000003030000034300000af
:102a38003334000033300000306200006639000093
:102a480062390000373000003038000037300000ad
:102a5800333700003330000030350000620a0000d0
:102a68003a31000030320000633800003030000096
:102a78003062000037390000663900006630000017
:102a88003035000066390000633900003730000037
:102a9800303000003730000034340000343000009b
:102aa80030640000383900006639000066300000e4
:102ab80030350000380a00003a310000303200009a
:102ac8006339000030300000303300003930000036
:102ad80030320000303000003064000039610000fe
:102ae80037390000663000003065000034300000df
:102af8003033000037300000303000003666000008
:102b0800643200006630000030360000660a0000bb
:102b18003a310000303200006361000030300000bc
:102b2800303000003430000033340000333000000f
:102b38003065000039300000663500003330000091
:102b480030300000643000003033000036300000c0
:102b5800306600003666000039320000663000003a
:102b680030320000650a00003a31000030320000bf
:102b78006362000030300000303000003430000064
:102b88003334000033300000306500003530000079
:102b9800663500003330000030300000333000006c
:102ba8003033000065300000303900003666000020
:102bb800613200006630000030380000330a00003f
:102bc8003a3100003032000063630000303000000a
:102bd800303000003430000033340000333000005f
:102be800303000003630000030330000373000004d
:102bf8003066000036660000623200006630000071
:102c0800303000003430000033340000333000002e
:102c180030310000330a00003a3100003032000041
:102c2800636400003030000030650000353000007b
:102c380066350000333000003033000032300000c9
:102c4800333300006530000030390000366600007c
:102c5800633200006630000030300000343000007d
:102c6800333400003330000030320000660a0000c0
:102c78003a31000030320000636500003030000057
:102c88003034000063330000336400006430000017
:102c980030650000363900006639000066300000f3
:102ca8003034000061300000303200003030000065
:102cb80030640000616100003739000066300000b0
:102cc80030640000610a00003a3100003032000030
:102cd800636600003030000030630000653000009b
:102ce8003033000037300000303000003666000016
:102cf80064320000663000003030000034300000dc
:102d080033340000333000003065000039300000f3
:102d1800663500003330000030300000380a00000b
:102d28003a310000303200006430000030300000da
:102d380030300000643000003033000036300000ce
:102d48003066000036660000393200006630000048
:102d580030300000343000003334000033300000dd
:102d68003065000035300000663500003330000063
:102d780030640000310a00003a31000030320000af
:102d88006431000030300000303000003330000083
:102d9800303300006530000030390000366600002e
:102da800613200006630000030300000343000002e
:102db800333400003330000030300000363000007b
:102dc800303300003730000030320000630a000062
:102dd8003a31000030320000643200003030000028
:102de800306600003666000062320000663000007f
:102df800303000003430000033340000333000003d
:102e080030650000353000006635000033300000c2
:102e180030320000343000003333000065300000e9
:102e280030380000640a00003a31000030320000f7
:102e3800643300003030000030390000366600008e
:102e4800633200006630000030300000343000008b
:102e580033340000333000003034000038330000d1
:102e680033640000643000003065000066390000fb
:102e7800643900003730000030300000640a000078
:102e88003a31000030320000643400003030000075
:102e98003038000062300000353700003330000061
:102ea80030650000623900006639000066300000b5
:102eb8003035000063300000303200003030000050
:102ec800306400006361000037390000663000009c
:102ed80030620000390a00003a3100003032000048
:102ee80064350000303000003062000036300000e9
:102ef8003033000037300000303000003666000004
:102f080064320000663000003030000034300000c9
:102f180033340000333000003065000039300000e1
:102f2800663500003330000030620000660a000099
:102f38003a310000303200006436000030300000c2
:102f480030300000643000003033000036300000bc
:102f58003066000036660000393200006630000036
:102f680030300000343000003334000033300000cb
:102f78003065000035300000663500003330000051
:102f880030370000310a00003a31000030320000ca
:102f9800643700003030000030300000333000006b
:102fa800303300006530000030390000366600001c
:102fb800613200006630000030300000343000001c
:102fc8003334000033300000303000003630000069
:102fd800303300003730000030630000630a00001f
:102fe8003a31000030320000643800003030000010
:102ff800306600003666000062320000663000006d
:10300800303000003430000033340000333000002a
:1030180030650000353000006635000033300000b0
:1030280030310000343000003333000065300000d8
:1030380030330000640a00003a31000030320000ea
:103048006439000030300000303900003666000076
:103058006332000066300000303000003430000079
:1030680033340000333000003034000034330000c3
:1030780033640000643000003065000066390000e9
:10308800653900003730000030620000300a000067
:103098003a31000030320000646100003030000036
:1030a800303800006430000036370000333000004c
:1030b80030650000643900006639000066300000a1
:1030c800303600003430000030320000303000006c
:1030d80030640000346100003739000066300000b9
:1030e80030350000340a00003a3100003032000068
:1030f80064620000303000003039000065300000a4
:1031080030330000373000003030000036660000f1
:1031180064320000663000003030000034300000b7
:1031280033340000333000003065000039300000cf
:10313800663500003330000030370000370a0000e1
:103148003a31000030320000646300003030000083
:1031580030300000643000003033000036300000aa
:103168003066000036660000393200006630000024
:1031780030300000343000003334000033300000b9
:10318800306500003530000066350000333000003f
:1031980030310000310a00003a31000030320000be
:1031a800646400003030000030300000333000002c
:1031b800303300006530000030390000366600000a
:1031c800613200006630000030300000343000000a
:1031d8003334000033300000303000003630000057
:1031e800303300003730000030360000630a00003a
:1031f8003a310000303200006465000030300000d1
:10320800306600003666000062320000663000005a
:103218003030000034300000333400003330000018
:10322800306500003530000066350000333000009e
:1032380030300000343000003333000065300000c7
:1032480030650000640a00003a31000030320000a6
:103258006466000030300000303900003666000037
:103268006332000066300000303000003430000067
:103278003334000033300000306500006639000048
:103288006239000037300000303800003730000065
:10329800333700003330000030610000610a00005d
:1032a8003a31000030320000653000003030000054
:1032b80030650000373900006639000066300000cc
:1032c80030340000383300006264000065300000cc
:1032d80030300000373800003266000062300000ed
:1032e8003030000034300000323400003330000049
:1032f80030360000660a00003a3100003032000023
:1033080065310000303000003035000066390000bb
:1033180063390000373000003030000034300000de
:1033280034340000343000003064000038390000c4
:103338006639000066300000303700003930000080
:10334800303200003030000030320000350a000012
:103358003a310000303200006532000030300000a1
:103368003064000039610000373900006630000021
:1033780030380000313000003033000037300000b2
:10338800303000003666000064320000663000000d
:103398003030000034300000333400003330000097
:1033a80030340000660a00003a3100003032000074
:1033b800653300003030000030650000393000000f
:1033c8006635000033300000303000006430000003
:1033d80030330000363000003066000036660000ea
:1033e8003932000066300000303000003430000010
:1033f800333400003330000030390000630a000025
:103408003a310000303200006534000030300000ee
:1034180030650000353000006635000033300000ac
:1034280030300000333000003033000065300000d9
:103438003039000036660000613200006630000056
:1034480030300000343000003334000033300000e6
:1034580030660000310a00003a31000030320000c6
:103468006535000030300000303000003630000094
:103478003033000037300000306600003666000048
:103488006232000066300000303000003430000046
:103498003334000033300000306500003530000060
:1034a800663500003330000030380000340a000070
:1034b8003a3100003032000065360000303000003c
:1034c80030650000663000003233000065300000cf
:1034d80030390000366600006332000066300000b4
:1034e8003030000034300000333400003330000046
:1034f80030340000343300003364000064300000ce
:1035080030640000340a00003a3100003032000014
:1035180065370000303000003066000036390000a2
:103528006639000066300000303800006130000065
:10353800303200003030000030640000616100006b
:103548003739000066300000303600006230000075
:10355800303300003730000030620000320a0000cb
:103568003a31000030320000653800003030000089
:10357800303000003666000064320000663000001b
:1035880030300000343000003334000033300000a5
:103598003065000039300000663500003330000027
:1035a8003030000064300000303300003630000056
:1035b80030330000380a00003a3100003032000091
:1035c80065390000303000003066000036660000c3
:1035d800393200006630000030300000343000001e
:1035e800333400003330000030650000353000000f
:1035f8006635000033300000303000003330000002
:10360800303300006530000030340000320a00001a
:103618003a310000303200006561000030300000af
:103628003039000036660000613200006630000064
:1036380030300000343000003334000033300000f4
:1036480030300000363000003033000037300000e2
:103658003066000036660000623200006630000006
:1036680030620000630a00003a3100003032000086
:103678006562000030300000303000003430000057
:10368800333400003330000030650000353000006e
:10369800663500003330000030650000313000002e
:1036a8003233000065300000303900003666000013
:1036b800633200006630000030390000660a0000fe
:1036c8003a310000303200006563000030300000fd
:1036d8003030000034300000333400003330000054
:1036e8003066000066390000643900003730000099
:1036f80030380000623000003537000033300000f9
:10370800306600006239000066390000663000004b
:1037180030340000390a00003a310000303200002d
:103728006564000030300000303500006639000064
:10373800653900003730000030300000623000008a
:103748003634000036300000306400006339000071
:10375800663900006630000030390000643000002f
:10376800303200003030000030330000300a0000f2
:103778003a3100003032000065650000303000004a
:1037880030640000646100003739000066300000d2
:103798003030000030300000326500006230000038
:1037a80030630000343900006639000066300000dc
:1037b800303400006630000030330000373000003d
:1037c80030340000610a00003a3100003032000055
:1037d800656600003030000030650000643000008d
:1037e8006635000032300000303000003230000012
:1037f80030330000323000003065000061300000d6
:1038080066350000323000003030000063300000c0
:10381800303300006130000030620000660a0000aa
:103828003a310000303200006630000030300000cd
:1038380030310000353000003032000030300000f8
:10384800303200006637000062390000373000006f
:1038580030300000363000003465000030300000a1
:1038680030300000313000003033000032300000ca
:1038780030320000650a00003a31000030320000a2
:103888006631000030300000303200003530000072
:103898003032000030300000303100003561000067
:1038a80065610000383000003031000034650000e8
:1038b8006561000038300000303100003538000004
:1038c800656100003830000030300000630a0000f5
:1038d8003a3100003032000066320000303000001b
:1038e80030310000356300006561000038300000a9
:1038f80030380000303000003365000062300000ce
:10390800306400003761000037390000663000007d
:1039180030330000663000003033000037300000dc
:1039280030310000350a00003a3100003032000022
:103938006633000030300000303400006639000083
:1039480063390000373000003030000038300000a4
:103958003364000030300000303200003966000067
:10396800373200006630000030380000663800004a
:10397800343400003430000030380000650a00009c
:103988003a31000030320000663400003030000068
:103998003030000036380000333400003430000086
:1039a80030300000303000006265000062300000f6
:1039b80030300000366600006432000066300000d7
:1039c8003030000034300000333400003330000061
:1039d80030340000320a00003a3100003032000072
:1039e80066350000303000003065000039300000d6
:1039f80066350000333000003030000064300000cd
:103a080030330000363000003066000036660000b3
:103a180039320000663000003030000034300000d9
:103a2800333400003330000030370000620a0000f1
:103a38003a310000303200006636000030300000b5
:103a48003065000035300000663500003330000076
:103a580030300000333000003033000065300000a3
:103a68003039000036660000613200006630000020
:103a780030300000343000003334000033300000b0
:103a880030640000300a00003a3100003032000093
:103a9800663700003030000030300000363000005b
:103aa8003033000037300000306600003666000012
:103ab8006232000066300000303000003430000010
:103ac800333400003330000030650000353000002a
:103ad800663500003330000030360000330a00003d
:103ae8003a31000030320000663800003030000003
:103af80030620000373000003233000065300000cb
:103b0800303900003666000063320000663000007d
:103b1800303000003430000033340000333000000f
:103b28003034000066390000643900003730000086
:103b380030620000630a00003a31000030320000b1
:103b4800663900003030000030300000613000007d
:103b5800326400003030000030340000343300009c
:103b68003364000064300000303800003630000054
:103b78003537000038300000306500003430000070
:103b8800386200003130000030360000310a000091
:103b98003a31000030320000666100003030000029
:103ba8003038000062330000373700006130000011
:103bb8003061000063300000303200003030000017
:103bc800306400006361000037390000663000008f
:103bd800303100006630000030330000373000001c
:103be80030610000310a00003a3100003032000034
:103bf8006662000030300000303000003666000099
:103c080064320000663000003030000034300000bc
:103c180033340000333000003065000039300000d4
:103c2800663500003330000030300000643000009a
:103c3800303300003630000030300000370a000012
:103c48003a31000030320000666300003030000076
:103c58003066000036660000393200006630000029
:103c680030300000343000003334000033300000be
:103c78003065000035300000663500003330000044
:103c88003030000033300000303300006530000071
:103c980030310000310a00003a31000030320000b3
:103ca80066640000303000003039000036660000dd
:103cb800613200006630000030300000343000000f
:103cc800333400003330000030300000363000005c
:103cd80030330000373000003066000036660000e0
:103ce800623200006630000030380000620a0000ce
:103cf8003a310000303200006665000030300000c4
:103d0800303000003430000033340000333000001d
:103d180030650000353000006635000033300000a3
:103d2800306100003530000032330000653000009b
:103d3800303900003666000063320000663000004b
:103d480030610000610a00003a31000030320000a2
:103d5800666600003030000030300000343000006b
:103d6800333400003330000030630000663900004f
:103d78006539000037300000303000006430000042
:103d88003264000030300000303200003766000036
:103d9800373200006630000030350000370a000076
:103da8003a3100003033000030300000303000007d
:103db800303800006638000033340000333000002b
:103dc8003030000034380000323400003330000056
:103dd8003031000034300000333700003330000049
:103de8003030000036300000613700003830000005
:103df80030390000300a00003a310000303300004a
:103e080030310000303000003035000066390000e5
:103e180063390000373000003030000036300000d1
:103e280034340000343000003064000038390000b9
:103e38006639000066300000303800006430000049
:103e4800366500003830000030330000660a000094
:103e58003a310000303300003032000030300000ca
:103e680030630000643900006639000066300000e5
:103e780030390000393000003032000030300000a6
:103e880030640000396100003739000066300000f6
:103e9800306500003138000066350000323000001f
:103ea80030660000620a00003a310000303300003a
:103eb8003033000030300000303300003030000074
:103ec80032330000613000003037000066390000ee
:103ed80064390000373000003065000031300000e0
:103ee80066350000353000003065000063300000a2
:103ef800303300003230000030300000650a000026
:103f08003a31000030330000303400003030000017
:103f1800303000003330000030330000393000000a
:103f28003065000034300000663500003530000090
:103f3800303000006630000032330000613000008d
:103f480030300000393000003233000037300000d4
:103f580030360000660a00003a31000030330000b5
:103f68003035000030300000306200006639000053
:103f78006539000037300000303600003136000067
:103f880065620000383000003061000063620000a4
:103f980037390000663000003062000064620000bb
:103fa800373900006630000030650000300a000034
:103fb8003a31000030330000303600003030000065
:103fc80030650000303000006635000036300000f3
:103fd80030650000303800006635000065300000ac
:103fe800303000006330000032330000323000000f
:103ff80030370000663900003339000037300000e0
:1040080030360000350a00003a3100003033000035
:1040180030370000303000003038000066390000ca
:104028006239000037300000306300003033000090
:10403800326400006430000030300000343000008a
:104048003032000030300000306500006639000072
:10405800623900003730000030370000620a000083
:104068003a310000303300003038000030300000b2
:1040780030300000343800003234000033300000a3
:104088003065000030380000323400006130000034
:10409800303000003030000034650000623000002d
:1040a8003036000030330000336200003830000042
:1040b80030390000310a00003a3100003033000086
:1040c8003039000030300000303100003930000055
:1040d80030320000303000003063000039610000e9
:1040e8006639000066300000303200006266000069
:1040f80037320000663000003038000066380000b3
:10410800353400003530000030330000360a000036
:104118003a310000303300003061000030300000d8
:10412800303600003135000064620000383000008d
:104138003038000061620000373900006630000046
:104148003039000062620000373900006630000034
:104158003033000066610000363900003730000057
:1041680030350000640a00003a31000030330000a6
:1041780030620000303000003063000066610000eb
:104188003639000037300000303800006330000056
:104198006635000032300000303800006438000016
:1041a8006635000061300000303800003030000013
:1041b800303300003630000030650000620a00002d
:1041c8003a31000030330000306300003030000026
:1041d8003036000033300000353400003030000045
:1041e80030650000303800003534000038300000f9
:1041f800306500006161000066390000663000002b
:104208003066000062610000663900006630000018
:1042180030320000610a00003a31000030330000fb
:104228003064000030300000306600006333000066
:10423800663200003930000030320000643000007f
:1042480030320000303000003038000063300000a9
:104258006635000035300000303800006438000052
:10426800663500006430000030640000360a000043
:104278003a31000030330000306500003030000073
:104288003037000037300000303300006530000060
:104298003038000032300000663500003030000051
:1042a8003038000033380000663500003830000030
:1042b8003031000064300000303300003930000035
:1042c80030380000610a00003a3100003033000045
:1042d80030660000303000003030000061380000e7
:1042e8003032000066300000303300003930000002
:1042f80030320000343000003065000036610000c4
:104308006639000066300000306600003761000042
:10431800663900006630000030340000310a0000c1
:104328003a310000303300003130000030300000f6
:104338003030000034300000336200006530000087
:1043480030360000333300003938000038300000c0
:1043580030380000323000003636000035300000ba
:104368003035000064330000393800003830000070
:1043780030630000620a00003a3100003033000068
:104388003131000030300000303400003933000093
:104398003938000038300000303000003630000076
:1043a8003066000063300000303500003530000012
:1043b800353200003030000030370000353300005f
:1043c800393800003830000030660000330a000039
:1043d8003a31000030330000313200003030000044
:1043e80030610000353000006132000030300000dc
:1043f800303700003533000039380000383000000d
:1044080030320000396500003761000038300000a4
:104418003030000030300000303000003030000014
:1044280030650000320a00003a31000030330000e5
:1044380031330000303000003030000030300000f0
:1044480030300000303000003032000038300000da
:1044580037650000323000003066000065660000f5
:10446800663300003530000030300000343800007a
:10447800303200003030000030610000380a00009f
:104488003a31000030330000313400003030000091
:10449800303000003530000030320000303000008d
:1044a800303000003230000031340000323000007b
:1044b800303800003338000031340000613000002b
:1044c8003038000030300000663500003130000020
:1044d80030650000370a00003a3100003033000030
:1044e800313500003030000030380000313800002d
:1044f8006635000039300000306500006266000053
:1045080066330000363000003030000036300000de
:10451800326200006530000030360000666100003d
:10452800623900003730000030360000660a0000ab
:104538003a310000303300003136000030300000de
:104548003066000066610000623900003730000004
:104558003061000039300000663200003030000061
:104568003061000039300000323800003830000077
:104578003038000030300000346500006230000040
:1045880030610000340a00003a3100003033000086
:10459800313700003030000030320000663800004b
:1045a8006439000037300000303800006130000006
:1045b800636200006230000030620000663800006c
:1045c80064390000373000003038000062380000dd
:1045d800636200006230000030660000360a0000a6
:1045e8003a3100003033000031380000303000002c
:1045f8003032000039300000303200003030000026
:10460800303400006638000065390000373000009b
:104618003038000063300000636200006230000040
:10462800306400006638000065390000373000004b
:1046380030320000620a00003a31000030330000d6
:104648003139000030300000303800006438000094
:104658006362000062300000303400003030000037
:1046680064640000653000003030000062300000f3
:10467800303200003030000030300000613000007f
:10468800373700003830000030370000630a000078
:104698003a31000030330000316100003030000052
:1046a800303600006133000039380000383000002f
:1046b8003038000030300000343700003830000057
:1046c8003035000030330000393800003830000041
:1046d800303100006130000030320000343000001a
:1046e80030610000390a00003a3100003033000020
:1046f80031620000303000003034000061330000c7
:104708003938000038300000303000003630000002
:104718003066000063300000303500006130000072
:1047280035320000303000003037000061330000bf
:10473800393800003830000030340000380a0000f2
:104748003a3100003033000031630000303000009f
:10475800306100006130000061320000303000003c
:10476800303700006133000039380000383000006d
:104778003032000039650000376100003830000031
:1047880030300000303000003030000030300000a1
:1047980030330000380a00003a310000303300009e
:1047a800316400003030000030300000303000004c
:1047b8003030000030300000303200003830000067
:1047c8003765000032300000306600006566000082
:1047d80066330000353000003061000065300000ad
:1047e800323800003830000030370000340a00004a
:1047f8003a310000303300003165000030300000ed
:1048080030310000393000003562000061300000ae
:10481800306500006138000066390000663000002d
:10482800303900003938000035620000613000007e
:10483800306600006238000066390000663000000b
:1048480030650000650a00003a310000303300008e
:104858003166000030300000303200006638000059
:104868006539000037300000303800006330000040
:10487800663500003530000030300000343000006c
:1048880030330000613000003062000066380000fc
:10489800653900003730000030360000390a000062
:1048a8003a31000030330000323000003030000070
:1048b80030380000623800006635000036300000ed
:1048c8003030000034300000303300006130000028
:1048d8003030000035300000303300003730000041
:1048e80030300000303000003565000062300000d4
:1048f80030650000340a00003a310000303300000f
:104908003231000030300000306300006161000087
:104918006639000066300000303000003230000098
:1049280030330000373000003038000030300000ed
:1049380035650000623000003063000062610000ed
:10494800663900006630000030640000340a000058
:104958003a310000303300003232000030300000bd
:1049680030360000323000003034000030300000b3
:104978003065000030380000303400003830000066
:10498800306100003130000032380000383000005b
:104998003038000039380000346500003830000035
:1049a80030330000340a00003a3100003033000090
:1049b8003233000030300000303100003930000060
:1049c80030620000613000003038000030390000eb
:1049d80037390000663000003039000039380000ef
:1049e80034620000613000003039000039390000bd
:1049f800373900006630000030350000660a0000d4
:104a08003a3100003033000032340000303000000a
:104a18003034000066380000653900003730000087
:104a28003038000063300000663500003030000088
:104a380030300000343000003033000061300000b6
:104a48003064000066380000653900003730000027
:104a580030640000640a00003a310000303300007e
:104a68003235000030300000303800006438000073
:104a7800663500003430000030300000343000006b
:104a88003033000061300000303000003530000065
:104a98003033000037300000303000003030000084
:104aa800306500006230000030390000390a00002b
:104ab8003a31000030330000323600003030000058
:104ac8003063000030610000663900006630000085
:104ad8003030000032300000303300003730000042
:104ae80030380000303000003065000062300000cf
:104af8003063000031610000663900006630000054
:104b080030390000640a00003a31000030330000f8
:104b180032370000303000003038000035300000f7
:104b280030640000313000003030000034380000bc
:104b380030640000333000003038000031300000ad
:104b4800343700003830000030610000396100005f
:104b5800373900006630000030620000350a000076
:104b68003a310000303300003238000030300000a5
:104b780030630000396600006632000066300000cd
:104b8800303800003038000034360000343000007f
:104b98003039000039610000373900006630000004
:104ba8003031000066610000303900003730000005
:104bb80030610000610a00003a3100003033000023
:104bc80032390000303000003061000066610000ba
:104bd800303900003730000030300000303000003d
:104be8003534000030300000303800003138000023
:104bf800353400003830000030360000373000000f
:104c0800363400003530000030300000330a000030
:104c18003a310000303300003261000030300000cb
:104c28003065000030380000363400006430000081
:104c38003062000063610000373900006630000010
:104c480030630000646100003739000066300000fe
:104c58003038000030300000346500006230000059
:104c680030650000370a00003a3100003033000098
:104c78003262000030300000306100003938000036
:104c880066390000663000003062000039380000e4
:104c980066390000663000003063000039380000d3
:104ca80066390000663000003064000039380000c2
:104cb800663900006630000030350000320a000016
:104cc8003a31000030330000326300003030000019
:104cd8003066000064660000663200003030000074
:104ce80030380000643000006635000032300000c3
:104cf8003065000030380000663500006130000083
:104d08003031000039300000303300003630000008
:104d180030640000630a00003a31000030330000bc
:104d280032640000303000003038000035300000b8
:104d380035640000313000003030000034380000a5
:104d48003564000033300000306500003330000067
:104d580034360000353000003030000034300000b8
:104d6800386100003330000030330000630a00006f
:104d78003a31000030330000326500003030000066
:104d88003030000063300000303300003230000063
:104d98003038000039300000346400003030000042
:104da800303200003930000032620000303000003c
:104db80030320000616600003732000066300000c3
:104dc80030310000380a00003a310000303300006a
:104dd80032660000303000003030000066300000dd
:104de800353400003530000030380000393000001c
:104df8003434000035300000303000003830000016
:104e08003564000030300000303800006662000071
:104e1800353900003730000030650000620a0000b4
:104e28003a310000303300003330000030300000e9
:104e380030300000623000003534000035300000aa
:104e48003031000061300000353700003830000094
:104e5800303400003835000035640000643000004c
:104e68003039000039300000633700003530000069
:104e780030330000640a00003a310000303300008b
:104e88003331000030300000303200006130000063
:104e9800303300003730000030380000393000006f
:104ea800346400003030000030300000383000003a
:104eb80035640000303000003030000066620000c9
:104ec800363900003730000030620000360a000032
:104ed8003a31000030330000333200003030000037
:104ee80030300000633000003534000035300000f9
:104ef80030390000613000003637000038300000db
:104f080030630000393000003662000031300000a4
:104f1800303800006462000037370000633000005a
:104f280030650000660a00003a31000030330000a6
:104f380033330000303000003032000032300000df
:104f480030330000373000003038000035300000c2
:104f58003564000031300000303000003438000083
:104f68003564000033300000306500003330000045
:104f7800343600003530000030330000310a0000bc
:104f88003a31000030330000333400003030000084
:104f98003030000034300000386100003330000049
:104fa8003031000031300000303300003230000072
:104fb8003030000038300000376400003030000026
:104fc80030300000666200003639000037300000db
:104fd80030350000300a00003a310000303300005c
:104fe80033350000303000003030000063300000fe
:104ff80037340000373000003031000065300000e1
:1050080037370000383000003034000038370000ef
:105018003764000064300000303800003930000088
:10502800346400003030000030370000640a0000ab
:105038003a310000303300003336000030300000d1
:105048003032000039300000326200003030000099
:10505800303200006466000037320000663000001d
:105068003038000066380000363400003630000062
:105078003038000039380000343400003630000081
:1050880030380000310a00003a31000030330000a7
:10509800333700003030000030390000393000006c
:1050a8006337000037300000303000006130000006
:1050b8003534000035300000303800006238000018
:1050c80035340000643000003038000066610000ac
:1050d800343900003730000030620000360a000022
:1050e8003a3100003033000033380000303000001f
:1050f80030300000613800003534000034300000e2
:1051080030310000613000006437000037300000a3
:1051180030300000633000003033000037300000ca
:1051280030300000383000003764000030300000b4
:1051380030610000610a00003a310000303300009d
:105148003339000030300000303000006662000063
:10515800363900003730000030300000633000007e
:10516800373400003730000030310000653000006f
:105178003737000038300000303800003930000080
:10518800346400003030000030370000640a00004a
:105198003a31000030330000336100003030000045
:1051a8003063000039300000366200003130000002
:1051b80030380000656200003737000063300000b7
:1051c8003030000061300000353400003530000018
:1051d80030380000623800003534000064300000c8
:1051e80030320000620a00003a310000303300001b
:1051f8003362000030300000303800006661000083
:1052080034390000373000003030000061380000c9
:1052180035340000343000003030000065300000c4
:1052280064370000383000003036000031300000ac
:10523800333400003330000030330000360a0000f9
:105248003a31000030330000336300003030000092
:105258003065000030380000333400006230000050
:10526800303000003830000034650000383000006d
:105278003036000031300000323400003230000097
:105288003065000030380000323400006130000022
:1052980030300000610a00003a310000303300006d
:1052a80033640000303000003032000066620000d5
:1052b80035390000373000003062000066620000b7
:1052c8003539000037300000303800003630000033
:1052d80066350000353000003038000037380000ef
:1052e800663500006430000030300000610a0000bc
:1052f8003a310000303300003365000030300000e0
:10530800303300003266000066330000653000006c
:1053180030310000623000003032000030300000d0
:105328003061000062390000663900006630000014
:1053380030320000383000003133000037300000d0
:1053480030650000610a00003a3100003033000087
:105358003366000030300000303100006230000059
:105368003032000030300000303200006639000072
:10537800653900003730000030300000633000002d
:105388003065000030300000303600006530000025
:10539800303300003230000030610000320a000073
:1053a8003a31000030330000343000003030000063
:1053b80030380000303000003665000062300000f0
:1053c8003061000064390000663900006630000072
:1053d80030660000343300006632000039300000c7
:1053e800303200003530000030320000303000002c
:1053f80030620000660a00003a31000030330000d5
:105408003431000030300000303800003430000003
:1054180066350000303000003038000035380000b4
:1054280066350000383000003036000037300000a4
:1054380030330000653000003038000032300000a2
:10544800663500003030000030640000370a000084
:105458003a310000303300003432000030300000b0
:10546800303800003338000066350000383000005e
:105478003031000037300000303300003930000090
:10548800303000003538000030320000663000004f
:105498003033000038300000303200003430000073
:1054a80030640000320a00003a3100003033000056
:1054b800343300003030000030300000363800004f
:1054c800303200003030000030300000373000004b
:1054d8003032000030300000303600003333000036
:1054e8003938000038300000303000003238000011
:1054f800323600003230000030620000350a000009
:105508003a310000303300003434000030300000fd
:1055180030350000343300003938000038300000de
:1055280030340000383300003938000038300000cb
:105538003030000036300000306600006330000074
:1055480030350000343000003532000030300000c3
:1055580030650000330a00003a31000030330000a3
:10556800343500003030000030370000343300009c
:105578003938000038300000306100003430000055
:105588006132000030300000303700003433000052
:10559800393800003830000030320000396500002a
:1055a800376100003830000030370000630a00001f
:1055b8003a3100003033000034360000303000004b
:1055c8003030000030300000303000003030000053
:1055d8003030000030300000303000003030000043
:1055e80030320000383000003765000032300000eb
:1055f8003066000065660000663300003530000044
:1056080030310000390a00003a3100003033000020
:1056180034370000303000003030000032300000f5
:1056280031340000333000003038000033380000d7
:1056380031340000623000003038000032300000a1
:105648006635000030300000303800003338000084
:10565800663500003830000030360000630a00006c
:105668003a31000030330000343800003030000098
:1056780030650000646600006633000031300000c9
:105688003061000032300000663200003030000027
:10569800306100003230000032380000383000003d
