:020000040000fa
:080000000002040000000000f2
:020000040000fa
:04000800560b000093
:020000040000fa
:04000c000a090000dd
:020000040000fa
:040010005e09000085
:020000040000fa
:04001400b00900002f
:020000040000fa
:04001800320a0000a8
:020000040000fa
:04001c00b40a000022
:020000040000fa
:04002000560b00007b
:020000040000fa
:04002400560b000077
:020000040000fa
:04002800560b000073
:020000040000fa
:04002c00560b00006f
:020000040000fa
:04003000560b00006b
:020000040000fa
:04003400560b000067
:020000040000fa
:04003800fa020000c8
:020000040000fa
:04003c00560b00005f
:020000040000fa
:04004000560b00005b
:020000040000fa
:04004400f6050000bd
:020000040000fa
:04004800140600009a
:020000040000fa
:04004c00560b00004f
:020000040000fa
:04005000560b00004b
:020000040000fa
:04005400940600000e
:020000040000fa
:04005800ca070000d3
:020000040000fa
:04005c00560b00003f
:020000040000fa
:040060004a0400004e
:020000040000fa
:04006400560b000037
:020000040000fa
:040068000c05000083
:020000040000fa
:04006c00560b00002f
:020000040000fa
:04007000560b00002b
:020000040000fa
:04007400560b000027
:020000040000fa
:04007800560b000023
:020000040000fa
:04007c00560b00001f
:020000040000fa
:04008000560b00001b
:020000040000fa
:04008400560b000017
:020000040000fa
:04008800d805000097
:020000040000fa
:04008c00560b00000f
:020000040000fa
:04009000560b00000b
:020000040000fa
:04009400560b000007
:020000040000fa
:04009800560b000003
:020000040000fa
:04009c00560b0000ff
:020000040000fa
:0400a0005007000005
:020000040000fa
:0400a400e807000069
:020000040000fa
:0400a800560b0000f3
:020000040000fa
:0400ac00560b0000ef
:020000040000fa
:0400b000560b0000eb
:020000040000fa
:0400b400560b0000e7
:020000040000fa
:0400b800560b0000e3
:020000040000fa
:0400bc00560b0000df
:020000040000fa
:0400c000560b0000db
:020000040000fa
:0400c400560b0000d7
:020000040000fa
:0400c800560b0000d3
:020000040000fa
:0400cc00560b0000cf
:020000040000fa
:0400d000560b0000cb
:020000040000fa
:0400d400560b0000c7
:020000040000fa
:0400d800560b0000c3
:020000040000fa
:0400dc00560b0000bf
:020000040000fa
:0400e000560b0000bb
:020000040000fa
:0400e400560b0000b7
:020000040000fa
:0400e800560b0000b3
:020000040000fa
:0400ec00560b0000af
:020000040000fa
:0400f000560b0000ab
:020000040000fa
:0400f400560b0000a7
:020000040000fa
:0400f800560b0000a3
:020000040000fa
:0400fc00560b00009f
:020000040000fa
:04010000560b00009a
:020000040000fa
:04010400560b000096
:020000040000fa
:04010800560b000092
:020000040000fa
:04010c00560b00008e
:020000040000fa
:04011000560b00008a
:020000040000fa
:04011400560b000086
:020000040000fa
:04011800560b000082
:020000040000fa
:04011c00560b00007e
:020000040000fa
:04012000560b00007a
:020000040000fa
:04012400560b000076
:020000040000fa
:04012800560b000072
:020000040000fa
:04012c0006080000c1
:020000040000fa
:04013000880800003b
:020000040000fa
:04013400560b000066
:020000040000fa
:04013800560b000062
:020000040000fa
:04013c00560b00005e
:020000040000fa
:04014000560b00005a
:020000040000fa
:04014400560b000056
:020000040000fa
:04014800560b000052
:020000040000fa
:04014c00560b00004e
:020000040000fa
:04015000560b00004a
:020000040000fa
:04015400560b000046
:020000040000fa
:04015800560b000042
:020000040000fa
:04015c00560b00003e
:020000040000fa
:04016000560b00003a
:020000040000fa
:04016400560b000036
:020000040000fa
:04016800560b000032
:020000040000fa
:04016c00560b00002e
:020000040000fa
:04017000560b00002a
:020000040000fa
:04017400560b000026
:020000040000fa
:04017800560b000022
:020000040000fa
:04017c00560b00001e
:020000040000fa
:04018000560b00001a
:020000040000fa
:04018400560b000016
:020000040000fa
:04018800560b000012
:020000040000fa
:04018c00560b00000e
:020000040000fa
:04019000560b00000a
:020000040000fa
:04019400560b000006
:020000040000fa
:04019800560b000002
:020000040000fa
:04019c00560b0000fe
:020000040000fa
:0401a000560b0000fa
:020000040000fa
:0401a400560b0000f6
:020000040000fa
:0401a800560b0000f2
:020000040000fa
:0401ac00560b0000ee
:020000040000fa
:0401b000560b0000ea
:020000040000fa
:0401b400560b0000e6
:020000040000fa
:0401b800560b0000e2
:020000040000fa
:0401bc00560b0000de
:020000040000fa
:0401c000560b0000da
:020000040000fa
:0401c400560b0000d6
:020000040000fa
:0401c800560b0000d2
:020000040000fa
:0401cc00560b0000ce
:020000040000fa
:0401d000560b0000ca
:020000040000fa
:0401d400560b0000c6
:020000040000fa
:0401d800560b0000c2
:020000040000fa
:0401dc00560b0000be
:020000040000fa
:0401e000560b0000ba
:020000040000fa
:0401e400560b0000b6
:020000040000fa
:0401e800560b0000b2
:020000040000fa
:0401ec00560b0000ae
:020000040000fa
:0401f000560b0000aa
:020000040000fa
:0401f400560b0000a6
:020000040000fa
:0401f800560b0000a2
:020000040000fa
:0401fc00560b00009e
:020000040000fa
:04020000560b000099
:020000040000fa
:04020400560b000095
:020000040000fa
:04020800560b000091
:020000040000fa
:04020c00560b00008d
:020000040000fa
:04021000560b000089
:020000040000fa
:04021400560b000085
:020000040000fa
:04021800560b000081
:020000040000fa
:04021c00560b00007d
:020000040000fa
:04022000560b000079
:020000040000fa
:04022400560b000075
:020000040000fa
:04022800560b000071
:020000040000fa
:04022c00560b00006d
:020000040000fa
:04023000560b000069
:020000040000fa
:04023400560b000065
:020000040000fa
:04023800560b000061
:020000040000fa
:04023c00560b00005d
:020000040000fa
:04024000560b000059
:020000040000fa
:04024400560b000055
:020000040000fa
:04024800560b000051
:020000040000fa
:04024c00560b00004d
:020000040000fa
:04025000560b000049
:020000040000fa
:04025400560b000045
:020000040000fa
:04025800560b000041
:020000040000fa
:04025c00560b00003d
:020000040000fa
:04026000560b000039
:020000040000fa
:04026400560b000035
:020000040000fa
:04026800560b000031
:020000040000fa
:04026c00560b00002d
:020000040000fa
:04027000560b000029
:020000040000fa
:04027400560b000025
:020000040000fa
:04027800560b000021
:020000040000fa
:04027c00560b00001d
:020000040000fa
:04028000560b000019
:020000040000fa
:10040000cfb427004ee527000e0188000000000051
:10041000000020000000e000020032000001200087
:100420002002880014000700a20407000000e0007a
:1004300003003a00e04f20001100200002003700c6
:100440000000200001002000810f70000100320038
:100450000f000700000020000000e0000200320052
:100460000000020000000000321c0200000000003a
:100470000040da000000fe0000e920000000e0007b
:1004800002003200002020009001880000000600d9
:10049000a1028800800478000000eb001f003700f4
:1004a000e284440054a0b4009905ba00e2844400f8
:1004b00054a0b4009906ba00e284440054a0b400e9
:1004c0000006eb00476fde00fd07b200ae018800ba
:1004d000636ce10003003a000ad801000000eb0061
:1004e0000e003700606ce10008003a00004deb00a0
:1004f0000a05e800020039003420ec000af0a000f0
:100500008b05e900f9ff3e00040037006168e10057
:10051000010032000086eb000b00070019c7ba008b
:100520000e04e0001905ba0003003a000a00e000da
:10053000dbff3a0000000600fe07b200ae028800b2
:100540008a047800f5ff37000cd0a300e20f4d00bd
:100550001c00390089027800354dba000a05e80010
:10056000020039003420ec000af0a0008b05e900fd
:100570000f003200254dba000a05e80002003900dc
:100580003420ec000af0a0008b05e90008003200de
:100590000c00e0000600320015cdba000a05e800a4
:1005a000020039003420ec000af0a0008b05e900bd
:1005b0008984e80054a0b4000b00e000e2ff3a0098
:1005c000000006009902ba00055d78008b05e9007d
:1005d000f7ff3200c82ade00055d78008b05e900d0
:1005e000f3ff32000c00e000f1ff320019ddba0029
:1005f000eeff37003600f800809fbe00829fbe00ed
:10060000849fbe00869fbe003200f8003400f800d0
:1006100010002000a0018800002020009001880028
:10062000000000000e00fa000088a900c0c7830087
:10063000610060000000e00042003200b0c78300ab
:1006400020138a0061c18300000820000080600040
:100650000000e0007c003200f112820002138200f0
:100660001313820024138200351382004613820084
:1006700057138200601624004ce4020000000000c2
:10068000100a82000000e0000b003400a1132400d7
:100690000e007800a8e1020000000000e12524001f
:1006a00006000900be187800ee00b100f0128200ca
:1006b000405888006400370061c1830000002800b2
:1006c000008060000000e0000e003200d1f1280040
:1006d00000232700a8b1020000000000b0be830084
:1006e000c1be83000001be0000232700d2b7020074
:1006f00000000000c1ee280000232700a8b102007e
:100700000000000061c1830000002800008060003c
:100710000000e00004003200714a29000023270095
:10072000a8b102000000000060c183000070a100b9
:1007300060c18b0060c183000040a00060c18b00dd
:1007400041003700b0c78300b0128a0061c1830046
:1007500000082000008060000000e0003a00320045
:100760008112820092128200a3128200b4128200cf
:10077000c5128200d6128200e712820060162400a1
:100780004ce4020000000000100a82000000e000bb
:100790000b003400a11324000e007800a8e1020031
:1007a000000000000125240006000900be187800a2
:1007b000ee00b1008012820020588800220037002d
:1007c00061c1830000002800008060000000e0009c
:1007d0000e003200d1f1280000232700a8b102004a
:1007e00000000000b0be8300c1be83000001be0057
:1007f00000232700d2b7020000000000c1ee28004d
:1008000000232700a8b102000000000061c183009e
:1008100000002800008060000000e00004003200ba
:10082000714a290000232700a8b10200000000003f
:1008300060c183000070a10060c18b0060c18300b3
:100840000040a00060c18b00c0c783006140600011
:100850000004a200614060000080fb0061006000b5
:10086000c1c783000100a10001007000c0c78b0058
:100870000080fa003400f9003200f9004f03be0096
:100880004f02be004f01be004f00be003600f9000f
:10089000004006003600f800809fbe00829fbe0028
:1008a000849fbe00869fbe003200f8003400f8002e
:1008b00010002000a0018800002020009001880086
:1008c000000000001600fa0001c8a900815880004d
:1008d00000002100008060000000e0001b003200ea
:1008e000e1502300824f23000a000900b21878006b
:1008f00060c183000090a10060c18b00118ba90032
:1009000090a781000000e00009003400e1382300d6
:100910000e0078009ee5020000000000814f2300d9
:100920000a000900be1878006e01b10031003700de
:1009300060c183000050a10060c18b0060c18300d2
:100940000090a00060c18b002a00370071a88100d0
:1009500010a98100e6e202000000000061c18300ee
:1009600000202000008060000000e0001400320041
:1009700060c183000090a10060c18b00102bef00cc
:1009800020c68300cf00de00008040000080d10040
:1009900030488800b0be8300c1be830063004000c1
:1009a000e080480030bf8b0041bf8b0070c18300e6
:1009b0000030a00070c18b0021c8a9000d003700d5
:1009c000102bef00f0a781000000e900f05888002c
:1009d000c0a78100a0588800162bef00609020006f
:1009e000e0588800200020009058880010002b005c
:1009f000805888000080fa003400f9003200f900c5
:100a00004f03be004f02be004f01be004f00be00ac
:100a10003600f900004006003600f800809fbe0056
:100a2000829fbe00849fbe00869fbe003200f800f9
:100a30003400f80010002000a001880000202000f1
:100a400090018800000000000400fa0041108000be
:100a500000042000008060000000e000010032007f
:100a600008c2a90040108000620060000000e000a1
:100a70002300320000108000000f78004110800039
:100a800000022000008060000000e0001c00320036
:100a900040108000640060000000e00018003a0090
:100aa00083908300a29083006110b9000080410010
:100ab0009e00780081407800014878000200e8003c
:100ac000a0908b00c09083000000e800c0908b00d5
:100ad000c1908300d0908300808f500002003400ca
:100ae000c0908300d0908b00a19083002091830060
:100af000808f500002003a000000eb00a0908b00b5
:100b000040108000640060000000e0001e00320021
:100b100070c183000000a00070c18b007091830041
:100b20000050a00070918b00411080000002200056
:100b3000008060000000e00012003a000091830095
:100b40000000e0000d003400e0202700a6b90200fc
:100b500000000000100798001e0090000000e00058
:100b6000030035001e0090001010880005003700bb
:100b7000e00020001010880002003700e000200094
:100b8000101088000782a8000208a9000080fa005f
:100b90003400f9003200f9004f03be004f02be00de
:100ba0004f01be004f00be003600f90000400600b5
:100bb0003200f8003400f800881f78001800200088
:100bc000a80188000820200098018800000000008b
:100bd0004f0478000000fa000308a9000080fa0022
:100be0003400f9003200f900004006003200f8003d
:100bf0003400f800881f780018002000a801880041
:100c00000820200098018800000000004f047800b0
:100c10000000fa0000e8a9000080fa003400f900a2
:100c20003200f90000400600809fbe003200f8004c
:100c30003400f80010002000a001880000202000ef
:100c400090018800000000000000fa000108a900df
:100c500080c183007008880091c18300b0c1830007
:100c6000808f500003003e00700880000000e80004
:100c70007008880091c18300a0c18300808f50005c
:100c800002003a000000eb0090c18b0090c183008d
:100c90000000e80090c18b00c0c3830061006000c9
:100ca000004078000004e0000c003200c0c1830066
:100cb0000000e800c0c18b00c1c18300c0c2830036
:100cc000808f500005003900d0c383000000a000d1
:100cd000d0c38b000000eb00c0c18b00d0c38300e9
:100ce00061006000004078000004e000090032006c
:100cf000d0c383000000a100d0c38b00b0be83002e
:100d0000c1be830061004000e0804800b0be8b009f
:100d1000c1be8b000080fa003400f9003200f900f7
:100d20004f00be00004006003600f800809fbe0065
:100d3000829fbe00849fbe00869fbe003200f800e6
:100d40003400f80010002000a001880000202000de
:100d500090018800000000000000fa000168a9006e
:100d60001800370083908300a29083006110b900bf
:100d700000804100311180008140780001487800f6
:100d80000200e800a0908b00c09083000000e80003
:100d9000c0908b00c1908300d0908300808f500062
:100da00002003400c0908300d0908b00a19083009b
:100db00020918300808f500002003a000000eb0079
:100dc000a0908b0010118000610060000000e00026
:100dd000e4ff3a00c1908300209183006800500036
:100de000808f50000100340015eea8001011800023
:100df000620060000000e000200032002222a90012
:100e000070c183000010a00070c18b0061c183001d
:100e100000002800008060000000e0000e003200aa
:100e2000d1f1280000232700a8b102000000000033
:100e3000b0be8300c1be83000001be0000232700b6
:100e4000d2b7020000000000c1ee280000232700f6
:100e5000a8b102000000000061c18300000028006a
:100e6000008060000000e00004003200014c290016
:100e700000232700a8b10200000000000080fa0053
:100e80003400f9003200f9004f03be004f02be00eb
:100e90004f01be004f00be003600f90000400600c2
:100ea000809fbe00829fbe003200f8003400f80030
:100eb00010002000a0018800002020009001880080
:100ec000000000000200fa0003c8a9000000eb00c7
:100ed000000f780080928300610060000000e00055
:100ee000260032001900370093918300b2918300ed
:100ef0006110b90000804100b1118000814078008c
:100f0000014878000200e800b0918b00d091830086
:100f10000000e800d0918b00d1918300e091830024
:100f2000808f500002003400d0918300e0918b004c
:100f3000b191830030928300808f500002003a000c
:100f40000000eb00b0918b001e0fe80090118000b4
:100f5000610060000000e000e3ff3a0090118000b3
:100f6000660060000000e000040032003222a900a8
:100f7000709283000000e80070928b000080fa00fd
:100f80003400f9003200f9004f01be004f00be00ee
:100f9000004006003200f8003400f800881f780096
:100fa00018002000a801880008202000980188006f
:100fb000000000004f0478000000fa000188a9003a
:100fc0000080fa003400f9003200f9000040060009
:100fd0003200f8003400f800881f78001800200064
:100fe000a801880008202000980188000000000067
:100ff0004f0478000000fa0003e8a9000080fa001e
:101000003400f9003200f900004006003600f80014
:10101000809fbe00829fbe00849fbe00869fbe0050
:101020003200f8003400f80010002000a001880011
:101030000020200090018800000000000000fa005d
:101040000828a90061c1830000002800008060001a
:101050000000e0000e003200d1f12800002327003c
:10106000a8b1020000000000b0be8300c1be830032
:101070000001be0000232700d2b7020000000000dc
:10108000c1ee280000232700a8b1020000000000e4
:1010900061c1830000002800008060000000e000c3
:1010a00004003200014e290000232700a8b10200ed
:1010b0000000000061c18300000028000080600083
:1010c0000000e00009003200010029000023270091
:1010d000a8b102000000000010118000800078001c
:1010e00000232700f8af0200000000000080fa0093
:1010f0003400f9003200f9004f03be004f02be0079
:101100004f01be004f00be003600f900004006004f
:101110003600f800809fbe00829fbe00849fbe0004
:10112000869fbe003200f8003400f8001000200056
:10113000a00188000020200090018800000000002d
:101140000000fa000848a90061c1830000002800df
:10115000008060000000e0000e003200d1f12800a5
:1011600000232700a8b1020000000000b0be8300e9
:10117000c1be83000001be0000232700d2b70200d9
:1011800000000000c1ee280000232700a8b10200e3
:101190000000000061c183000000280000806000a2
:1011a0000000e00004003200e14e29000023270087
:1011b000a8b102000000000061c183000000280007
:1011c000008060000000e0000900320001002900fa
:1011d00000232700a8b10200000000009011800049
:1011e0008000780000232700f8af02000000000014
:1011f0000080fa003400f9003200f9004f03be000d
:101200004f02be004f01be004f00be003600f90085
:10121000004006003600f800809fbe00829fbe009e
:10122000849fbe00869fbe000000fa0061c183005b
:1012300000002800008060000000e0000e00320086
:10124000d1f1280000232700a8b10200000000000f
:10125000b0be8300c1be83000001be000023270092
:10126000d2b7020000000000c1ee280000232700d2
:10127000a8b102000000000061c183000000280046
:10128000008060000000e00004003200b14f29003f
:1012900000232700a8b1020000000000c068a900d8
:1012a0000080fa004f03be004f02be004f01be0097
:1012b0004f00be003600f900004006003600f8007e
:1012c000809fbe00829fbe00849fbe00869fbe009e
:1012d0000000fa0061c18300000028000080600067
:1012e0000000e0000e003200d1f1280000232700aa
:1012f000a8b1020000000000b0be8300c1be8300a0
:101300000001be0000232700d2b702000000000049
:10131000c1ee280000232700a8b102000000000051
:1013200061c1830000002800008060000000e00030
:1013300004003200a151290000232700a8b10200b7
:10134000000000000080fa004f03be004f02be0004
:101350004f01be004f00be003600f90000400600fd
:101360003600f800809fbe00829fbe00849fbe00b2
:10137000869fbe000000fa0061c1830000002800c3
:10138000008060000000e0000e003200d1f1280073
:1013900000232700a8b1020000000000b0be8300b7
:1013a000c1be83000001be0000232700d2b70200a7
:1013b00000000000c1ee280000232700a8b10200b1
:1013c0000000000061c18300000028000080600070
:1013d0000000e00004003200a15329000023270090
:1013e000a8b102000000000061c1830000002800d5
:1013f000008060000000e0000400320081552900f8
:1014000000232700a8b102000000000061c1830092
:1014100000002800008060000000e00009003200a9
:101420000100290000232700a8b1020000000000ed
:10143000004680008000780000232700f8af0200fb
:1014400000000000c048a9000080fa004f03be0061
:101450004f02be004f01be004f00be003600f90033
:10146000004006003600f800809fbe00829fbe004c
:10147000849fbe00869fbe000000fa0061c1830009
:1014800000002800008060000000e0000e00320034
:10149000d1f1280000232700a8b1020000000000bd
:1014a000b0be8300c1be83000001be000023270040
:1014b000d2b7020000000000c1ee28000023270080
:1014c000a8b102000000000061c1830000002800f4
:1014d000008060000000e000040032003156290066
:1014e00000232700a8b102000000000061c18300b2
:1014f00000002800008060000000e00004003200ce
:101500008155290000232700a8b102000000000037
:1015100061c1830000002800008060000000e0003e
:10152000090032000100290000232700a8b10200b1
:1015300000000000004680008000780000232700a3
:10154000f8af020000000000c088a9000080fa0087
:101550004f03be004f02be004f01be004f00be0051
:101560003600f900004006003600f800809fbe00fb
:10157000829fbe00849fbe00869fbe000000fa00ce
:1015800061c1830000002800008060000000e000ce
:101590000e003200d1f1280000232700a8b102007c
:1015a00000000000b0be8300c1be83000001be0089
:1015b00000232700d2b7020000000000c1ee28007f
:1015c00000232700a8b102000000000061c18300d1
:1015d00000002800008060000000e00004003200ed
:1015e000d157290000232700a8b102000000000005
:1015f00061c1830000002800008060000000e0005e
:10160000090032000100290000232700a8b10200d0
:1016100000000000805f8000800078000023270029
:10162000f8af020000000000f02bef0061c1830062
:1016300000002800008060000000e000040032008c
:101640008155290000232700a8b1020000000000f6
:1016500061c1830000002800008060000000e000fd
:10166000090032000100290000232700a8b1020070
:101670000000000000468000800078000023270062
:10168000f8af020000000000c0a8a900f02bef0096
:101690000080fa004f03be004f02be004f01be00a3
:1016a0004f00be003600f900004006000040da009e
:1016b0000000fe0000000500839f68000100e000bc
:1016c00002003d0060001000e08018000300e00010
:1016d00002003d0060011100e081190005000700d3
:1016e0004f00e00002003b0060001000e0801800a6
:1016f000000006006022b800060220000000d000b2
:101700008180d2000482d2008582d2000000a00035
:101710000202520083825a0003003100020242009a
:1017200083824a000000a1000603e900f3ff3a00ab
:1017300000000600889fbe008a9fbe003004420061
:10174000b0844a0030054b0090854b006000b1002a
:101750000898be000a90be000440e10005c8e10000
:1017600006d0e10007d8e100020031006800400027
:101770001008e8004f05be004f04be000000060040
:10178000889fbe008a9fbe001004780090049000dd
:1017900020059000b00590000418540005985c00e6
:1017a00006185d0007985d00110020000440e1006c
:1017b00005c8e10006d0e10007d8e10001003900ca
:1017c0008000eb00108810004f05be004f04be00e3
:1017d000000006001200fa00889fbe008a9fbe002b
:1017e0008c9fbe00e0b79f00f1b79f0082bf9f00b3
:1017f00093bf9f000605be000404be000000eb007e
:10180000d0b79f00c0b79f00b0b79f00a0b79f00a0
:1018100090b79f00000678005fb19700cfb09700a7
:10182000820141003fb097000200e00004003d004b
:10183000370007007e805700beff07000300370017
:10184000330007007e805700cdff0700dfb697000a
:101850000d00e0000c0035006fb29700ffb297005a
:101860000fbb97009fbb97001000200001002000d5
:101870006011b800000272008182720002037300de
:10188000838373001b0007000c06e800010420009e
:10189000810f5600e0ff3a000d00e00004003d001b
:1018a0000802be000a03be007e805700a1ff0700a9
:1018b0005fa897000000e00005003a001fb2970003
:1018c000afb297003fb39700cfb39700090007006e
:1018d0006fb09700ffb097000fb997009fb99700be
:1018e0004f06be004f05be004f04be000080fa0048
:1018f000000006000100070000000600a4b79f00da
:10190000b5b79f00c6b79f00d7b79f00000006007d
:101910004f09de0082817100b3b79f004f01de00e6
:101920008180400082807000a1b79f008fb0970037
:101930004f09de00000040000200700090b79f00d9
:101940007fa897004f01de008180400082807000f8
:1019500081b79f000d0007004f3ade0000004000f5
:1019600004007000f0af9f0008000700040242006e
:1019700085824a0006034b0087834b00dfff070088
:101980000802be000a03be00000006002fb2970046
:10199000bfb297004fb39700dfb397000000060077
:1019a000881f780018002000881f780089ff070032
:1019b0008f87e9004f04780000000600801feb00cd
:1019c00084ff07008f87e90000000600889fbe00a3
:1019d0008a9fbe00e00f5000e08f5800e00f5900d2
:1019e000e08f59000c003d006044b8006055b8001d
:1019f0000000540081805c0002015d0083815d0075
:101a0000180020001500070008003d00180007001e
:101a10000004eb00050037000004eb000f00070096
:101a200002003d001200070018002000dcff070044
:101a30000800e000060032006022b8006033b80001
:101a40000000520081805a0002015b0083815b002c
:101a50004f05be004f04be0000000600e00f52001c
:101a6000e08f5a00e00f5b00e08f5b000000060093
:101a70006044b8006055b8000402540085825c00e0
:101a800006035d0087835d0000000600889fbe009e
:101a90008a9fbe008c1f7800e00f5000e08f580036
:101aa000e00f5900e08f59000d003d006044b80080
:101ab0006055b8000000540081805c0002015d00a8
:101ac00083815d001c0020000820e10009a8e100de
:101ad0000ab0e1000bb8e1000d003d00080037003e
:101ae0000006eb00e00f5200e08f5a00e00f5b00b1
:101af000e08f5b0006003d006044b8006055b80010
:101b00000402540085825c0006035d0087835d004b
:101b1000aaff07000c00e000060032006022b800b7
:101b20006033b8000000520081805a0002015b005f
:101b300083815b004f0678004f05be004f04be0056
:041b4000000006009b
:020000040000fa
:101b44000d0a00000d0a00002a2000004e69000062
:101b54006e6f0000544e0000432000004d750000dd
:101b64006c740000696d00006f6400006520000063
:101b74004b49000053530000205400004e43000022
:101b840020620000792000004b4b00003448000024
:101b9400454a0000206100006e640000204b0000f4
:101ba4004132000044450000570000000d0a0000c7
:101bb4002a20000046690000726d00007761000071
:101bc4007265000020620000792000004e69000068
:101bd4006e6f000020310000302f00003133000010
:101be4002f32000030320000302c0000207600003c
:101bf40065720000736f00006e3a00002000000060
:101c04000d0a0000647300005049000043200000e6
:101c140033330000455000003235000036470000e1
:101c2400503500003032000020520000434f0000c5
:101c34004e3a0000200000000d0a00004e5600003d
:101c44004d200000636f00006e66000069670000ad
:101c54003a200000000d00000a4400006566000000
:101c6400617500006c740000206300006f6e00005a
:101c740066690000673a000020000000202d000083
:101c840020390000363000003020000047460000b4
:101c9400534b000020410000582e00003235000054
:101ca400002000002d2000003936000030300000f4
:101cb40020470000465300004b200000494c000020
:101cc40032500000002000002d20000031320000be
:101cd4003030000020410000465300004b2000003b
:101ce400415800002e32000035000000202d000075
:101cf4002031000032300000302000004146000056
:101d0400534b0000204900004c32000050000000fa
:101d1400202d00002032000034300000302000006c
:101d240044410000505300004b2000004158000083
:101d34002e32000035000000202d0000203200006b
:101d440034300000302000004441000050530000b3
:101d54004b200000494c00003250000000200000dd
:101d64002d200000343800003030000020470000ef
:101d7400465300004b200000415800002e32000062
:101d840035000000202d0000203400003830000011
:101d94003020000047460000534b0000204900005b
:101da4004c320000500000000d0a00005365000092
:101db40072690000616c0000204e0000756d000027
:101dc400626500007220000048650000783a000057
:101dd40020000000200000000d0a000053650000f0
:101de40072690000616c0000204e0000756d0000f7
:101df4006265000072200000415300004349000066
:101e0400493a0000200000000d0a0000444500008b
:101e140056490000443a0000200000000d0a00006a
:101e2400426f000061720000642000004944000019
:101e34003a200000000d00000a0000005570000068
:101e4400746900006d650000206f00007665000075
:101e54007220000032330000206400006179000029
:101e6400732c000020720000656200006f6f000098
:101e7400746900006e6700002e00000054520000d8
:101e8400414e0000534d000049540000204300001f
:101e9400594300004c45000020540000494d000007
:101ea40045520000204500004c4100005053000002
:101eb400454400002c20000052450000534500001a
:101ec40054540000494e0000472100002100000046
:101ed4000d0a000020540000582000005057000054
:101ee4004d2000005175000065750000653a000042
:101ef400200000000d0a00002054000058200000bb
:101f04005175000065750000653a0000200000006e
:101f14000d0a0000205400005820000053740000f3
:101f24006172000074200000546900006d650000b7
:101f34003a200000000d00000a2000005458000060
:101f4400204300006f6d0000706c00006574000099
:101f5400653a00002000000020590000657300006d
:101f64002e000000204e00006f2e0000000d000027
:101f74000a20000054580000204f00006e3a000070
:101f8400200000004e5600004d2000005772000053
:101f940069740000652000004f4b00002e00000013
:101fa4004e5600004d200000577200006974000076
:101fb4006520000046610000696c00002e000000ee
:101fc4004d6f000064650000207300007769000015
:101fd400746300006820000063680000616e000004
:101fe40067650000206400006574000065630000fc
:101ff40074650000643a000020000000307800009e
:1020040000540000726100006e7300006d690000ee
:10201400742000006f660000662e0000005300006c
:10202400616d00007020000054580000204400003e
:102034002e2000005072000065200000436e000056
:10204400743a0000200000002c2000006d530000b2
:102054003a20000000530000746100007274000014
:102064002052000065630000656900007665000089
:10207400722e0000005300006572000069610000c8
:102084006c2000006e7500006d6200006572000037
:1020940020730000656e000074200000746f00005f
:1020a400206800006f73000074200000706f00004f
:1020b4007274000020300000784500002e000000fb
:1020c40046690000726d00007761000072650000cf
:1020d4002076000065720000736900006f6e0000d6
:1020e40020730000656e000074200000746f00000f
:1020f400206800006f73000074200000706f0000ff
:102104007274000020300000784500002e000000aa
:102114003d460000697200006d77000061720000a6
:1021240065560000723a0000003d0000536500004f
:1021340072690000616c00004e6d00006272000064
:102144003a0000003d55000070740000696d000005
:10215400654d0000696c0000533a0000003d00002a
:10216400427200006453000077630000684d000071
:102174006f6400003a0000003d4100005832000046
:1021840035520000785000006b740000733a000070
:10219400003d0000494c000032500000527800001d
:1021a400506b0000747300003a0000003d490000c9
:1021b4004c32000050520000785500006e4300007d
:1021c400723a0000003d000054780000506b00009b
:1021d400744300006f7500006e7400003a00000044
:1021e4003d50000072650000616d0000626c0000eb
:1021f400436e0000743a00003030000030300000bc
:10220400003d00004c6f00006f7000004379000037
:10221400636c0000657300003a0000004461000034
:102224007461000020640000756d000070200000df
:1022340030780000452e0000003d000030300000e2
:102244003a0000003d300000313a0000003d00003b
:10225400303200003a0000003d300000333a000004
:10226400003d0000303400003a0000003d30000022
:10227400363a0000003d0000303700003a0000000c
:102284003d300000383a0000003d000030390000c5
:102294003a0000003d300000413a0000003d0000db
:1022a400304200003a3000003030000030000000be
:1022b4003d300000433a0000005400004152000049
:1022c400504e000020640000756d0000702e000068
:1022d4000052000078200000494c000032500000f9
:1022e40020000000205400006f740000616c0000a6
:1022f4003a200000003a000000520000782000005c
:10230400494c000032500000205500006e6300006c
:102314006f720000200000002e200000546f0000a7
:10232400746100006c3a0000200000005278000044
:102334002041000058320000352000000053000006
:10234400796e000063200000444300004420000034
:102354005472000069670000676500007265000040
:10236400642e000000530000796e0000632000001a
:102374004443000044200000436c000065610000f9
:1023840072650000642e000000530000656e0000ba
:1023940074200000414300004d4f000044450000fc
:1023a40020410000434b0000206600006f720000d3
:1023b40020500000616300006b6500007420000081
:1023c400494400003a200000004e00006f20000045
:1023d4006c65000061730000657300002054000008
:1023e400585f0000505700004d5f00004d6500002d
:1023f4006d2e0000004c000061730000742000008a
:102404005458000020730000616d0000702e00001d
:10241400204500006e640000204e00004c54000073
:102424003a200000004e00006f2000006c650000a0
:102434006173000065730000206100007661000094
:10244400696c0000616200006c6500002069000096
:102454006e200000545800005f500000574d0000eb
:102464005f4d0000656d00002e0000005458000010
:1024740020430000534d000041200000476f00003e
:102484002e0000002055000031540000584d00007b
:1024940061780000513a000020000000205500003f
:1024a40031520000584d000061780000513a00009c
:1024b400200000002055000032540000584d000058
:1024c40061780000513a00002000000052650000cd
:1024d4006365000069760000652000005374000005
:1024e4006f700000204900006e68000069620000ff
:1024f40069740000656400002e000000537400003d
:102504006f700000205200006563000065690000e0
:1025140076650000722e0000005400007261000015
:102524006e7300006d690000742000004f6e00009f
:102534002e200000545800005f5100007565000013
:10254400756500003a200000002000005458000087
:102554005f500000574d00005f510000756500009a
:10256400756500003a200000002000005258000069
:102574005f51000075650000756500003a20000099
:102584000020000041440000435f0000517500003a
:1025940065750000653a00002000000054580000f2
:1025a40020430000534d000041200000576100000b
:1025b400697400002c200000505200004e3a0000c4
:1025c40020000000205300006c6f0000743a0000eb
:1025d40020000000476500006e6500007261000085
:1025e400746900006e6700002074000065730000c9
:1025f40074200000746f00006e6500002e0000005f
:10260400536100006d7000006c65000064200000e0
:102614005458000020440000656c000061790000fb
:10262400205000006f7400002e2000005072000043
:10263400656100006d6200006c65000020570000b9
:102644006f72000064200000436f0000756e00008c
:10265400743a0000200000002c2000006d69000086
:102664006c6c000069730000656300006f6e00000d
:10267400647300003a200000004300006f6d000006
:10268400706f0000736900006e6700002054000042
:10269400657300007420000050610000636b00004b
:1026a400657400002e000000456e00007175000086
:1026b4006575000065640000205400006573000027
:1026c4007420000050610000636b0000657400001a
:1026d4002050000072650000616d0000626c000013
:1026e400652e0000004500006e7100007565000055
:1026f40075650000642000005465000073740000d8
:1027040020500000616300006b650000742e00001f
:1027140000470000656e00006572000061740000ef
:10272400696e000067200000415800002e3200004e
:10273400352000004944000020700000616300005f
:102744006b650000742e0000004500006e710000ef
:1027540075650000756500006420000041580000a4
:102764002e320000352000004944000020500000b3
:1027740072650000616d0000626c0000652e00004f
:10278400004500006e71000075650000756500006d
:1027940064200000415800002e3200003520000063
:1027a4004944000020500000616300006b65000094
:1027b400742e0000004b0000495300005320000019
:1027c40045520000524f0000522000002d2000000e
:1027d400524500005345000054540000494e000087
:1027e4004721000021000000425000005120000059
:1027f40043680000656300006b730000756d0000a2
:1028040020420000616400002e20000044690000a2
:102814007363000061720000646900006e67000069
:10282400204b000049530000532000006672000052
:10283400616d0000652e0000005000006172000010
:1028440073650000642000004b49000053530000ee
:10285400206600006f72000020740000783a0000c7
:10286400004500006e7100002070000072650000d9
:102874003a2000000020000041640000647200005f
:102884003a20000000410000434b00004d4f00007f
:102894004445000020500000616300006b650000a7
:1028a40074200000494400003a2000000045000064
:1028b4006e710000206600006f720000207400003a
:1028c400783a00002000000054720000616e00009d
:1028d400736d0000697400002051000075650000ec
:1028e40075650000204300006f7500006e740000e1
:1028f4003a2000000054000041520000504e0000f5
:102904007374000061740000004800006f730000dd
:1029140074200000447500006d7000002045000024
:102924006e2e0000004b00004953000053200000ad
:10293400436d000064200000503a000020000000b5
:10294400204300003a200000004e00006f200000e9
:1029540041440000432000004c6500006173000006
:10296400657300002061000076610000696c00005e
:10297400616200006c6500002e00000055410000fb
:102984005254000020460000494600004f20000039
:102994004f56000045520000525500004e200000e2
:1029a4002d200000524500005345000054540000ff
:1029b400494e00004721000021000000554100005d
:1029c400525400003120000045720000726f000074
:1029d400722e0000200000005541000052540000f7
:1029e4003220000045720000726f0000722e000059
:1029f400004100006464000072650000737300000d
:102a040020450000727200006f7200002e2000004a
:102a14002a2a00002a2a00002a2a00002a2a000062
:102a24002a2a00002a2a00002a2a00002a0000007c
:102a3400486100007264000054720000617000007c
:102a440020450000727200006f7200002e2000000a
:102a54002a2a00002a2a00002a2a00002a2a000022
:102a64002a2a00002a2a00002a2a00002a0000003c
:102a740053740000616300006b2000004572000085
:102a8400726f0000722e0000202a00002a2a000023
:102a94002a2a00002a2a00002a2a00002a2a0000e2
:102aa4002a2a00002a2a00002a00000020490000e7
:102ab4004e540000434f00004e3100003a20000005
:102ac400004d000041540000482000004572000001
:102ad400726f0000722e00002a2a00002a2a0000c9
:102ae4002a2a00002a2a00002a2a00002a2a000092
:102af4002a2a0000004400004d4100004320000049
:102b040045720000726f0000722e00002a2a000035
:102b14002a2a00002a2a00002a2a00002a2a000061
:102b24002a2a00002a2a0000204400004d41000007
:102b340050570000433a000020000000202000000d
:102b4400000d00000a0000003a20000000200000f0
:102b5400000d00000a2a0000204300006f750000e9
:102b64006e7400003a200000002c00002044000095
:102b740065730000743a0000200000002d0000007e
:102b84002c200000536f0000757200006365000084
:102b94003a200000000d00000a2a00002041000035
:102ba400583200003520000046720000616d0000bc
:102bb4006520000054790000706500003a20000090
:102bc400002000002d2000005375000070650000f7
:102bd40072760000697300006f720000790d0000c6
:102be4000a2a0000204300006f6e00007472000087
:102bf4006f6c0000204f0000706300006f640000e1
:102c0400653a00002000000052520000202d000010
:102c140020520000656300006569000076650000cd
:102c24002052000065610000647900000052000039
:102c34004e520000202d0000205200006563000069
:102c44006569000076650000204e00006f74000086
:102c54002052000065610000647900000052000009
:102c6400454a0000202d000020520000656a000043
:102c7400656300007400000053520000454a0000e0
:102c8400202d000020530000656c000065630000e7
:102c9400746900007665000020520000656a000037
:102ca40065630000740000002c2000004e28000022
:102cb400522900003a200000002000002d200000ce
:102cc400556e00006e7500006d62000065720000b4
:102cd400656400000d0a00002a200000436f000014
:102ce4006e740000726f00006c2000004f700000d2
:102cf400636f0000646500003a0000002053000088
:102d0400414200004d450000202d000020530000ea
:102d14006574000020410000737900006e630000b8
:102d240020420000616c0000616e000063650000d9
:102d3400642000004d6f0000646500002045000021
:102d440078740000656e0000646500006400000093
:102d540020530000414200004d2000002d200000bf
:102d6400536500007420000041730000796e000078
:102d740063200000426100006c6100006e6300008b
:102d840065640000204d00006f64000065000000d1
:102d94002044000049530000432000002d2000007f
:102da40044690000736300006f6e00006e650000ec
:102db4006374000000200000444d0000202d00003a
:102dc4002044000069730000636f00006e6e000011
:102dd40065630000742000004d6f0000646500000e
:102de4000020000055410000202d00002055000067
:102df4006e6e0000756d0000626500007265000073
:102e040064200000416300006b6e00006f770000d7
:102e14006c65000064670000650000002046000047
:102e2400524d0000522000002d2000004672000088
:102e3400616d000065200000526500006a650000b5
:102e4400637400000020000055490000202d00009c
:102e5400205500006e6e0000756d00006265000074
:102e64007265000064200000496e0000666f000077
:102e7400726d000061740000696f00006e2c000028
:102e840020500000494400003a20000000200000c7
:102e94002d00000020490000534f0000203800009e
:102ea4003230000038000000204300006f6d000045
:102eb40070720000657300007365000064200000f8
:102ec40054430000502f000049500000002000002f
:102ed400556e0000636f00006d70000072650000a5
:102ee4007373000065640000205400004350000028
:102ef4002f490000500000002053000065670000c7
:102f04006d6500006e74000061740000696f00005c
:102f14006e20000046720000616700006d650000cd
:102f24006e7400000020000054450000584e00005c
:102f340045540000002000004c6900006e6b000046
:102f440020510000756100006c6900007479000074
:102f540020500000726f0000746f0000636f000067
:102f64006c00000020410000707000006c650000df
:102f7400746100006c6b00000020000041700000d0
:102f8400706c000065740000616c00006b20000030
:102f94004152000050000000204100005250000047
:102fa4004120000049500000002000004152000070
:102fb4005041000020410000525000000020000059
:102fc400464c0000455800004e45000054000000e7
:102fd40020540000686500004e45000054000000c5
:102fe400204e00006f2000004c3300000020000041
:102ff40058490000442000002d20000045780000be
:1030040063680000616e00006765000020490000ed
:10301400646500006e740000696600006963000066
:1030240061740000696f00006e000000205400000d
:103034004553000054000000202d000020490000ea
:103044006e6600006f7200006d610000746900001c
:103054006f6e00000d0a00002a2000005049000095
:10306400443a0000200000002c2000004e280000fc
:10307400532900003a20000000000000070000006f
:103084000700000007000000070000000700000020
:103094000700000007000000070000000700000010
:1030a40008000000080000000800000008000000fc
:1030b40008000000080000000800000008000000ec
:1030c40008000000080000000900000009000000da
:1030d40009000000090000000900000009000000c8
:1030e400090000000a0000000a0000000a000000b5
:1030f4000a0000000a0000000b0000000b000000a2
:103104000b0000000b0000000c0000000c0000008d
:103114000c0000000d0000000d0000000d00000078
:103124000e0000000e0000000e0000000f00000062
:103134000f0000001000000010000000110000004b
:103144001100000012000000120000001300000033
:103154001400000014000000150000001600000018
:1031640017000000180000001900000019000000fa
:103174001a0000001b0000001d0000001e000000db
:103184001f000000200000002200000023000000b7
:103194002400000026000000280000002900000090
:1031a4002b0000002d0000002f0000003100000063
:1031b4003300000035000000380000003a00000031
:1031c4003d000000400000004300000046000000f5
:1031d400490000004c0000005000000054000000b2
:1031e400580000005c000000600000006500000062
:1031f4006a0000006f000000740000007900000005
:103204007f000000850000008c0000009300000097
:103214009a000000a1000000a9000000b100000015
:10322400ba000000c3000000cd000000d700000079
:10323400e2000000ed000000f800000005010000bd
:10324400120100001f0100002d0100003c010000dc
:103254004c0100005d0100006e01000080010000cf
:1032640094010000a8010000bd010000d30100008a
:10327400eb010000030200001d0200000200000038
:103284000200000002000000020000000200000032
:103294000200000002000000020000000200000022
:1032a4000200000002000000020000000300000011
:1032b40003000000030000000300000003000000fe
:1032c40003000000030000000300000003000000ee
:1032d40003000000030000000300000003000000de
:1032e40003000000030000000300000004000000cd
:1032f40004000000040000000400000004000000ba
:1033040004000000040000000400000004000000a9
:103314000500000005000000050000000500000095
:103324000500000005000000050000000500000085
:103334000600000006000000060000000600000071
:10334400060000000600000007000000070000005f
:10335400070000000700000007000000080000004c
:103364000800000008000000080000000900000038
:103374000900000009000000090000000a00000024
:103384000a0000000a0000000b0000000b0000000f
:103394000b0000000c0000000c0000000c000000fa
:1033a4000d0000000d0000000e0000000e000000e3
:1033b4000f0000000f0000001000000010000000cb
:1033c40011000000110000001200000012000000b3
:1033d400130000001300000014000000150000009a
:1033e400150000001600000017000000180000007f
:1033f40018000000190000001a0000001b00000063
:103404001c0000001d0000001e0000001f00000042
:103414002000000021000000220000002300000022
:103424002400000025000000270000002800000000
:10343400290000002b0000002c0000002e000000da
:103444002f000000310000003200000034000000b2
:103454003600000038000000390000003b00000086
:103464003d0000003f000000420000004400000056
:1034740046000000490000004b000000ff7f0000f0
:103484000040000001c000000180000000c00000f6
:1034940000400000ff7f0000ff7f000039d40000df
:1034a400f39d0000d96e00003a160000f38100007d
:1034b400ff3f0000f9ff0000cfff000080ff000085
:1034c40012ff0000bdfe0000cffe000080ff0000e0
:1034d400be00000005020000850200008c0100000f
:1034e40012ff00000bfc000042fa000098fb0000f1
:1034f4000e010000f909000001140000e81b00009f
:10350400e81e0000e81b000001140000f909000097
:103514000e01000098fb000042fa00000bfc0000c2
:1035240012ff00008c01000085020000050200006b
:10353400be00000080ff0000cffe0000bdfe0000c2
:1035440012ff000080ff0000cfff0000f9ff000021
:1035540008000000090000000e0000001400000034
:103564001a0000001f0000002400000025000000d5
:10357400240000001e0000001200000001000000f2
:10358400e9ff0000ccff0000aaff000086ff000056
:1035940061ff00003eff000021ff00000cff00005f
:1035a40003ff000008ff00001dff000042ff0000b1
:1035b40076ff0000b8ff0000020000005000000089
:1035c4009c000000df000000110100002e0100003b
:1035d4002f01000012010000d50000007b00000054
:1035e4000900000085ff0000fbfe000076fe0000dd
:1035f40003fe0000b1fd00008bfd00009efd0000f5
:10360400f0fd000087fe000063ff00007f00000063
:10361400d301000050030000e6040000820600000d
:103624000e08000075090000a30a0000890b0000c1
:10363400180c0000480c0000180c0000890b000056
:10364400a30a0000750900000e08000082060000ad
:10365400e604000050030000d30100007f000000d6
:1036640063ff000087fe0000f0fd00009efd0000e7
:103674008bfd0000b1fd000003fe000076fe00009b
:10368400fbfe000085ff0000090000007b00000035
:10369400d5000000120100002f0100002e010000df
:1036a40011010000df0000009c0000005000000039
:1036b40002000000b8ff000076ff000042ff000097
:1036c4001dff000008ff000003ff00000cff0000c6
:1036d40021ff00003eff000061ff000086ff0000a4
:1036e400aaff0000ccff0000e9ff00000100000079
:1036f400120000001e00000024000000250000004d
:10370400240000001f0000001a0000001400000044
:103714000e0000000900000008000000fafe00008e
:1037240015000000210200005f000000800000007e
:1037340099fe000001fe0000a8fd000044ff000007
:10374400b9010000740400006b050000630300006d
:10375400a6fd000034f500001eec00002ce500007e
:103764008e6200002ce500001eec000034f5000021
:10377400a6fd0000630300006b0500007404000054
:10378400b901000044ff0000a8fd000001fe000094
:1037940099fe0000800000005f000000210200008c
:1037a40015000000fafe0000000000000000000008
:1037b40010000000010000000600000007000000e7
:1037c40008000000c3000000c4000000ca0000009c
:1037d400cb000000cc000000cd000000ce000000b3
:1037e400cf000000f00000002f00000043000000a4
:1037f4000f000000630000008700000003000000c9
:10380400af000000e30000002068000074740000b2
:10381400703a00002f2f00007461000072700000e5
:103824006e2e00006e650000742f0000494c0000ed
:10383400325000003a540000657300007420000008
:1038440050610000636b0000657400005441000087
:10385400525000004e7300007461000074000000b8
:020000040000fa
:103864003800fa00889fbe008a1f7800a07b2700da
:10387400140c0200010000004af5020000000000e0
:10388400f0c08b00f0c08300920e02000100000023
:10389400140ea90015cea800400620000100200047
:1038a400f40602000100000015cea900158ea80040
:1038b4004006200001002000f40602000100000080
:1038c400158ea900f0c083000000e00006003c0053
:1038d400142ea8004006200001002000f406020077
:1038e40001000000142ea90014eea80040062000d8
:1038f40001002000f40602000100000014eea900fb
:1039040015aea8004006200001002000f4060200c5
:103914000100000015aea90014eea8004006200026
:1039240001002000f40602000100000014eea900ca
:10393400f0c083000000e00006003c00142ea80044
:103944004006200001002000f406020001000000ef
:10395400142ea900158ea8004006200001002000a6
:10396400f406020001000000158ea90015cea8007f
:103974004006200001002000f406020001000000bf
:1039840015cea900820320008000eb0020682700e8
:103994003eed0200000000004103200060682700a3
:1039a4007cfe0200000000000001be0010b4830091
:1039b40021b48300800f5100818f590004003a0024
:1039c40060c1830000a0a00060c18b000800370024
:1039d40020682700a8000200010000000000eb009e
:1039e40060b58b0060c1830000a0a10060c18b00a2
:1039f4001000200070908b0000102e0001002000a9
:103a040040918b0051918b004083200020918b00ca
:103a1400c04e260080908b000000eb00c0908b000d
:103a2400c044200030918b0000d2260090908b007f
:103a34000000eb0000918b0002002800433f2000af
:103a4400e02027007cad020000000000c1b5830027
:103a540000082000008060000000e0001200320036
:103a6400c0b583000070a100c0b58b0041032000e5
:103a7400606827007cfe02000000000010b48b0088
:103a840021b48b0023162200820320008000eb0067
:103a94002068270048ef02000000000020162200e2
:103aa4003ea10200020000007090830018af0200e3
:103ab40000000000709183000000a00070918b0052
:103ac4006006220080c18b00a0002000a0c18b00f2
:103ad40040002000b0c18b000000eb0090c18b00bf
:103ae4000000eb00c0c38b000000eb00d0c38b00d0
:103af40080c18300700888000108a9002108a8007b
:103b04000a21ef000001280090088800d0c3830038
:103b14000000a100d0c38b0010002000c0c28b00a5
:103b24000000eb00c0c18b00c0c383000000a000f4
:103b3400c0c38b00f0c08300e10f50000a003a00bc
:103b440060b583006c00600060b58b0068b58300cd
:103b540054f60200000000000800700060b58b00fd
:103b64000000eb0080b58b00f0c08300e20f500032
:103b74000a003a0060b583006c00600060b58b00f9
:103b840068b58300e0f60200000000000800700041
:103b940060b58b000000eb0080b58b00f0c08300a3
:103ba400e20f50000a00340060b583006c0060002e
:103bb40060b58b0068b58300e0f6020000000000e9
:103bc4000800700060b58b001000200080b58b00e9
:103bd400206827000e0102000100000000302000d0
:103be40020c68b0000062000b0c78b0040b58300c0
:103bf400e10f500070003200e10f500003003c0060
:103c04000000e00006003200e5003700e20f50003b
:103c1400ad003200e30f500034003200e000370002
:103c2400a26b270030002300610020009eea0200fe
:103c340000000000c0b783000010a000c0b78b00d4
:103c4400a26f270030002300610020009eea0200da
:103c540000000000c0b983000010a000c0b98b00b0
:103c64003000200070c78b009000200080c78b00bc
:103c740000012000a0c78b0000482000f0c68b0084
:103c84000000eb00000f7800120037001e007800df
:103c9400cf80de00020b20008289b900e002b90067
:103ca4008401780003014100030b20000300b800e5
:103cb4000101410082007800000ab0000180b000d8
:103cc40062292400020040006100200001087800fd
:103cd4001e0fe8001e007800e10f5000ebff3400d7
:103ce40060902000e0c08b00ad003700a26b27007d
:103cf40030002300610020009eea02000000000062
:103d0400c0b783000010a000c0b78b00a26f2700cb
:103d140030002300610020009eea02000000000041
:103d2400c0b983000010a000c0b98b00300020008f
:103d340070c78b002001200080c78b00800020000a
:103d4400a0c78b0000902000f0c68b000000eb00a1
:103d5400000f7800120037001e007800cf80de00cc
:103d6400020b20008289b900e003b90086017800c3
:103d740003014100030b20000300b80001014100ce
:103d840082007800000ab0000180b000622924009b
:103d94000200400061002000010878001e0fe800c6
:103da4001e007800e10f5000ebff340000a5200056
:103db400e0c08b007a003700a26f2700300020009b
:103dc400010020009eea020000000000c0b9830048
:103dd4000010a000c0b98b000000eb00000f7800b9
:103de4002c0037001e0078006101b9004618dd0080
:103df400ca10de00810070004610dd00a2732700a7
:103e04000200400000017800300020000100200082
:103e14009eea0200000000001e0078006101b90063
:103e24004618dd00ca10de00810070004610dd0077
:103e3400e003b0000180b000a2732700020040003c
:103e4400900078000110a000010878001e0078009e
:103e5400cf80de00020b20008289b900e002b900a5
:103e64008401780003014100030b20000300b80023
:103e74000101410082007800000ab0000180b00016
:103e8400622924000200400061002000010878003b
:103e94001e0fe8001e007800e10f5000d1ff34002f
:103ea40000482000f0c68b008004200080c78b00ef
:103eb40050ca83000020a10050ca8b00e04c2000af
:103ec400e0c08b0036003700a26b270010002100f1
:103ed400210020009eea020000000000c0b7830019
:103ee4000010a000c0b78b00a26f270010002100b3
:103ef400210020009eea020000000000c0b98300f7
:103f04000010a000c0b98b0000902000f0c68b0008
:103f14004002200080c78b0040002000a0c78b0017
:103f24002000200070c78b000000eb00000f780019
:103f3400120037001e007800cf80de00020b200044
:103f44008289b900e003b9008601780003014100c9
:103f5400030b20000300b800010141008200780037
:103f6400000ab0000180b000622924000200400071
:103f7400c1002000010878001e0fe8001e00780030
:103f8400e10f5000ebff340050ca83000020a00072
:103f940050ca8b00a0502000e0c08b00000000003d
:103fa40000002100d0c78b00600e2100e0c78b0009
:103fb40040132100f0c78b002018210000c88b009b
:103fc400001d210010c88b00e021210020c88b00b7
:103fd400c026210030c88b00a02b210040c88b00d4
:103fe40040e6270060c88b0020e7270080c88b00cc
:103ff40000e8270090c88b00c0f62700e0c88b00bb
:1040040060e82700f0c88b0020fb2700c0c88b00a5
:10401400a08f2700508e020000000000008e2700b1
:10402400308e0200000000000000eb00000f78005a
:10403400100037001e007800cf80de00020b200045
:104044008289b900e002b9008401780003014100cb
:10405400030b20000300b800010141008200780036
:104064006229240002004000acf0020000000000bd
:104074001e0fe8001e007800e10f5000edff340031
:104084002000200080918b0000202c0011002000d3
:1040940050928b0061928b001000200030928b00b4
:1040a400c016270090918b00000a200040928b00dc
:1040b400d0162700a0918b0002002800433f200067
:1040c400002327007cad02000000000080918300e3
:1040d40018af020000000000d32120007265200008
:1040e4008130210060fb21003edf0200000000005f
:1040f40020fe21009ae0020000000000830020005e
:1041040082042000613f2400604824003edf020056
:10411400000000000000eb00000f78001f003700d3
:104124001e007800cf80de00a21620008289b9002c
:10413400e003b9008601780003014100a3162000c2
:104144000300b8000101410082007800224b2400e2
:10415400020040009ae00200000000001e00780007
:10416400cf80de00c21420008289b900e002b900c9
:104174008401780003014100c31420000300b80047
:104184000101410082007800827c2400020040008a
:10419400889e0200000000001e0fe8001e00780048
:1041a400e10f5000deff34000000eb00000f780048
:1041b400250037001e007800cf80de0002a4200016
:1041c4008289b900e003b900860178000301410047
:1041d40003a420000300b80001014100820078001c
:1041e40002a624000200400001ee2500b65402009d
:1041f400000000001e007800cf80de0002a4200032
:104204008289b900e002b900840178000301410009
:1042140003a420000300b8000101410082007800db
:10422400c2a3200003002000000041008180490057
:1042340002a6240002004000900078000130a00093
:10424400010878001e0fe8001e007800e10f5000fe
:10425400d8ff340020252700f2b902000000000036
:1042640021da280000232700a8b102000000000082
:1042740081dd280000232700a8b10200000000000f
:1042840021c3b3000023270060b302000000000034
:10429400e1c2b3000023270060b302000000000065
:1042a40071c3b3000023270060b3020000000000c4
:1042b40071c3b3000023270060b3020000000000b4
:1042c40021e0280000232700a8b10200000000001c
:1042d40000c183008000780000232700f8af0200ab
:1042e4000000000061c183000040200000806000e5
:1042f4000000e0000a003200e1e12800002327006a
:10430400a8b102000000000060b5830080007800be
:1043140000232700f8af0200000000000900370066
:10432400d1e2280000232700a8b102000000000009
:1043340060b583008000780000232700f8af0200f6
:104344000000000061b58300300f20000080600091
:10435400e30f500024003200e30f500007003c003c
:10436400e10f500016003200e10f500019003c002c
:104374000000e0000d00320034003700f10f50005f
:104384002d003200f10f500003003c00f00f5000ec
:10439400240032002d003700f20f500017003200c5
:1043a400f30f50001a0032002800370001e42800ff
:1043b40000232700a8b102000000000023003700fa
:1043c40031e5280000232700a8b102000000000006
:1043d4001e00370051e6280000232700a8b1020080
:1043e400000000001900370081e72800002327009f
:1043f400a8b102000000000014003700a1e8280062
:1044040000232700a8b10200000000000f003700bd
:10441400e1e9280000232700a8b102000000000001
:104424000a00370011eb280000232700a8b102007e
:10443400000000000500370041ec2800002327009d
:10444400a8b10200000000000000000061ed280097
:1044540000232700a8b10200000000000000eb00c8
:10446400000f7800100037001e007800cf80de00b7
:1044740068004000e08048002268270002004000f5
:104484001040780080407800002327001ab1020011
:1044940000000000c1ee280000232700a8b102009c
:1044a400000000001e0fe8001e007800e70f500017
:1044b400edff3400e1ee280000232700a8b102003c
:1044c400000000000000eb00000f78000c00370033
:1044d4001e007800cf80de0068004000e0804800c5
:1044e40022682700020040001040780080407800d5
:1044f4000023270060b30200000000001e0fe80044
:104504001e007800e70f5000f1ff3400a07b270065
:1045140024ec02000000000061f0280000232700c2
:10452400a8b1020000000000d0bd83008000780024
:1045340000232700f8af020000000000c1ee2800ad
:1045440000232700a8b1020000000000e0bd8300a2
:104554008000780000232700f8af0200000000006c
:1045640001f1280000232700a8b102000000000088
:10457400f0c083008000780000232700f8af020019
:1045840000000000c2872700100020002101200045
:104594009eea0200000000000309200002902000af
:1045a40021162200203623003edf02000000000016
:1045b400e03823009ae00200000000000306200017
:1045c40002602000a1532300a0132400b2df0200e4
:1045d4000000000060162400bae0020000000000a1
:1045e40074004700a1132400a8e1020000000000a9
:1045f40006252400f400470006000900311b78005a
:1046040074004700a1132400a8e102000000000088
:10461400e2252400740247000600090034197800da
:104624000000eb00000f78002b0037001e0078001c
:10463400cf80de00ee09b900e003b90086017800fe
:1046440003014100e30020000300b8000101410020
:1046540082007800a227240002044000740047006e
:10466400a1132400a8e1020000000000f4004700a8
:1046740006000900311c7800e800b1001e00780033
:10468400cf80de00f609b900e002b90084017800a9
:1046940003014100630120000300b800010141004f
:1046a4008200780062782400020440002002200086
:1046b4000e00400061482400fae0020000000000ff
:1046c40026022000060347000a000900361c780071
:1046d4006801b1001e0fe8001e007800e10f5000d1
:1046e400d2ff34000000eb00e0c58b00e0c683007d
:1046f4000000a000e0c68b00f0c683004610020054
:104704000100000081b5830020c68300740d0200ff
:104714000100000060c1830000f0a00060c18b00b4
:1047240060c183000040a00060c18b0070052000c0
:10473400bccf02000000000070c183000000a10093
:1047440070c18b000700370000000000050037002f
:1047540000000000030037000000000001003700e3
:1047640000000000d0be8300e1be83006100400071
:10477400e0804800d0be8b00e1be8b0070c1830096
:1047840000b0a00070c18b00b2be8300c3be830022
:1047940050bf830061bf8300000151008181590033
:1047a40000e82e0061032000800f5100818f590022
:1047b4000300360070c1830000b0a10070c18b00fb
:1047c400b2be8300c3be830070bf830081bf830079
:1047d400000151008181590000f8240021012000ca
:1047e400800f5100818f59000300360070c183008f
:1047f40000b0a10070c18b00b2be8300c3be8300b1
:1048040090bf8300a1bf8300000151008181590042
:1048140000e82e0061032000800f5100818f5900b1
:104824000300360070c1830000b0a10070c18b008a
:1048340071c1830000802000008060000000e0005f
:10484400010032000060fe000000eb0070079800d9
:104854006e0047008002eb000002eb00c3872700d4
:1048640002012000110020000ae8020000000000fc
:1048740070c18300610060000000e0001d003a0088
:1048840009003700e0202700a6b90200000000005c
:10489400300798003e0090000000e0000200350060
:1048a4003e0090002011880011118000002020009b
:1048b400008060000000e00010003a0000918300d6
:1048c4000000e000efff3c000d003700002327004c
:1048d400a6b9020000000000400798004e009000b6
:1048e4000000e000060035004e009000a011880092
:1048f4000300370000000000010037000000000042
:104904009111800000202000008060000000e00081
:1049140003003a00109283000000e000ebff3c002b
:10492400c19083002091830070005000808f50005c
:1049340001003d0015eea900b2be8300c3be830092
:1049440000402a0091ad2700800f5100818f59004b
:104954002b00360061c1830000102000008060003d
:104964000000e00026003a00300a81000000e00068
:1049740023003a0060c18300610060000000e00091
:104984001f003a0061c1830000002800008060001d
:104994000000e0000e003200d1f1280000232700bf
:1049a400a8b1020000000000b0be8300c1be8300b5
:1049b4000001be0000232700d2b70200000000005f
:1049c400c1ee280000232700a8b102000000000067
:1049d40061c1830000002800008060000000e00046
:1049e4000400320001f2280000232700a8b10200cd
:1049f4000000000070c183000010a00070c18b0093
:104a040071c1830000002200008060000000e0000b
:104a1400a5003200b2be8300c3be8300d0bf8300b2
:104a2400e1bf8300800f5100818f59009e0039003f
:104a340070c1830000d0a10070c18b0061c18300ec
:104a440000002800008060000000e0000e0032003a
:104a5400d1f1280000232700a8b1020000000000c3
:104a6400b0be8300c1be83000001be000023270046
:104a7400d2b7020000000000c1ee28000023270086
:104a8400a8b102000000000061c1830000002800fa
:104a9400008060000000e0000400320001f42800ff
:104aa40000232700a8b102000000000061c18300b8
:104ab40000002800008060000000e00004003200d4
:104ac400a1f6280000232700a8b10200000000007e
:104ad40061c1830000002800008060000000e00045
:104ae4000500320090a78100800078000023270091
:104af40076b602000000000061c1830000002800b7
:104b0400008060000000e00004003200c1f72800cb
:104b140000232700a8b102000000000061c1830047
:104b240000002800008060000000e0000500320062
:104b3400300a8100800078000023270076b6020046
:104b44000000000061c183000000280000806000b4
:104b54000000e00004003200a1f828000023270030
:104b6400a8b102000000000061c183000000280019
:104b7400008060000000e00006003200f0be830008
:104b840001bf83000001be0000232700d2b702004a
:104b94000000000061c18300000028000080600064
:104ba4000000e00004003200d1f9280000232700af
:104bb400a8b102000000000061c1830000202000b1
:104bc400008060000000e0000a00320061c1830040
:104bd40000002800008060000000e0000e003200a9
:104be400e1fa280000232700a8b102000000000019
:104bf4000900370061c183000000280000806000c4
:104c04000000e0000400320041fb280000232700dc
:104c1400a8b102000000000061c183000000280068
:104c2400008060000000e0000400320091fb2800d6
:104c340000232700a8b102000000000061c1830026
:104c440000102000008060000000e0000a00320034
:104c540061c1830000002800008060000000e000c3
:104c64000e003200e1fa280000232700a8b1020058
:104c7400000000000900370061c183000000280023
:104c8400008060000000e0000400320041fb2800c6
:104c940000232700a8b102000000000070c18300b7
:104ca4000010a00070c18b00a170800000002400df
:104cb400008060000000e00008003200b2be830003
:104cc400c3be830010c0830021c08300800f510045
:104cd400818f59000100390015cea900a170800010
:104ce40000002100008060000000e00008003200a5
:104cf400b2be8300c3be830030c0830041c08300c2
:104d0400800f5100818f590001003900158ea900d0
:104d140071c1830000002400008060000000e000f6
:104d24000200320015aea80012003700a170800006
:104d340000002200008060000000e0000d0032004e
:104d4400b2be8300c3be830070c0830081c08300f1
:104d5400800f5100818f59000600390071c1830012
:104d640000002400008060000000e00001003a0020
:104d740015aea900300a81000000e00002003400f2
:104d840014eea8000100370014eea900c0b583009a
:104d9400700060000000e0005800320090a781001d
:104da4000000e00055003a00b2be8300c3be830099
:104db40034b4830045b48300007122000100200054
:104dc4000400400085804800800f5100818f590005
:104dd4004a003600c0b583000040a100c0b58b0076
:104de40041032000606827007cfe020000000000f0
:104df40010b48b0021b48b00231622008203200000
:104e04008000eb002068270048ef0200000000004b
:104e14000000e0001d003a0061c18300000028008a
:104e2400008060000000e0000e003200d1f1280094
:104e340000232700a8b1020000000000b0be8300d8
:104e4400c1be83000001be0000232700d2b70200c8
:104e540000000000c1ee280000232700a8b10200d2
:104e64000000000061c18300000028000080600091
:104e74000000e0002100320041fc2800002327004c
:104e8400a8b10200000000001c00370061c18300cb
:104e940000002800008060000000e0000e003200e6
:104ea400d1f1280000232700a8b10200000000006f
:104eb400b0be8300c1be83000001be0000232700f2
:104ec400d2b7020000000000c1ee28000023270032
:104ed400a8b102000000000061c1830000002800a6
:104ee400008060000000e0000400320021fd280082
:104ef40000232700a8b1020000000000f0c08300d6
:104f0400e10f500038003a0061b58300300f2000f3
:104f14000084600054f6020000000000800f54007a
:104f24003100320070c183000010a00070c18b00fa
:104f3400c0b583000050a000c0b58b0061c18300e0
:104f440000002800008060000000e0000e00320035
:104f5400d1f1280000232700a8b1020000000000be
:104f6400b0be8300c1be83000001be000023270041
:104f7400d2b7020000000000c1ee28000023270081
:104f8400a8b102000000000061c1830000002800f5
:104f9400008060000000e0000400320021fe2800d0
:104fa40000232700a8b102000000000061c18300b3
:104fb40000002800008060000000e0000a003200c9
:104fc4000100290000232700a8b10200000000000e
:104fd40054f602000000000080007800002327003f
:104fe400f8af020000000000f0c08300e10f5000a1
:104ff4003800340061b58300300f20000084600065
:10500400e0f6020000000000800f5400310032007e
:1050140070c183000010a00070c18b00c0b5830074
:105024000050a000c0b58b0061c1830000002800bf
:10503400008060000000e0000e003200d1f1280082
:1050440000232700a8b1020000000000b0be8300c6
:10505400c1be83000001be0000232700d2b70200b6
:1050640000000000c1ee280000232700a8b10200c0
:105074000000000061c1830000002800008060007f
:105084000000e0000400320021fe28000023270075
:10509400a8b102000000000061c1830000002800e4
:1050a400008060000000e0000a00320001002900d6
:1050b40000232700a8b1020000000000e0f602006f
:1050c400000000008000780000232700f8af0200f1
:1050d40000000000c1b583000002200000806000d1
:1050e4000000e0004a003200c0b583000050a10077
:1050f400c0b58b0041032000606827007cfe0200dd
:105104000000000010b48b0021b48b002316220091
:10511400820320008000eb002068270048ef020093
:10512400000000000000e0001d003a0061c183009f
:1051340000002800008060000000e0000e00320043
:10514400d1f1280000232700a8b1020000000000cc
:10515400b0be8300c1be83000001be00002327004f
:10516400d2b7020000000000c1ee2800002327008f
:10517400a8b102000000000061c183000000280003
:10518400008060000000e0002100320041fc2800a3
:1051940000232700a8b10200000000001c00370013
:1051a40061c1830000002800008060000000e0006e
:1051b4000e003200d1f1280000232700a8b102001c
:1051c40000000000b0be8300c1be83000001be0029
:1051d40000232700d2b7020000000000c1ee28001f
:1051e40000232700a8b102000000000061c1830071
:1051f40000002800008060000000e000040032008d
:1052040021fd280000232700a8b1020000000000af
:1052140070c18300620060000000e0001e003200e4
:105224001300370000232700a6b902000000000085
:10523400500798005e0090000000e0000400350074
:105244005e009000a01188000100370000000000fb
:105254009111800000202000008060000000e00028
:1052640003003a00109283000000e000edff3c00d0
:10527400109283000000e000f4ff3c0000000000f6
:105284009111800000102000008060000000e00008
:10529400fbff32000000fe0070c183006800600064
:1052a4000000e00039003200b2be8300c3be8300b8
:1052b40030bf830041bf8300800f5100818f5900ac
:1052c40032003900140ea90070c183000030a1001f
:1052d40070c18b0060c183000080a10060c18b009d
:1052e40060c183000040a00060c18b0070c18300d6
:1052f40000c0a10070c18b00b0be8300c1be83009a
:10530400401fb0000180b00010bf8b0021bf8b0094
:1053140061c1830000002800008060000000e000fc
:105324000e003200d1f1280000232700a8b10200aa
:1053340000000000b0be8300c1be83000001be00b7
:1053440000232700d2b7020000000000c1ee2800ad
:1053540000232700a8b102000000000061c18300ff
:1053640000002800008060000000e000040032001b
:105374003100290000232700a8b10200000000002a
:1053840070c1830000d0a10070c18b0060c1830094
:105394000060a00060c18b00501282000000e00099
:1053a4000300340060c183000060a10060c18b0071
:1053b40061c1830000082000008060000000e0005c
:1053c4000300320060c183000060a10060c18b0053
:1053d40061c1830000102000008060000000e00034
:1053e4000300320060c183000060a10060c18b0033
:1053f40071c1830000402000008060000000e000d4
:105404000300320060c183000060a10060c18b0012
:1054140060c18300700060000000e000730032008f
:1054240061c1830000042000008060000000e000ef
:105434006e003200f0c083000000e0003c00340045
:10544400206827001ef802000000000061c18300ec
:1054540000002800008060000000e0000e00320020
:10546400d1f1280000232700a8b1020000000000a9
:10547400b0be8300c1be83000001be00002327002c
:10548400d2b7020000000000c1ee2800002327006c
:10549400a8b102000000000061c1830000002800e0
:1054a400008060000000e0000400320011012900c7
:1054b40000232700a8b102000000000061c183009e
:1054c40000002800008060000000e00005003200b9
:1054d40010b58300800078000023270076b6020010
:1054e4000000000061c1830000002800008060000b
:1054f4000000e000040032006102290000232700bc
:10550400a8b102000000000061c18300000028006f
:10551400008060000000e0000500320020b5830038
:10552400800078000023270076b602000000000007
:10553400c0c783000000a100c0c78b00b2c78300ae
:10554400f1128200801282000410020001000000a7
:10555400b60f02000100000060c183000070a000cb
:1055640060c18b00807c240050a402000000000075
:1055740061c1830000002800008060000000e0009a
:105584000e003200d1f1280000232700a8b1020048
:1055940000000000b0be8300c1be83000001be0055
:1055a40000232700d2b7020000000000c1ee28004b
:1055b40000232700a8b102000000000061c183009d
:1055c40000002800008060000000e00004003200b9
:1055d400d102290000232700a8b102000000000026
:1055e40060c183000040a10060c18b0070c18300d2
:1055f400640060000000e0007d003200a09283009f
:105604000000e0007a003a0070c183000020a1008d
:1056140070c18b0060252700600798000000eb0034
:10562400000f7800a0682700104178001e00780061
:10563400cf80de00ee0190000080410082407800bf
:10564400f2b20200000000001e0f4000b068270004
:10565400104178001e007800cf80de00ee0190003b
:105664000080410082407800f2b202000000000095
:105674001e0f4000c0682700104178001e0078000b
:10568400cf80de00ee01900000804100824078006f
