:020000040000fa
:080000000002040000000000f2
:020000040000fa
:04000800c20f000023
:020000040000fa
:04000c00760d00006d
:020000040000fa
:04001000ca0d000015
:020000040000fa
:040014001c0e0000be
:020000040000fa
:040018009e0e000038
:020000040000fa
:04001c00200f0000b1
:020000040000fa
:04002000c20f00000b
:020000040000fa
:04002400c20f000007
:020000040000fa
:04002800c20f000003
:020000040000fa
:04002c00c20f0000ff
:020000040000fa
:04003000c20f0000fb
:020000040000fa
:04003400c20f0000f7
:020000040000fa
:04003800fa020000c8
:020000040000fa
:04003c00c20f0000ef
:020000040000fa
:04004000c20f0000eb
:020000040000fa
:04004400f8050000bb
:020000040000fa
:040048001606000098
:020000040000fa
:04004c00c20f0000df
:020000040000fa
:04005000c20f0000db
:020000040000fa
:04005400f20a0000ac
:020000040000fa
:04005800360c000062
:020000040000fa
:04005c00c20f0000cf
:020000040000fa
:040060004a0400004e
:020000040000fa
:04006400c20f0000c7
:020000040000fa
:040068000e05000081
:020000040000fa
:04006c00c20f0000bf
:020000040000fa
:04007000c20f0000bb
:020000040000fa
:04007400c20f0000b7
:020000040000fa
:04007800c20f0000b3
:020000040000fa
:04007c00c20f0000af
:020000040000fa
:04008000c20f0000ab
:020000040000fa
:04008400c20f0000a7
:020000040000fa
:04008800da05000095
:020000040000fa
:04008c00c20f00009f
:020000040000fa
:04009000c20f00009b
:020000040000fa
:04009400c20f000097
:020000040000fa
:04009800c20f000093
:020000040000fa
:04009c00c20f00008f
:020000040000fa
:0400a000bc0b000095
:020000040000fa
:0400a400540c0000f8
:020000040000fa
:0400a800c20f000083
:020000040000fa
:0400ac00c20f00007f
:020000040000fa
:0400b000c20f00007b
:020000040000fa
:0400b400c20f000077
:020000040000fa
:0400b800c20f000073
:020000040000fa
:0400bc00c20f00006f
:020000040000fa
:0400c000c20f00006b
:020000040000fa
:0400c400c20f000067
:020000040000fa
:0400c800c20f000063
:020000040000fa
:0400cc00c20f00005f
:020000040000fa
:0400d000c20f00005b
:020000040000fa
:0400d400c20f000057
:020000040000fa
:0400d800c20f000053
:020000040000fa
:0400dc00c20f00004f
:020000040000fa
:0400e000c20f00004b
:020000040000fa
:0400e400c20f000047
:020000040000fa
:0400e800c20f000043
:020000040000fa
:0400ec00c20f00003f
:020000040000fa
:0400f000c20f00003b
:020000040000fa
:0400f400c20f000037
:020000040000fa
:0400f800c20f000033
:020000040000fa
:0400fc00c20f00002f
:020000040000fa
:04010000c20f00002a
:020000040000fa
:04010400c20f000026
:020000040000fa
:04010800c20f000022
:020000040000fa
:04010c00c20f00001e
:020000040000fa
:04011000c20f00001a
:020000040000fa
:04011400c20f000016
:020000040000fa
:04011800c20f000012
:020000040000fa
:04011c00c20f00000e
:020000040000fa
:04012000c20f00000a
:020000040000fa
:04012400c20f000006
:020000040000fa
:04012800c20f000002
:020000040000fa
:04012c00720c000051
:020000040000fa
:04013000f40c0000cb
:020000040000fa
:04013400c20f0000f6
:020000040000fa
:04013800c20f0000f2
:020000040000fa
:04013c00c20f0000ee
:020000040000fa
:04014000c20f0000ea
:020000040000fa
:04014400c20f0000e6
:020000040000fa
:04014800c20f0000e2
:020000040000fa
:04014c00c20f0000de
:020000040000fa
:04015000c20f0000da
:020000040000fa
:04015400c20f0000d6
:020000040000fa
:04015800c20f0000d2
:020000040000fa
:04015c00c20f0000ce
:020000040000fa
:04016000c20f0000ca
:020000040000fa
:04016400c20f0000c6
:020000040000fa
:04016800c20f0000c2
:020000040000fa
:04016c00c20f0000be
:020000040000fa
:04017000c20f0000ba
:020000040000fa
:04017400c20f0000b6
:020000040000fa
:04017800c20f0000b2
:020000040000fa
:04017c00c20f0000ae
:020000040000fa
:04018000c20f0000aa
:020000040000fa
:04018400c20f0000a6
:020000040000fa
:04018800c20f0000a2
:020000040000fa
:04018c00c20f00009e
:020000040000fa
:04019000c20f00009a
:020000040000fa
:04019400c20f000096
:020000040000fa
:04019800c20f000092
:020000040000fa
:04019c00c20f00008e
:020000040000fa
:0401a000c20f00008a
:020000040000fa
:0401a400c20f000086
:020000040000fa
:0401a800c20f000082
:020000040000fa
:0401ac00c20f00007e
:020000040000fa
:0401b000c20f00007a
:020000040000fa
:0401b400c20f000076
:020000040000fa
:0401b800c20f000072
:020000040000fa
:0401bc00c20f00006e
:020000040000fa
:0401c000c20f00006a
:020000040000fa
:0401c400c20f000066
:020000040000fa
:0401c800c20f000062
:020000040000fa
:0401cc00c20f00005e
:020000040000fa
:0401d000c20f00005a
:020000040000fa
:0401d400c20f000056
:020000040000fa
:0401d800c20f000052
:020000040000fa
:0401dc00c20f00004e
:020000040000fa
:0401e000c20f00004a
:020000040000fa
:0401e400c20f000046
:020000040000fa
:0401e800c20f000042
:020000040000fa
:0401ec00c20f00003e
:020000040000fa
:0401f000c20f00003a
:020000040000fa
:0401f400c20f000036
:020000040000fa
:0401f800c20f000032
:020000040000fa
:0401fc00c20f00002e
:020000040000fa
:04020000c20f000029
:020000040000fa
:04020400c20f000025
:020000040000fa
:04020800c20f000021
:020000040000fa
:04020c00c20f00001d
:020000040000fa
:04021000c20f000019
:020000040000fa
:04021400c20f000015
:020000040000fa
:04021800c20f000011
:020000040000fa
:04021c00c20f00000d
:020000040000fa
:04022000c20f000009
:020000040000fa
:04022400c20f000005
:020000040000fa
:04022800c20f000001
:020000040000fa
:04022c00c20f0000fd
:020000040000fa
:04023000c20f0000f9
:020000040000fa
:04023400c20f0000f5
:020000040000fa
:04023800c20f0000f1
:020000040000fa
:04023c00c20f0000ed
:020000040000fa
:04024000c20f0000e9
:020000040000fa
:04024400c20f0000e5
:020000040000fa
:04024800c20f0000e1
:020000040000fa
:04024c00c20f0000dd
:020000040000fa
:04025000c20f0000d9
:020000040000fa
:04025400c20f0000d5
:020000040000fa
:04025800c20f0000d1
:020000040000fa
:04025c00c20f0000cd
:020000040000fa
:04026000c20f0000c9
:020000040000fa
:04026400c20f0000c5
:020000040000fa
:04026800c20f0000c1
:020000040000fa
:04026c00c20f0000bd
:020000040000fa
:04027000c20f0000b9
:020000040000fa
:04027400c20f0000b5
:020000040000fa
:04027800c20f0000b1
:020000040000fa
:04027c00c20f0000ad
:020000040000fa
:04028000c20f0000a9
:020000040000fa
:10040000cfcb27000eff27000e0188000000000060
:10041000000020000000e000020032000001200087
:100420002002880014000700d80607000000e00042
:1004300003003a0040982e0001002000020037001f
:100440000000200001002000810f70000100320038
:100450000f000700000020000000e0000200320052
:100460000000020000000000c4380200000000008c
:100470000040da000000fe00606b22000000e00097
:1004800002003200002020009001880000000600d9
:10049000a1028800800478000000eb001f003700f4
:1004a000e284440054a0b4009905ba00e2844400f8
:1004b00054a0b4009906ba00e284440054a0b400e9
:1004c0000006eb00476fde00fd07b200ae018800ba
:1004d000636ce10003003a000ad801000000eb0061
:1004e0000e003700606ce10008003a00004deb00a0
:1004f0000a05e800020039003420ec000af0a000f0
:100500008b05e900f9ff3e00040037006168e10057
:10051000010032000086eb000b00070019c7ba008b
:100520000e04e0001905ba0003003a000a00e000da
:10053000dbff3a0000000600fe07b200ae028800b2
:100540008a047800f5ff37000cd0a300e20f4d00bd
:100550001c00390089027800354dba000a05e80010
:10056000020039003420ec000af0a0008b05e900fd
:100570000f003200254dba000a05e80002003900dc
:100580003420ec000af0a0008b05e90008003200de
:100590000c00e0000600320015cdba000a05e800a4
:1005a000020039003420ec000af0a0008b05e900bd
:1005b0008984e80054a0b4000b00e000e2ff3a0098
:1005c000000006009902ba00055d78008b05e9007d
:1005d000f7ff3200c82ade00055d78008b05e900d0
:1005e000f3ff32000c00e000f1ff320019ddba0029
:1005f000eeff37003600f800809fbe00829fbe00ed
:10060000849fbe00869fbe003200f8003400f800d0
:1006100010002000a0018800002020009001880028
:10062000000000001600fa000088a90030c783000f
:10063000610060000000e0004200320020c783003b
:1006400090018a00c1c08300000820000080600083
:100650000000e0007c003200f687470076805700fb
:10066000610224000a000900311878006001b1001d
:1006700060ea230008cd020000000000f687570062
:1006800010f481000000e0000b003400a1e723001b
:100690000e00780064ca020000000000610224001d
:1006a0000a000900be1878006e01b10060018200e6
:1006b0004058880064003700c1c083000000280053
:1006c000008060000000e0000e003200e1c12a005e
:1006d000e02127002695020000000000f0bf830003
:1006e00001c083000001be00e02127006e9a0200d5
:1006f0000000000031bf2a00e021270026950200fb
:1007000000000000c1c083000000280000806000dd
:100710000000e0000400320061252b00e0212700ea
:100720002695020000000000c0c083000070a100f8
:10073000c0c08b00c0c083000040a000c0c08b00c0
:100740004100370020c78300e0008a00c1c0830059
:1007500000082000008060000000e0003a00320045
:10076000f687470076805700010124000a0009003f
:10077000311878006001b10060ea230008cd020062
:1007800000000000f687570010f481000000e00030
:100790000b003400a1e723000e00780064ca0200b9
:1007a00000000000010124000a000900be187800c2
:1007b0006e01b100b000820020588800220037008e
:1007c000c1c0830000002800008060000000e0003d
:1007d0000e003200e1c12a00e02127002695020028
:1007e00000000000f0bf830001c083000001be00d4
:1007f000e02127006e9a02000000000031bf2a00ad
:10080000e02127002695020000000000c1c08300ff
:1008100000002800008060000000e00004003200ba
:1008200061252b00e0212700269502000000000032
:10083000c0c083000070a100c0c08b00c0c0830096
:100840000040a000c0c08b0030c783006140600042
:100850000004a200614060000080fb0061006000b5
:1008600031c783000100a1000100700030c78b0078
:100870000080fa003400f9003200f9004f03be0096
:100880004f02be004f01be004f00be003600f9000f
:10089000004006003600f800809fbe00829fbe0028
:1008a000849fbe00869fbe003200f8003400f8002e
:1008b00010002000a0018800002020009001880086
:1008c000000000001800fa0001c8a900815880004b
:1008d00000002100008060000000e0001b003200ea
:1008e000a1242300222323000b000900b218780062
:1008f000c0c083000090a100c0c08b00118ba90074
:10090000609181000000e00009003400810a2300aa
:100910000e00780040ce02000000000021232300da
:100920000b000900be1878008e01b10032003700bc
:10093000c0c083000050a100c0c08b00c0c08300b5
:100940000090a000c0c08b002b0037008192810076
:1009500000938100a2cb020000000000c1c0830010
:1009600000202000008060000000e0001500320040
:10097000c0c083000090a100c0c08b00102bef000e
:1009800080c58300cf00de00008040000080d100e1
:100990003048880030c383000020a10030c38b00a2
:1009a0002000200040c28b000000eb0040c18b0003
:1009b00020c383000020a00020c38b0021c8a90011
:1009c0000d003700102bef00f09181000000e900ce
:1009d000f0588800c0918100a0588800162bef00c5
:1009e00060902000e0588800200020009058880087
:1009f00010002b00805888000080fa003400f900b5
:100a00003200f9004f03be004f02be004f01be008e
:100a10004f00be003600f900004006003600f80026
:100a2000809fbe00829fbe00849fbe00869fbe0046
:100a30003200f8003400f80010002000a001880007
:100a40000020200090018800000000000400fa004f
:100a50004110800000042000008060000000e000e1
:100a60000100320008c2a90040108000620060004e
:100a70000000e0002300320000108000000f78002a
:100a80004110800000022000008060000000e000b3
:100a90001c00320040108000640060000000e00094
:100aa00018003a00f38f8300129083006110b900a0
:100ab000008041009e007800814078000148780065
:100ac0000200e80010908b00309083000000e800e6
:100ad00030908b003190830040908300808f5000d5
:100ae000020034003090830040908b00119083000e
:100af00090908300808f500002003a000000eb00cd
:100b000010908b0040108000640060000000e00046
:100b10001e003200d0c083000010a000d0c08b00a7
:100b2000e09083000050a000e0908b004110800016
:100b300000022000008060000000e00012003a0087
:100b4000709083000000e0000d003400c01f2700fb
:100b5000429c020000000000100798001e00900058
:100b60000000e000030035001e0090001010880017
:100b700005003700e0002000101088000200370058
:100b8000e0002000101088000782a8000208a900d9
:100b90000080fa003400f9003200f9004f03be0073
:100ba0004f02be004f01be004f00be003600f900ec
:100bb000004006003200f8003400f800881f78007a
:100bc00018002000a8018800082020009801880053
:100bd000000000004f0478000000fa000308a9009c
:100be0000080fa003400f9003200f90000400600ed
:100bf0003200f8003400f800881f78001800200048
:100c0000a80188000820200098018800000000004a
:100c10004f0478000000fa0000e8a9000080fa0004
:100c20003400f9003200f900004006003600f800f8
:100c3000809fbe00829fbe00849fbe00869fbe0034
:100c40003200f8003400f80010002000a0018800f5
:100c50000020200090018800000000000000fa0041
:100c60000108a900e0c0830070088800f1c083007b
:100c700010c18300808f500003003e007008800088
:100c80000000e80070088800f1c0830000c1830004
:100c9000808f500002003a000000eb00f0c08b0093
:100ca000f0c083000000e800f0c08b0020c3830088
:100cb00061006000004078000004e0000c00320099
:100cc00020c183000000e80020c18b0021c1830007
:100cd00020c28300808f50000500390030c383009c
:100ce0000000a00030c38b000000eb0020c18b008f
:100cf00020c38300620060000000e0000c003200ae
:100d000030c183000000e80030c18b0031c1830096
:100d100030c28300808f50000500390030c383004b
:100d20000010a00030c38b000000eb0030c18b002e
:100d300020c38300640060000000e0000c0032006b
:100d400040c183000000e80040c18b0041c1830026
:100d500040c28300808f50000500390030c38300fb
:100d60000020a00030c38b000000eb0040c18b00ce
:100d700020c38300680060000000e0000c00320027
:100d800050c183000000e80050c18b0051c18300b6
:100d900050c28300808f50000500390030c38300ab
:100da0000030a00030c38b000000eb0050c18b006e
:100db00020c38300700060000000e0000c003200df
:100dc00060c183000000e80060c18b0061c1830046
:100dd00060c28300808f50000500390030c383005b
:100de0000040a00030c38b000000eb0060c18b000e
:100df00021c3830000022000008060000000e000aa
:100e00000c00320070c183000000e80070c18b004c
:100e100071c1830070c28300808f500005003900cb
:100e200030c383000050a00030c38b000000eb00f3
:100e300070c18b0021c3830000042000008060008b
:100e40000000e0000c00320080c183000000e800d8
:100e500080c18b0081c1830080c28300808f5000dd
:100e60000500390030c383000060a00030c38b0050
:100e70000000eb0080c18b0021c38300000820002c
:100e8000008060000000e0000c00320090c1830090
:100e90000000e80090c18b0091c1830090c28300e4
:100ea000808f50000500390030c383000070a0001f
:100eb00030c38b000000eb0090c18b0030c3830077
:100ec00061006000004078000004e000660132002c
:100ed00030c383000000a10030c38b0021c3830016
:100ee00000102000008060000000e0000c003200d4
:100ef000a0c183000000e800a0c18b00a1c1830055
:100f0000a0c28300808f50000500390030c38300e9
:100f10000080a00030c38b000000eb00a0c18b005c
:100f200021c3830000202000008060000000e0005a
:100f30000c003200b0c183000000e800b0c18b009b
:100f4000b1c18300b0c28300808f5000050039001a
:100f500030c383000090a00030c38b000000eb0082
:100f6000b0c18b0021c383000040200000806000de
:100f70000000e0000c003200c0c183000000e80067
:100f8000c0c18b00c1c18300c0c28300808f5000ec
:100f90000500390030c3830000a0a00030c38b00df
:100fa0000000eb00c0c18b0021c383000080200043
:100fb000008060000000e0000c003200d0c183001f
:100fc0000000e800d0c18b00d1c18300d0c28300f3
:100fd000808f50000500390030c3830000b0a000ae
:100fe00030c38b000000eb00d0c18b0021c3830015
:100ff00000002100008060000000e0000c003200d2
:10100000e0c183000000e800e0c18b00e1c1830083
:10101000e0c28300808f50000500390030c3830098
:1010200000c0a00030c38b000000eb00e0c18b00cb
:1010300021c3830000002200008060000000e00067
:101040000c003200f0c183000000e800f0c18b000a
:10105000f1c18300f0c28300808f50000500390089
:1010600030c3830000d0a00030c38b000000eb0031
:10107000f0c18b0021c383000000240000806000c9
:101080000000e0000c00320000c283000000e80015
:1010900000c28b0001c2830000c38300808f500018
:1010a0000500390030c3830000e0a00030c38b008e
:1010b0000000eb0000c28b0020c383000000e000b2
:1010c0000c003d0010c283000000e80010c28b003d
:1010d00011c2830010c38300808f500005003900c7
:1010e00030c3830000f0a00030c38b000000eb0091
:1010f00010c28b0031c3830000102000008060000c
:101100000000e0002900320030c383000080a1000d
:1011100030c38b00c1c08300000028000080600045
:101120000000e0000e003200e1c12a00e0212700ab
:101130002695020000000000f0bf830001c083007c
:101140000001be00e02127006e9a020000000000ae
:1011500031bf2a00e0212700269502000000000090
:10116000c1c0830000002800008060000000e00093
:1011700004003200f1262b00e02127002695020012
:101180000000000030c383000090a10030c38b003a
:1011900010002000b0c28b000000eb00b0c18b003b
:1011a00020c383000090a00020c38b0031c38300c4
:1011b00000202000008060000000e00004003200f9
:1011c00030c383000090a10030c38b000000fe00fc
:1011d00031c3830000402000008060000000e00078
:1011e0002900320030c3830000a0a10030c38b006f
:1011f000c1c0830000002800008060000000e00003
:101200000e003200e1c12a00e021270026950200ed
:1012100000000000f0bf830001c083000001be0099
:10122000e02127006e9a02000000000031bf2a0072
:10123000e02127002695020000000000c1c08300c5
:1012400000002800008060000000e0000400320080
:10125000e1282b00e0212700269502000000000075
:1012600030c383000090a10030c38b001000200029
:10127000b0c28b000000eb00b0c18b0020c3830024
:101280000090a00020c38b0031c3830000802000a9
:10129000008060000000e0002900320030c38300bd
:1012a00000b0a10030c38b00c1c083000000280043
:1012b000008060000000e0000e003200e1c12a0062
:1012c000e02127002695020000000000f0bf830007
:1012d00001c083000001be00e02127006e9a0200d9
:1012e0000000000031bf2a00e021270026950200ff
:1012f00000000000c1c083000000280000806000e2
:101300000000e00004003200812b2b00e0212700c8
:10131000269502000000000030c383000090a10069
:1013200030c38b0010002000b0c28b000000eb0027
:10133000b0c18b0020c383000090a00020c38b00ad
:1013400031c3830000002100008060000000e00045
:101350002900320030c3830000c0a10030c38b00dd
:10136000c1c0830000002800008060000000e00091
:101370000e003200e1c12a00e0212700269502007c
:1013800000000000f0bf830001c083000001be0028
:10139000e02127006e9a02000000000031bf2a0001
:1013a000e02127002695020000000000c1c0830054
:1013b00000002800008060000000e000040032000f
:1013c000812d2b00e021270026950200000000005f
:1013d00030c383000090a10030c38b0010002000b8
:1013e000b0c28b000000eb00b0c18b0020c38300b3
:1013f0000090a00020c38b0031c3830000002200b6
:10140000008060000000e0000900320030c383006b
:1014100000d0a10030c38b0020c3830000d0a10006
:1014200020c38b00d0c083000050a000d0c08b0030
:1014300031c3830000002400008060000000e00051
:101440000300320030c3830000e0a10030c38b00f2
:1014500030c383000000e00003003d0030c3830080
:1014600000f0a10030c38b0030c383006200600035
:101470000000e0000300320030c383000010a10030
:1014800030c38b0030c38300640060000000e000c4
:101490000d00320030c383000020a10030c38b0058
:1014a00020c383000020a10020c38b00140ea900dc
:1014b00020c383000080a10020c38b00d0c0830024
:1014c0000040a000d0c08b0030c3830068006000e3
:1014d0000000e0000900320030c383000030a100aa
:1014e00030c38b00f0bf830001c083006100400067
:1014f000e0804800f0bf8b0001c08b0030c3830048
:10150000700060000000e0000700320030c383007c
:101510000040a10030c38b0020c383000040a10025
:1015200020c38b0014eea90031c383000002200009
:10153000008060000000e0000900320030c383003a
:101540000050a10030c38b0020c383000050a100d5
:1015500020c38b00d0c083000000a100d0c08b004e
:1015600031c3830000042000008060000000e00020
:101570000700320030c383000060a10030c38b003d
:1015800020c383000060a10020c38b0015aea9001a
:1015900031c3830000082000008060000000e000ec
:1015a0000700320030c383000070a10030c38b00fd
:1015b00020c383000070a10020c38b00158ea900fa
:1015c0000080fa003400f9003200f9004f03be0039
:1015d0004f02be004f01be004f00be003600f900b2
:1015e000004006003600f800809fbe00829fbe00cb
:1015f000849fbe00869fbe003200f8003400f800d1
:1016000010002000a0018800002020009001880028
:10161000000000000000fa000168a900180037006f
:10162000f38f8300129083006110b90000804100a5
:101630003111800081407800014878000200e80004
:1016400010908b00309083000000e80030908b00f9
:101650003190830040908300808f5000020034005e
:101660003090830040908b00119083009090830015
:10167000808f500002003a000000eb0010908b00b9
:1016800010118000610060000000e000e4ff3a00fb
:10169000319083009090830068005000808f50004c
:1016a0000100340015eea8001011800062006000f7
:1016b0000000e000270032002222a90030c383008e
:1016c0000090a10030c38b0010002000b0c28b003e
:1016d0000000eb00b0c18b0020c383000090a0008d
:1016e00020c38b00c1c08300000028000080600080
:1016f0000000e0000e003200e1c12a00e0212700d6
:101700002695020000000000f0bf830001c08300a6
:101710000001be00e02127006e9a020000000000d8
:1017200031bf2a00e02127002695020000000000ba
:10173000c1c0830000002800008060000000e000bd
:1017400004003200712f2b00e021270026950200b3
:10175000000000000080fa003400f9003200f900b7
:101760004f03be004f02be004f01be004f00be003f
:101770003600f90000400600809fbe00829fbe0038
:101780003200f8003400f80010002000a0018800aa
:101790000020200090018800000000000200fa00f4
:1017a00003c8a9000000eb00000f7800f09183004f
:1017b000610060000000e0002600320019003700e0
:1017c00003918300229183006110b90000804100e1
:1017d000b111800081407800014878000200e800e3
:1017e00020918b00409183000000e80040918b0025
:1017f0004191830050918300808f5000020034009b
:101800004091830050918b0021918300a09183002f
:10181000808f500002003a000000eb0020918b0006
:101820001e0fe80090118000610060000000e000e1
:10183000e3ff3a0090118000660060000000e000c5
:10184000040032003222a900e09183000000e80089
:10185000e0918b000080fa003400f9003200f900ba
:101860004f01be004f00be00004006003200f800ed
:101870003400f800881f780018002000a8018800b4
:101880000820200098018800000000004f04780024
:101890000000fa000188a9000080fa003400f90075
:1018a0003200f900004006003200f8003400f80071
:1018b000881f780018002000a80188000820200058
:1018c00098018800000000004f0478000000fa0032
:1018d00003e8a9000080fa003400f9003200f900a2
:1018e000004006003600f800809fbe00829fbe00c8
:1018f000849fbe00869fbe003200f8003400f800ce
:1019000010002000a0018800002020009001880025
:10191000000000000000fa000828a900c1c08300f0
:1019200000002800008060000000e0000e0032008f
:10193000e1c12a00e02127002695020000000000f6
:10194000f0bf830001c083000001be00e02127003a
:101950006e9a02000000000031bf2a00e02127003b
:101960002695020000000000c1c08300000028008e
:10197000008060000000e0000400320071312b00a4
:10198000e02127002695020000000000c1c083006e
:1019900000002800008060000000e0000900320024
:1019a000c1f62a00e0212700269502000000000071
:1019b0001011800080007800e0212700769302005b
:1019c000000000000080fa003400f9003200f90045
:1019d0004f03be004f02be004f01be004f00be00cd
:1019e0003600f900004006003600f800809fbe0077
:1019f000829fbe00849fbe00869fbe003200f8001a
:101a00003400f80010002000a00188000020200011
:101a100090018800000000000000fa000848a900ba
:101a2000c1c0830000002800008060000000e000ca
:101a30000e003200e1c12a00e021270026950200b5
:101a400000000000f0bf830001c083000001be0061
:101a5000e02127006e9a02000000000031bf2a003a
:101a6000e02127002695020000000000c1c083008d
:101a700000002800008060000000e0000400320048
:101a800051322b00e02127002695020000000000c3
:101a9000c1c0830000002800008060000000e0005a
:101aa00009003200c1f62a00e02127002695020035
:101ab000000000009011800080007800e0212700e5
:101ac00076930200000000000080fa003400f90064
:101ad0003200f9004f03be004f02be004f01be00ae
:101ae0004f00be003600f900004006003600f80046
:101af000809fbe00829fbe00849fbe00869fbe0066
:101b00000000fa00c1c083000000280000806000cf
:101b10000000e0000e003200e1c12a00e0212700b1
:101b20002695020000000000f0bf830001c0830082
:101b30000001be00e02127006e9a020000000000b4
:101b400031bf2a00e0212700269502000000000096
:101b5000c1c0830000002800008060000000e00099
:101b60000400320021332b00e021270026950200db
:101b700000000000c068a9000080fa004f03be000a
:101b80004f02be004f01be004f00be003600f900fc
:101b9000004006003600f800809fbe00829fbe0015
:101ba000849fbe00869fbe000000fa00c1c0830073
:101bb00000002800008060000000e0000e003200fd
:101bc000e1c12a00e0212700269502000000000064
:101bd000f0bf830001c083000001be00e0212700a8
:101be0006e9a02000000000031bf2a00e0212700a9
:101bf0002695020000000000c1c0830000002800fc
:101c0000008060000000e0000400320011352b006d
:101c1000e021270026950200000000000080fa0065
:101c20004f03be004f02be004f01be004f00be007a
:101c30003600f900004006003600f800809fbe0024
:101c4000829fbe00849fbe00869fbe000000fa00f7
:101c5000c1c0830000002800008060000000e00098
:101c60000e003200e1c12a00e02127002695020083
:101c700000000000f0bf830001c083000001be002f
:101c8000e02127006e9a02000000000031bf2a0008
:101c9000e02127002695020000000000c1c083005b
:101ca00000002800008060000000e0000400320016
:101cb00011372b00e02127002695020000000000cc
:101cc000c1c0830000002800008060000000e00028
:101cd00004003200f1382b00e02127002695020095
:101ce00000000000c1c083000000280000806000e8
:101cf0000000e00009003200c1f62a00e0212700c0
:101d00002695020000000000004680008000780058
:101d1000e02127007693020000000000c048a900df
:101d20000080fa004f03be004f02be004f01be000c
:101d30004f00be003600f900004006003600f800f3
:101d4000809fbe00829fbe00849fbe00869fbe0013
:101d50000000fa00c1c0830000002800008060007d
:101d60000000e0000e003200e1c12a00e02127005f
:101d70002695020000000000f0bf830001c0830030
:101d80000001be00e02127006e9a02000000000062
:101d900031bf2a00e0212700269502000000000044
:101da000c1c0830000002800008060000000e00047
:101db00004003200a1392b00e02127002695020003
:101dc00000000000c1c08300000028000080600007
:101dd0000000e00004003200f1382b00e021270071
:101de0002695020000000000c1c08300000028000a
:101df000008060000000e00009003200c1f62a0007
:101e0000e021270026950200000000000046800027
:101e100080007800e0212700769302000000000097
:101e2000c088a9000080fa004f03be004f02be0028
:101e30004f01be004f00be003600f9000040060012
:101e40003600f800809fbe00829fbe00849fbe00c7
:101e5000869fbe000000fa00c1c083000000280079
:101e6000008060000000e0000e003200e1c12a00a6
:101e7000e02127002695020000000000f0bf83004b
:101e800001c083000001be00e02127006e9a02001d
:101e90000000000031bf2a00e02127002695020043
:101ea00000000000c1c08300000028000080600026
:101eb0000000e00004003200413b2b00e02127003d
:101ec0002695020000000000c1c083000000280029
:101ed000008060000000e00009003200c1f62a0026
:101ee000e02127002695020000000000805f8000ae
:101ef00080007800e02127007693020000000000b7
:101f0000f02bef00c1c083000000280000806000bb
:101f10000000e00004003200f1382b00e02127002f
:101f20002695020000000000c1c0830000002800c8
:101f3000008060000000e00009003200c1f62a00c5
:101f4000e0212700269502000000000000468000e6
:101f500080007800e0212700769302000000000056
:101f6000c0a8a900f02bef000080fa004f03be00cc
:101f70004f02be004f01be004f00be003600f90008
:101f8000004006000040da000000fe0000000500ee
:101f9000839f68000100e00002003d006000100027
:101fa000e08018000300e00002003d006001110025
:101fb000e0811900050007004f00e00002003b002f
:101fc00060001000e0801800000006006022b800e9
:101fd000060220000000d0008180d2000482d200de
:101fe0008582d2000000a0000202520083825a00c3
:101ff000030031000202420083824a000000a10077
:102000000603e900f3ff3a0000000600889fbe00c7
:102010008a9fbe0030044200b0844a0030054b0065
:1020200090854b006000b1000898be000a90be0089
:102030000440e10005c8e10006d0e10007d8e10056
:1020400002003100680040001008e8004f05be00a3
:102050004f04be0000000600889fbe008a9fbe009d
:10206000100478009004900020059000b0059000c6
:102070000418540005985c0006185d0007985d0080
:10208000110020000440e10005c8e10006d0e10095
:1020900007d8e100010039008000eb001088100033
:1020a0004f05be004f04be00000006001200fa00fb
:1020b000889fbe008a9fbe008c9fbe00e0b79f0035
:1020c000f1b79f0082bf9f0093bf9f000605be002f
:1020d0000404be000000eb00d0b79f00c0b79f0013
:1020e000b0b79f00a0b79f0090b79f000006eb001d
:1020f0005fb19700cfb09700820141003fb09700d9
:102100000200e00004003d00370007007e80570019
:10211000beff070003003700330007007e80570032
:10212000cdff0700dfb697000d00e0000c00350082
:102130006fb29700ffb297000fbb97009fbb97004d
:1021400010002000010020006011b80000027200a1
:102150008182720002037300838373001b000700f7
:102160000c06e80001042000810f5600e0ff3a0051
:102170000d00e00004003d000802be000a03be009e
:102180007e805700a1ff07005fa897000000e000d5
:1021900005003a001fb29700afb297003fb3970017
:1021a000cfb39700090007006fb09700ffb097000a
:1021b0000fb997009fb997004f06be004f05be00ac
:1021c0004f04be000080fa00000006000100070076
:1021d00000000600a4b79f00b5b79f00c6b79f00d8
:1021e000d7b79f00000006004f09de008281710012
:1021f000b3b79f004f01de008180400082807000f5
:10220000a1b79f008fb097004f09de00000040008b
:102210000200700090b79f007fa897004f01de007a
:10222000818040008280700081b79f000d00070010
:102230004f3ade000000400004007000f0af9f0045
:10224000080007000402420085824a0006034b0092
:1022500087834b00dfff07000802be000a03be00b1
:10226000000006002fb29700bfb297004fb397004f
:10227000dfb3970000000600881f780018002000d8
:10228000881f780089ff07008f87e9004f047800d6
:1022900000000600801feb0084ff07008f87e90025
:1022a00000000600889fbe008a9fbe00e00f50001d
:1022b000e08f5800e00f5900e08f59000c003d00fe
:1022c0006044b8006055b8000000540081805c0094
:1022d00002015d0083815d001800200015000700e9
:1022e00008003d00180007000004eb00050037005f
:1022f0000004eb000f00070002003d001200070081
:1023000018002000dcff07000800e0000600320093
:102310006022b8006033b8000000520081805a008b
:1023200002015b0083815b004f05be004f04be00cd
:1023300000000600e00f5200e08f5a00e00f5b0043
:10234000e08f5b00000006006044b8006055b800f4
:102350000402540085825c0006035d0087835d00f3
:1023600000000600889fbe008a9fbe008c1f780078
:10237000e00f5000e08f5800e00f5900e08f590047
:102380000d003d006044b8006055b80000005400e6
:1023900081805c0002015d0083815d001c002000e3
:1023a0000820e10009a8e1000ab0e1000bb8e10053
:1023b0000d003d00080037000006eb00e00f520062
:1023c000e08f5a00e00f5b00e08f5b0006003d00ed
:1023d0006044b8006055b8000402540085825c0077
:1023e00006035d0087835d00aaff07000c00e00084
:1023f000060032006022b8006033b80000005200ce
:1024000081805a0002015b0083815b004f067800e7
:0c2410004f05be004f04be000000060097
:020000040000fa
:10241c0000ff000000ff000000ff000000ff0000b4
:10242c0000ff000000ff000000ff000000ff0000a4
:10243c0000ff000000ff000000ff000000ff000094
:10244c0000ff000000ff000001ff000002ff000081
:10245c0005ff00000eff000020ff000040ff000001
:10246c0071ff0000b3ff0000ffff00004b000000f5
:10247c008c000000ba000000d100000020ff00001a
:10248c0040ff000071ff0000b3ff000000000000df
:10249c004c0000008e000000bf000000df000000b8
:1024ac00d1000000ba0000008c0000004b000000be
:1024bc00ffff0000b3ff000071ff000040ff0000b1
:1024cc0020ff0000d1000000ba0000008c000000ca
:1024dc004b000000ffff0000b4ff000073ff000082
:1024ec0045ff00002eff0000f1000000fa00000084
:1024fc00fd000000fe000000ff000000fe000000d8
:10250c00fd000000fa000000f1000000f1000000e6
:10251c00fa000000fd000000fe000000ff000000bb
:10252c00ff000000ff000000ff000000ff000000a3
:10253c000eff000005ff000002ff000001ff00007d
:10254c0000ff000000ff000000ff000000ff000083
:10255c0000ff00000eff000005ff000002ff00005e
:10256c0001ff000000ff000001ff000002ff00005f
:10257c0005ff00000eff00002eff000045ff0000cd
:10258c0073ff0000b4ff0000000000004b000000cf
:10259c008c000000ba000000d10000002eff0000eb
:1025ac0045ff000073ff0000b4ff000000000000b6
:1025bc004c0000008e000000bf000000df00000097
:1025cc00df000000bf0000008e0000004c00000087
:1025dc00ffff0000b3ff000071ff000040ff000090
:1025ec0020ff0000df000000bf0000008e00000094
:1025fc004c00000000000000b4ff000073ff00005e
:10260c0045ff00002eff0000ff000000ff0000004f
:10261c00ff000000ff000000ff000000fe000000b3
:10262c00fd000000fa000000f1000000ff000000b7
:10263c00ff000000ff000000ff000000ff00000092
:10264c00ff000000ff000000ff000000ff00000082
:10265c0000ff000000ff000000ff000000ff000072
:10266c0000ff000000ff000000ff000000ff000062
:10267c0000ff000000ff000000ff000000ff000052
:10268c0000ff000001ff000006ff00001bff000020
:10269c0055ff0000bfff000040000000aa00000032
:1026ac00e4000000f9000000fd000000f90000004b
:1026bc00e4000000aa000000400000004000000000
:1026cc00aa000000e4000000f9000000fe00000079
:1026dc00ff000000ff000000ff000000ff000000f2
:1026ec00bfff000055ff00001bff000006ff0000ad
:1026fc0001ff000000ff000000ff000000ff0000d1
:10270c0000ff0000bfff000055ff00001bff000092
:10271c0006ff000002ff000006ff00001bff000088
:10272c0055ff0000bfff0000ff000000ff0000008d
:10273c00ff000000ff000000fe000000f900000098
:10274c00e4000000aa00000040000000ff000000b0
:10275c00ff000000ff000000ff000000ff00000071
:10276c00ff000000ff000000ff000000ff00000061
:10277c00000000000000000001000000010000004b
:10278c000200000002000000030000000400000032
:10279c000400000005000000050000000600000019
:1027ac0007000000070000000800000008000000ff
:1027bc00090000000a0000000a0000000b000000e5
:1027cc000b0000000c0000000d0000000d000000cc
:1027dc000e0000000e0000000f00000010000000b2
:1027ec001000000011000000110000001200000099
:1027fc00130000001300000014000000140000007f
:10280c001500000016000000160000001700000064
:10281c00170000001800000018000000190000004c
:10282c001a0000001a0000001b0000001b00000032
:10283c001c0000001d0000001d0000001e00000018
:10284c001e0000001f0000002000000020000000ff
:10285c0021000000210000002200000023000000e5
:10286c0023000000240000002400000025000000cc
:10287c0025000000260000002700000027000000b3
:10288c002800000028000000290000002a00000099
:10289c002a0000002b0000002b0000002c00000080
:1028ac002d0000002d0000002e0000002e00000066
:1028bc002f0000002f00000030000000310000004d
:1028cc003100000032000000320000003300000034
:1028dc00340000003400000035000000350000001a
:1028ec003600000036000000370000003800000001
:1028fc003800000039000000390000003a000000e8
:10290c003b0000003b0000003c0000003c000000cd
:10291c003d0000003d0000003e0000003f000000b4
:10292c003f0000004000000040000000410000009b
:10293c004100000042000000430000004300000082
:10294c004400000044000000450000004500000069
:10295c00460000004700000047000000480000004f
:10296c004800000049000000490000004a00000037
:10297c004b0000004b0000004c0000004c0000001d
:10298c004d0000004d0000004e0000004f00000004
:10299c004f000000500000005000000051000000eb
:1029ac0051000000520000005300000053000000d2
:1029bc0054000000540000005500000055000000b9
:1029cc0056000000560000005700000058000000a0
:1029dc005800000059000000590000005a00000087
:1029ec005a0000005b0000005c0000005c0000006e
:1029fc005d0000005d0000005e0000005e00000055
:102a0c005f0000005f00000060000000610000003b
:102a1c006100000062000000620000006300000022
:102a2c00630000006400000064000000650000000a
:102a3c0065000000660000006700000067000000f1
:102a4c0068000000680000006900000069000000d8
:102a5c006a0000006a0000006b0000006b000000c0
:102a6c006c0000006c0000006d0000006e000000a7
:102a7c006e0000006f0000006f000000700000008e
:102a8c007000000071000000710000007200000076
:102a9c00720000007300000073000000740000005e
:102aac007500000075000000760000007600000044
:102abc00770000007700000078000000780000002c
:102acc0079000000790000007a0000007a00000014
:102adc007b0000007b0000007c0000007c000000fc
:102aec007d0000007d0000007e0000007e000000e4
:102afc007f000000800000008000000081000000ca
:102b0c0081000000820000008200000083000000b1
:102b1c008300000084000000840000008500000099
:102b2c008500000086000000860000008700000081
:102b3c008700000088000000880000008900000069
:102b4c00890000008a0000008a0000008b00000051
:102b5c008b0000008c0000008c0000008d00000039
:102b6c008d0000008e0000008e0000008f00000021
:102b7c008f00000090000000900000009100000009
:102b8c0091000000920000009200000093000000f1
:102b9c0093000000940000009400000095000000d9
:102bac0095000000950000009600000096000000c3
:102bbc0097000000970000009800000098000000ab
:102bcc0099000000990000009a0000009a00000093
:102bdc009b0000009b0000009c0000009c0000007b
:102bec009d0000009d0000009e0000009e00000063
:102bfc009f0000009f0000009f000000a00000004c
:102c0c00a0000000a1000000a1000000a200000034
:102c1c00a2000000a3000000a3000000a40000001c
:102c2c00a4000000a5000000a5000000a500000005
:102c3c00a6000000a6000000a7000000a7000000ee
:102c4c00a8000000a8000000a9000000a9000000d6
:102c5c00a9000000aa000000aa000000ab000000c0
:102c6c00ab000000ac000000ac000000ad000000a8
:102c7c00ad000000ad000000ae000000ae00000092
:102c8c00af000000af000000b0000000b00000007a
:102c9c00b0000000b1000000b1000000b200000064
:102cac00b2000000b3000000b3000000b30000004d
:102cbc00b4000000b4000000b5000000b500000036
:102ccc00b6000000b6000000b6000000b70000001f
:102cdc00b7000000b8000000b8000000b800000009
:102cec00b9000000b9000000ba000000ba000000f2
:102cfc00bb000000bb000000bb000000bc000000db
:102d0c00bc000000bd000000bd000000bd000000c4
:102d1c00be000000be000000bf000000bf000000ad
:102d2c00bf000000c0000000c0000000c100000097
:102d3c00c1000000c1000000c2000000c200000081
:102d4c00c2000000c3000000c3000000c40000006b
:102d5c00c4000000c4000000c5000000c500000055
:102d6c00c6000000c6000000c6000000c70000003e
:102d7c00c7000000c7000000c8000000c800000029
:102d8c00c8000000c9000000c9000000ca00000013
:102d9c00ca000000ca000000cb000000cb000000fd
:102dac00cb000000cc000000cc000000cc000000e8
:102dbc00cd000000cd000000ce000000ce000000d1
:102dcc00ce000000cf000000cf000000cf000000bc
:102ddc00d0000000d0000000d0000000d1000000a6
:102dec00d1000000d1000000d2000000d200000091
:102dfc00d2000000d3000000d3000000d30000007c
:102e0c00d4000000d4000000d4000000d500000065
:102e1c00d5000000d5000000d6000000d600000050
:102e2c00d6000000d7000000d7000000d70000003b
:102e3c00d8000000d8000000d8000000d900000025
:102e4c00d9000000d9000000da000000da00000010
:102e5c00da000000da000000db000000db000000fc
:102e6c00db000000dc000000dc000000dc000000e7
:102e7c00dd000000dd000000dd000000dd000000d2
:102e8c00de000000de000000de000000df000000bd
:102e9c00df000000df000000e0000000e0000000a8
:102eac00e0000000e0000000e1000000e100000094
:102ebc00e1000000e2000000e2000000e20000007f
:102ecc00e2000000e3000000e3000000e30000006b
:102edc00e3000000e4000000e4000000e400000057
:102eec00e5000000e5000000e5000000e500000042
:102efc00e6000000e6000000e6000000e60000002e
:102f0c00e7000000e7000000e7000000e700000019
:102f1c00e8000000e8000000e8000000e800000005
:102f2c00e9000000e9000000e9000000e9000000f1
:102f3c00ea000000ea000000ea000000ea000000dd
:102f4c00eb000000eb000000eb000000eb000000c9
:102f5c00eb000000ec000000ec000000ec000000b6
:102f6c00ec000000ed000000ed000000ed000000a2
:102f7c00ed000000ee000000ee000000ee0000008e
:102f8c00ee000000ee000000ef000000ef0000007b
:102f9c00ef000000ef000000ef000000f000000068
:102fac00f0000000f0000000f0000000f000000055
:102fbc00f1000000f1000000f1000000f100000041
:102fcc00f1000000f2000000f2000000f20000002e
:102fdc00f2000000f2000000f3000000f30000001b
:102fec00f3000000f3000000f3000000f400000008
:102ffc00f4000000f4000000f4000000f4000000f5
:10300c00f4000000f5000000f5000000f5000000e1
:10301c00f5000000f5000000f5000000f6000000cf
:10302c00f6000000f6000000f6000000f6000000bc
:10303c00f6000000f7000000f7000000f7000000a9
:10304c00f7000000f7000000f7000000f700000098
:10305c00f8000000f8000000f8000000f800000084
:10306c00f8000000f8000000f8000000f900000073
:10307c00f9000000f9000000f9000000f900000060
:10308c00f9000000f9000000fa000000fa0000004e
:10309c00fa000000fa000000fa000000fa0000003c
:1030ac00fa000000fa000000fb000000fb0000002a
:1030bc00fb000000fb000000fb000000fb00000018
:1030cc00fb000000fb000000fb000000fc00000007
:1030dc00fc000000fc000000fc000000fc000000f4
:1030ec00fc000000fc000000fc000000fc000000e4
:1030fc00fc000000fc000000fd000000fd000000d2
:10310c00fd000000fd000000fd000000fd000000bf
:10311c00fd000000fd000000fd000000fd000000af
:10312c00fd000000fd000000fe000000fe0000009d
:10313c00fe000000fe000000fe000000fe0000008b
:10314c00fe000000fe000000fe000000fe0000007b
:10315c00fe000000fe000000fe000000fe0000006b
:10316c00fe000000fe000000ff000000ff00000059
:10317c00ff000000ff000000ff000000ff00000047
:10318c00ff000000ff000000ff000000ff00000037
:10319c00ff000000ff000000ff000000ff00000027
:1031ac00ff000000ff000000ff000000ff00000017
:1031bc00ff000000ff000000ff000000ff00000007
:1031cc00ff000000ff000000ff000000ff000000f7
:1031dc00ff000000ff000000ff000000ff000000e7
:1031ec00ff000000ff000000ff000000ff000000d7
:1031fc00ff000000ff000000ff00000000010000c5
:10320c00ff000000ff000000ff000000ff000000b6
:10321c00ff000000ff000000ff000000ff000000a6
:10322c00ff000000ff000000ff000000ff00000096
:10323c00ff000000ff000000ff000000ff00000086
:10324c00ff000000ff000000ff000000ff00000076
:10325c00ff000000ff000000ff000000ff00000066
:10326c00ff000000ff000000ff000000ff00000056
:10327c00ff000000ff000000ff000000ff00000046
:10328c00ff000000ff000000ff000000ff00000036
:10329c00ff000000fe000000fe000000fe00000029
:1032ac00fe000000fe000000fe000000fe0000001a
:1032bc00fe000000fe000000fe000000fe0000000a
:1032cc00fe000000fe000000fe000000fe000000fa
:1032dc00fe000000fd000000fd000000fd000000ed
:1032ec00fd000000fd000000fd000000fd000000de
:1032fc00fd000000fd000000fd000000fd000000ce
:10330c00fd000000fc000000fc000000fc000000c0
:10331c00fc000000fc000000fc000000fc000000b1
:10332c00fc000000fc000000fc000000fc000000a1
:10333c00fb000000fb000000fb000000fb00000095
:10334c00fb000000fb000000fb000000fb00000085
:10335c00fb000000fa000000fa000000fa00000078
:10336c00fa000000fa000000fa000000fa00000069
:10337c00fa000000f9000000f9000000f90000005c
:10338c00f9000000f9000000f9000000f90000004d
:10339c00f8000000f8000000f8000000f800000041
:1033ac00f8000000f8000000f8000000f700000032
:1033bc00f7000000f7000000f7000000f700000025
:1033cc00f7000000f7000000f6000000f600000017
:1033dc00f6000000f6000000f6000000f600000009
:1033ec00f5000000f5000000f5000000f5000000fd
:1033fc00f5000000f5000000f4000000f4000000ef
:10340c00f4000000f4000000f4000000f4000000e0
:10341c00f3000000f3000000f3000000f3000000d4
:10342c00f3000000f2000000f2000000f2000000c7
:10343c00f2000000f2000000f1000000f1000000ba
:10344c00f1000000f1000000f1000000f0000000ad
:10345c00f0000000f0000000f0000000f0000000a0
:10346c00ef000000ef000000ef000000ef00000094
:10347c00ef000000ee000000ee000000ee00000087
:10348c00ee000000ee000000ed000000ed0000007a
:10349c00ed000000ed000000ec000000ec0000006e
:1034ac00ec000000ec000000eb000000eb00000062
:1034bc00eb000000eb000000eb000000ea00000055
:1034cc00ea000000ea000000ea000000e900000049
:1034dc00e9000000e9000000e9000000e80000003d
:1034ec00e8000000e8000000e8000000e700000031
:1034fc00e7000000e7000000e7000000e600000025
:10350c00e6000000e6000000e6000000e500000018
:10351c00e5000000e5000000e5000000e40000000c
:10352c00e4000000e4000000e3000000e300000001
:10353c00e3000000e3000000e2000000e2000000f5
:10354c00e2000000e2000000e1000000e1000000e9
:10355c00e1000000e0000000e0000000e0000000de
:10356c00e0000000df000000df000000df000000d2
:10357c00de000000de000000de000000dd000000c8
:10358c00dd000000dd000000dd000000dc000000bc
:10359c00dc000000dc000000db000000db000000b1
:1035ac00db000000da000000da000000da000000a6
:1035bc00da000000d9000000d9000000d90000009a
:1035cc00d8000000d8000000d8000000d700000090
:1035dc00d7000000d7000000d6000000d600000085
:1035ec00d6000000d5000000d5000000d50000007a
:1035fc00d4000000d4000000d4000000d300000070
:10360c00d3000000d3000000d2000000d200000064
:10361c00d2000000d1000000d1000000d100000059
:10362c00d0000000d0000000d0000000cf0000004f
:10363c00cf000000cf000000ce000000ce00000044
:10364c00ce000000cd000000cd000000cc0000003a
:10365c00cc000000cc000000cb000000cb00000030
:10366c00cb000000ca000000ca000000ca00000025
:10367c00c9000000c9000000c8000000c80000001c
:10368c00c8000000c7000000c7000000c700000011
:10369c00c6000000c6000000c6000000c500000007
:1036ac00c5000000c4000000c4000000c4000000fd
:1036bc00c3000000c3000000c2000000c2000000f4
:1036cc00c2000000c1000000c1000000c1000000e9
:1036dc00c0000000c0000000bf000000bf000000e0
:1036ec00bf000000be000000be000000bd000000d6
:1036fc00bd000000bd000000bc000000bc000000cc
:10370c00bb000000bb000000bb000000ba000000c2
:10371c00ba000000b9000000b9000000b8000000b9
:10372c00b8000000b8000000b7000000b7000000af
:10373c00b6000000b6000000b6000000b5000000a6
:10374c00b5000000b4000000b4000000b30000009d
:10375c00b3000000b3000000b2000000b200000093
:10376c00b1000000b1000000b0000000b00000008b
:10377c00b0000000af000000af000000ae00000081
:10378c00ae000000ad000000ad000000ad00000078
:10379c00ac000000ac000000ab000000ab0000006f
:1037ac00aa000000aa000000a9000000a900000067
:1037bc00a9000000a8000000a8000000a70000005d
:1037cc00a7000000a6000000a6000000a500000055
:1037dc00a5000000a5000000a4000000a40000004b
:1037ec00a3000000a3000000a2000000a200000043
:1037fc00a1000000a1000000a0000000a00000003b
:10380c009f0000009f0000009f0000009e00000031
:10381c009e0000009d0000009d0000009c00000028
:10382c009c0000009b0000009b0000009a00000020
:10383c009a00000099000000990000009800000018
:10384c009800000097000000970000009600000010
:10385c009600000095000000950000009500000007
:10386c0094000000940000009300000093000000fe
:10387c0092000000920000009100000091000000f6
:10388c0090000000900000008f0000008f000000ee
:10389c008e0000008e0000008d0000008d000000e6
:1038ac008c0000008c0000008b0000008b000000de
:1038bc008a0000008a0000008900000089000000d6
:1038cc0088000000880000008700000087000000ce
:1038dc0086000000860000008500000085000000c6
:1038ec0084000000840000008300000083000000be
:1038fc0082000000820000008100000081000000b6
:10390c0080000000800000007f0000007e000000ae
:10391c007e0000007d0000007d0000007c000000a7
:10392c007c0000007b0000007b0000007a0000009f
:10393c007a00000079000000790000007800000097
:10394c00780000007700000077000000760000008f
:10395c007600000075000000750000007400000087
:10396c007300000073000000720000007200000081
:10397c007100000071000000700000007000000079
:10398c006f0000006f0000006e0000006e00000071
:10399c006d0000006c0000006c0000006b0000006b
:1039ac006b0000006a0000006a0000006900000063
:1039bc00690000006800000068000000670000005b
:1039cc006700000066000000650000006500000054
:1039dc00640000006400000063000000630000004d
:1039ec006200000062000000610000006100000045
:1039fc00600000005f0000005f0000005e0000003f
:103a0c005e0000005d0000005d0000005c00000036
:103a1c005c0000005b0000005a0000005a0000002f
:103a2c005900000059000000580000005800000028
:103a3c005700000056000000560000005500000022
:103a4c00550000005400000054000000530000001a
:103a5c005300000052000000510000005100000013
:103a6c0050000000500000004f0000004f0000000c
:103a7c004e0000004d0000004d0000004c00000006
:103a8c004c0000004b0000004b0000004a000000fe
:103a9c0049000000490000004800000048000000f8
:103aac0047000000470000004600000045000000f1
:103abc0045000000440000004400000043000000ea
:103acc0043000000420000004100000041000000e3
:103adc0040000000400000003f0000003f000000dc
:103aec003e0000003d0000003d0000003c000000d6
:103afc003c0000003b0000003b0000003a000000ce
:103b0c0039000000390000003800000038000000c7
:103b1c0037000000360000003600000035000000c1
:103b2c0035000000340000003400000033000000b9
:103b3c0032000000320000003100000031000000b3
:103b4c00300000002f0000002f0000002e000000ad
:103b5c002e0000002d0000002d0000002c000000a5
:103b6c002b0000002b0000002a0000002a0000009f
:103b7c002900000028000000280000002700000099
:103b8c002700000026000000250000002500000092
:103b9c00240000002400000023000000230000008b
:103bac002200000021000000210000002000000085
:103bbc00200000001f0000001e0000001e0000007e
:103bcc001d0000001d0000001c0000001b00000078
:103bdc001b0000001a0000001a0000001900000071
:103bec00180000001800000017000000170000006b
:103bfc001600000016000000150000001400000064
:103c0c00140000001300000013000000120000005c
:103c1c001100000011000000100000001000000056
:103c2c000f0000000e0000000e0000000d00000050
:103c3c000d0000000c0000000b0000000b00000049
:103c4c000a0000000a000000090000000800000043
:103c5c00080000000700000007000000060000003c
:103c6c000500000005000000040000000400000036
:103c7c000300000002000000020000000100000030
:103c8c000100000000000000000000000000000027
:103c9c00ffff0000ffff0000feff0000feff000022
:103cac00fdff0000fcff0000fcff0000fbff00001c
:103cbc00fbff0000faff0000f9ff0000f9ff000015
:103ccc00f8ff0000f8ff0000f7ff0000f6ff00000f
:103cdc00f6ff0000f5ff0000f5ff0000f4ff000008
:103cec00f3ff0000f3ff0000f2ff0000f2ff000002
:103cfc00f1ff0000f0ff0000f0ff0000efff0000fc
:103d0c00efff0000eeff0000edff0000edff0000f4
:103d1c00ecff0000ecff0000ebff0000eaff0000ee
:103d2c00eaff0000e9ff0000e9ff0000e8ff0000e7
:103d3c00e8ff0000e7ff0000e6ff0000e6ff0000e0
:103d4c00e5ff0000e5ff0000e4ff0000e3ff0000da
:103d5c00e3ff0000e2ff0000e2ff0000e1ff0000d3
:103d6c00e0ff0000e0ff0000dfff0000dfff0000cd
:103d7c00deff0000ddff0000ddff0000dcff0000c7
:103d8c00dcff0000dbff0000dbff0000daff0000bf
:103d9c00d9ff0000d9ff0000d8ff0000d8ff0000b9
:103dac00d7ff0000d6ff0000d6ff0000d5ff0000b3
:103dbc00d5ff0000d4ff0000d3ff0000d3ff0000ac
:103dcc00d2ff0000d2ff0000d1ff0000d1ff0000a5
:103ddc00d0ff0000cfff0000cfff0000ceff00009f
:103dec00ceff0000cdff0000ccff0000ccff000098
:103dfc00cbff0000cbff0000caff0000caff000091
:103e0c00c9ff0000c8ff0000c8ff0000c7ff00008a
:103e1c00c7ff0000c6ff0000c5ff0000c5ff000083
:103e2c00c4ff0000c4ff0000c3ff0000c3ff00007c
:103e3c00c2ff0000c1ff0000c1ff0000c0ff000076
:103e4c00c0ff0000bfff0000bfff0000beff00006e
:103e5c00bdff0000bdff0000bcff0000bcff000068
:103e6c00bbff0000bbff0000baff0000b9ff000061
:103e7c00b9ff0000b8ff0000b8ff0000b7ff00005a
:103e8c00b7ff0000b6ff0000b5ff0000b5ff000053
:103e9c00b4ff0000b4ff0000b3ff0000b3ff00004c
:103eac00b2ff0000b1ff0000b1ff0000b0ff000046
:103ebc00b0ff0000afff0000afff0000aeff00003e
:103ecc00adff0000adff0000acff0000acff000038
:103edc00abff0000abff0000aaff0000aaff000030
:103eec00a9ff0000a8ff0000a8ff0000a7ff00002a
:103efc00a7ff0000a6ff0000a6ff0000a5ff000022
:103f0c00a4ff0000a4ff0000a3ff0000a3ff00001b
:103f1c00a2ff0000a2ff0000a1ff0000a1ff000013
:103f2c00a0ff00009fff00009fff00009eff00000d
:103f3c009eff00009dff00009dff00009cff000005
:103f4c009cff00009bff00009bff00009aff0000fd
:103f5c0099ff000099ff000098ff000098ff0000f7
:103f6c0097ff000097ff000096ff000096ff0000ef
:103f7c0095ff000095ff000094ff000094ff0000e7
:103f8c0093ff000092ff000092ff000091ff0000e1
:103f9c0091ff000090ff000090ff00008fff0000d9
:103fac008fff00008eff00008eff00008dff0000d1
:103fbc008dff00008cff00008bff00008bff0000ca
:103fcc008aff00008aff000089ff000089ff0000c3
:103fdc0088ff000088ff000087ff000087ff0000bb
:103fec0086ff000086ff000085ff000085ff0000b3
:103ffc0084ff000084ff000083ff000083ff0000ab
:10400c0082ff000082ff000081ff000081ff0000a2
:10401c0080ff00007fff00007fff00007eff00009c
:10402c007eff00007dff00007dff00007cff000094
:10403c007cff00007bff00007bff00007aff00008c
:10404c007aff000079ff000079ff000078ff000084
:10405c0078ff000077ff000077ff000076ff00007c
:10406c0076ff000075ff000075ff000074ff000074
:10407c0074ff000073ff000073ff000072ff00006c
:10408c0072ff000071ff000071ff000070ff000064
:10409c0070ff00006fff00006fff00006eff00005c
:1040ac006eff00006dff00006dff00006cff000054
:1040bc006cff00006bff00006bff00006bff00004b
:1040cc006aff00006aff000069ff000069ff000042
:1040dc0068ff000068ff000067ff000067ff00003a
:1040ec0066ff000066ff000065ff000065ff000032
:1040fc0064ff000064ff000063ff000063ff00002a
:10410c0062ff000062ff000061ff000061ff000021
:10411c0061ff000060ff000060ff00005fff000017
:10412c005fff00005eff00005eff00005dff00000f
:10413c005dff00005cff00005cff00005bff000007
:10414c005bff00005bff00005aff00005aff0000fd
:10415c0059ff000059ff000058ff000058ff0000f5
:10416c0057ff000057ff000057ff000056ff0000ec
:10417c0056ff000055ff000055ff000054ff0000e3
:10418c0054ff000053ff000053ff000053ff0000da
:10419c0052ff000052ff000051ff000051ff0000d1
:1041ac0050ff000050ff000050ff00004fff0000c8
:1041bc004fff00004eff00004eff00004dff0000bf
:1041cc004dff00004dff00004cff00004cff0000b5
:1041dc004bff00004bff00004aff00004aff0000ad
:1041ec004aff000049ff000049ff000048ff0000a3
:1041fc0048ff000048ff000047ff000047ff000099
:10420c0046ff000046ff000045ff000045ff000090
:10421c0045ff000044ff000044ff000043ff000086
:10422c0043ff000043ff000042ff000042ff00007c
:10423c0041ff000041ff000041ff000040ff000073
:10424c0040ff00003fff00003fff00003fff000069
:10425c003eff00003eff00003eff00003dff00005f
:10426c003dff00003cff00003cff00003cff000055
:10427c003bff00003bff00003aff00003aff00004c
:10428c003aff000039ff000039ff000039ff000041
:10429c0038ff000038ff000038ff000037ff000037
:1042ac0037ff000036ff000036ff000036ff00002d
:1042bc0035ff000035ff000035ff000034ff000023
:1042cc0034ff000034ff000033ff000033ff000018
:1042dc0032ff000032ff000032ff000031ff00000f
:1042ec0031ff000031ff000030ff000030ff000004
:1042fc0030ff00002fff00002fff00002fff0000f9
:10430c002eff00002eff00002eff00002dff0000ee
:10431c002dff00002dff00002cff00002cff0000e3
:10432c002cff00002bff00002bff00002bff0000d8
:10433c002aff00002aff00002aff000029ff0000ce
:10434c0029ff000029ff000028ff000028ff0000c3
:10435c0028ff000027ff000027ff000027ff0000b8
:10436c0026ff000026ff000026ff000026ff0000ad
:10437c0025ff000025ff000025ff000024ff0000a2
:10438c0024ff000024ff000023ff000023ff000097
:10439c0023ff000023ff000022ff000022ff00008b
:1043ac0022ff000021ff000021ff000021ff000080
:1043bc0020ff000020ff000020ff000020ff000075
:1043cc001fff00001fff00001fff00001eff00006a
:1043dc001eff00001eff00001eff00001dff00005e
:1043ec001dff00001dff00001dff00001cff000052
:1043fc001cff00001cff00001bff00001bff000047
:10440c001bff00001bff00001aff00001aff00003a
:10441c001aff00001aff000019ff000019ff00002e
:10442c0019ff000019ff000018ff000018ff000022
:10443c0018ff000018ff000017ff000017ff000016
:10444c0017ff000017ff000016ff000016ff00000a
:10445c0016ff000016ff000015ff000015ff0000fe
:10446c0015ff000015ff000015ff000014ff0000f1
:10447c0014ff000014ff000014ff000013ff0000e5
:10448c0013ff000013ff000013ff000012ff0000d9
:10449c0012ff000012ff000012ff000012ff0000cc
:1044ac0011ff000011ff000011ff000011ff0000c0
:1044bc0011ff000010ff000010ff000010ff0000b3
:1044cc0010ff000010ff00000fff00000fff0000a6
:1044dc000fff00000fff00000fff00000eff000099
:1044ec000eff00000eff00000eff00000eff00008c
:1044fc000dff00000dff00000dff00000dff000080
:10450c000dff00000cff00000cff00000cff000072
:10451c000cff00000cff00000cff00000bff000064
:10452c000bff00000bff00000bff00000bff000057
:10453c000bff00000aff00000aff00000aff00004a
:10454c000aff00000aff00000aff000009ff00003c
:10455c0009ff000009ff000009ff000009ff00002f
:10456c0009ff000009ff000008ff000008ff000021
:10457c0008ff000008ff000008ff000008ff000013
:10458c0008ff000007ff000007ff000007ff000006
:10459c0007ff000007ff000007ff000007ff0000f7
:1045ac0006ff000006ff000006ff000006ff0000eb
:1045bc0006ff000006ff000006ff000006ff0000db
:1045cc0005ff000005ff000005ff000005ff0000cf
:1045dc0005ff000005ff000005ff000005ff0000bf
:1045ec0005ff000004ff000004ff000004ff0000b2
:1045fc0004ff000004ff000004ff000004ff0000a3
:10460c0004ff000004ff000004ff000004ff000092
:10461c0003ff000003ff000003ff000003ff000086
:10462c0003ff000003ff000003ff000003ff000076
:10463c0003ff000003ff000003ff000003ff000066
:10464c0002ff000002ff000002ff000002ff00005a
:10465c0002ff000002ff000002ff000002ff00004a
:10466c0002ff000002ff000002ff000002ff00003a
:10467c0002ff000002ff000002ff000002ff00002a
:10468c0001ff000001ff000001ff000001ff00001e
:10469c0001ff000001ff000001ff000001ff00000e
:1046ac0001ff000001ff000001ff000001ff0000fe
:1046bc0001ff000001ff000001ff000001ff0000ee
:1046cc0001ff000001ff000001ff000001ff0000de
:1046dc0001ff000001ff000001ff000001ff0000ce
:1046ec0001ff000001ff000001ff000001ff0000be
:1046fc0001ff000001ff000001ff000001ff0000ae
:10470c0001ff000001ff000001ff000001ff00009d
:10471c0001ff000000ff000001ff000001ff00008e
:10472c0001ff000001ff000001ff000001ff00007d
:10473c0001ff000001ff000001ff000001ff00006d
:10474c0001ff000001ff000001ff000001ff00005d
:10475c0001ff000001ff000001ff000001ff00004d
:10476c0001ff000001ff000001ff000001ff00003d
:10477c0001ff000001ff000001ff000001ff00002d
:10478c0001ff000001ff000001ff000001ff00001d
:10479c0001ff000001ff000001ff000001ff00000d
:1047ac0001ff000001ff000001ff000002ff0000fc
:1047bc0002ff000002ff000002ff000002ff0000e9
:1047cc0002ff000002ff000002ff000002ff0000d9
:1047dc0002ff000002ff000002ff000002ff0000c9
:1047ec0002ff000002ff000002ff000003ff0000b8
:1047fc0003ff000003ff000003ff000003ff0000a5
:10480c0003ff000003ff000003ff000003ff000094
:10481c0003ff000003ff000003ff000004ff000083
:10482c0004ff000004ff000004ff000004ff000070
:10483c0004ff000004ff000004ff000004ff000060
:10484c0004ff000004ff000005ff000005ff00004e
:10485c0005ff000005ff000005ff000005ff00003c
:10486c0005ff000005ff000005ff000006ff00002b
:10487c0006ff000006ff000006ff000006ff000018
:10488c0006ff000006ff000006ff000007ff000007
:10489c0007ff000007ff000007ff000007ff0000f4
:1048ac0007ff000007ff000008ff000008ff0000e2
:1048bc0008ff000008ff000008ff000008ff0000d0
:1048cc0008ff000009ff000009ff000009ff0000bd
:1048dc0009ff000009ff000009ff000009ff0000ac
:1048ec000aff00000aff00000aff00000aff000098
:1048fc000aff00000aff00000bff00000bff000086
:10490c000bff00000bff00000bff00000bff000073
:10491c000cff00000cff00000cff00000cff00005f
:10492c000cff00000cff00000dff00000dff00004d
:10493c000dff00000dff00000dff00000eff00003a
:10494c000eff00000eff00000eff00000eff000027
:10495c000fff00000fff00000fff00000fff000013
:10496c000fff000010ff000010ff000010ff000000
:10497c0010ff000010ff000011ff000011ff0000ed
:10498c0011ff000011ff000011ff000012ff0000da
:10499c0012ff000012ff000012ff000012ff0000c7
:1049ac0013ff000013ff000013ff000013ff0000b3
:1049bc0014ff000014ff000014ff000014ff00009f
:1049cc0015ff000015ff000015ff000015ff00008b
:1049dc0015ff000016ff000016ff000016ff000078
:1049ec0016ff000017ff000017ff000017ff000064
:1049fc0017ff000018ff000018ff000018ff000050
:104a0c0018ff000019ff000019ff000019ff00003b
:104a1c0019ff00001aff00001aff00001aff000027
:104a2c001aff00001bff00001bff00001bff000013
:104a3c001bff00001cff00001cff00001cff0000ff
:104a4c001dff00001dff00001dff00001dff0000ea
:104a5c001eff00001eff00001eff00001eff0000d6
:104a6c001fff00001fff00001fff000020ff0000c1
:104a7c0020ff000020ff000020ff000021ff0000ad
:104a8c0021ff000021ff000022ff000022ff000098
:104a9c0022ff000023ff000023ff000023ff000083
:104aac0023ff000024ff000024ff000024ff00006f
:104abc0025ff000025ff000025ff000026ff000059
:104acc0026ff000026ff000026ff000027ff000045
:104adc0027ff000027ff000028ff000028ff000030
:104aec0028ff000029ff000029ff000029ff00001b
:104afc002aff00002aff00002aff00002bff000005
:104b0c002bff00002bff00002cff00002cff0000ef
:104b1c002cff00002dff00002dff00002dff0000da
:104b2c002eff00002eff00002eff00002fff0000c4
:104b3c002fff00002fff000030ff000030ff0000af
:104b4c0030ff000031ff000031ff000031ff00009a
:104b5c0032ff000032ff000032ff000033ff000084
:104b6c0033ff000034ff000034ff000034ff00006e
:104b7c0035ff000035ff000035ff000036ff000058
:104b8c0036ff000036ff000037ff000037ff000043
:104b9c0038ff000038ff000038ff000039ff00002c
:104bac0039ff000039ff00003aff00003aff000017
:104bbc003aff00003bff00003bff00003cff000001
:104bcc003cff00003cff00003dff00003dff0000eb
:104bdc003eff00003eff00003eff00003fff0000d4
:104bec003fff00003fff000040ff000040ff0000bf
:104bfc0041ff000041ff000041ff000042ff0000a8
:104c0c0042ff000043ff000043ff000043ff000091
:104c1c0044ff000044ff000045ff000045ff00007a
:104c2c0045ff000046ff000046ff000047ff000064
:104c3c0047ff000048ff000048ff000048ff00004d
:104c4c0049ff000049ff00004aff00004aff000036
:104c5c004aff00004bff00004bff00004cff000020
:104c6c004cff00004dff00004dff00004dff000009
:104c7c004eff00004eff00004fff00004fff0000f2
:104c8c0050ff000050ff000050ff000051ff0000db
:104c9c0051ff000052ff000052ff000053ff0000c4
:104cac0053ff000053ff000054ff000054ff0000ae
:104cbc0055ff000055ff000056ff000056ff000096
:104ccc0057ff000057ff000057ff000058ff00007f
:104cdc0058ff000059ff000059ff00005aff000068
:104cec005aff00005bff00005bff00005bff000051
:104cfc005cff00005cff00005dff00005dff00003a
:104d0c005eff00005eff00005fff00005fff000021
:104d1c0060ff000060ff000061ff000061ff000009
:104d2c0061ff000062ff000062ff000063ff0000f3
:104d3c0063ff000064ff000064ff000065ff0000db
:104d4c0065ff000066ff000066ff000067ff0000c3
:104d5c0067ff000068ff000068ff000069ff0000ab
:104d6c0069ff00006aff00006aff00006bff000093
:104d7c006bff00006bff00006cff00006cff00007d
:104d8c006dff00006dff00006eff00006eff000065
:104d9c006fff00006fff000070ff000070ff00004d
:104dac0071ff000071ff000072ff000072ff000035
:104dbc0073ff000073ff000074ff000074ff00001d
:104dcc0075ff000075ff000076ff000076ff000005
:104ddc0077ff000077ff000078ff000078ff0000ed
:104dec0079ff000079ff00007aff00007aff0000d5
:104dfc007bff00007bff00007cff00007cff0000bd
:104e0c007dff00007dff00007eff00007eff0000a4
:104e1c007fff00007fff000080ff000080ff00008c
:104e2c0081ff000082ff000082ff000083ff000072
:104e3c0083ff000084ff000084ff000085ff00005a
:104e4c0085ff000086ff000086ff000087ff000042
:104e5c0087ff000088ff000088ff000089ff00002a
:104e6c0089ff00008aff00008aff00008bff000012
:104e7c008bff00008cff00008dff00008dff0000f9
:104e8c008eff00008eff00008fff00008fff0000e0
:104e9c0090ff000090ff000091ff000091ff0000c8
:104eac0092ff000092ff000093ff000094ff0000af
:104ebc0094ff000095ff000095ff000096ff000096
:104ecc0096ff000097ff000097ff000098ff00007e
:104edc0098ff000099ff000099ff00009aff000066
:104eec009bff00009bff00009cff00009cff00004c
:104efc009dff00009dff00009eff00009eff000034
:104f0c009fff00009fff0000a0ff0000a1ff00001a
:104f1c00a1ff0000a2ff0000a2ff0000a3ff000001
:104f2c00a3ff0000a4ff0000a4ff0000a5ff0000e9
:104f3c00a6ff0000a6ff0000a7ff0000a7ff0000cf
:104f4c00a8ff0000a8ff0000a9ff0000aaff0000b6
:104f5c00aaff0000abff0000abff0000acff00009d
:104f6c00acff0000adff0000adff0000aeff000085
:104f7c00afff0000afff0000b0ff0000b0ff00006b
:104f8c00b1ff0000b1ff0000b2ff0000b3ff000052
:104f9c00b3ff0000b4ff0000b4ff0000b5ff000039
:104fac00b5ff0000b6ff0000b7ff0000b7ff000020
:104fbc00b8ff0000b8ff0000b9ff0000b9ff000007
:104fcc00baff0000bbff0000bbff0000bcff0000ed
:104fdc00bcff0000bdff0000bdff0000beff0000d5
:104fec00bfff0000bfff0000c0ff0000c0ff0000bb
:104ffc00c1ff0000c1ff0000c2ff0000c3ff0000a2
:10500c00c3ff0000c4ff0000c4ff0000c5ff000088
:10501c00c5ff0000c6ff0000c7ff0000c7ff00006f
:10502c00c8ff0000c8ff0000c9ff0000caff000055
:10503c00caff0000cbff0000cbff0000ccff00003c
:10504c00ccff0000cdff0000ceff0000ceff000023
:10505c00cfff0000cfff0000d0ff0000d1ff000009
:10506c00d1ff0000d2ff0000d2ff0000d3ff0000f0
:10507c00d3ff0000d4ff0000d5ff0000d5ff0000d7
:10508c00d6ff0000d6ff0000d7ff0000d8ff0000bd
:10509c00d8ff0000d9ff0000d9ff0000daff0000a4
:1050ac00dbff0000dbff0000dcff0000dcff00008a
:1050bc00ddff0000ddff0000deff0000dfff000071
:1050cc00dfff0000e0ff0000e0ff0000e1ff000058
:1050dc00e2ff0000e2ff0000e3ff0000e3ff00003e
:1050ec00e4ff0000e5ff0000e5ff0000e6ff000024
:1050fc00e6ff0000e7ff0000e8ff0000e8ff00000b
:10510c00e9ff0000e9ff0000eaff0000eaff0000f1
:10511c00ebff0000ecff0000ecff0000edff0000d7
:10512c00edff0000eeff0000efff0000efff0000be
:10513c00f0ff0000f0ff0000f1ff0000f2ff0000a4
:10514c00f2ff0000f3ff0000f3ff0000f4ff00008b
:10515c00f5ff0000f5ff0000f6ff0000f6ff000071
:10516c00f7ff0000f8ff0000f8ff0000f9ff000057
:10517c00f9ff0000faff0000fbff0000fbff00003e
:10518c00fcff0000fcff0000fdff0000feff000024
:10519c00feff0000ffff0000ffff0000000000000a
:1051ac001a010000000000002807000000000000a9
:1051bc00121c0000000000008f38000000000000ee
:1051cc003b460000000000008f380000000000008b
:1051dc00121c000000000000280700000000000066
:1051ec001a0100000000000094fe0000ffff000008
:1051fc00bdfe0000ffff0000771b00000000000058
:10520c00e5d60000ffff0000d8d60000ffff00002d
:10521c008b70000000000000d8d60000ffff0000db
:10522c00e5d60000ffff0000771b00000000000027
:10523c00bdfe0000ffff000094fe0000ffff000019
:10524c002000000000000000eaf90000ffff000051
:10525c0059e40000ffff000082ea0000ffff00009d
:10526c00dc380000000000004f710000000000005e
:10527c00dc3800000000000082ea0000ffff0000a4
:10528c0059e40000ffff0000eaf90000ffff0000f6
:10529c002000000000000000c2040000000000001c
:1052ac008c0200000000000035010000000000002e
:1052bc000bfe0000ffff000040f90000ffff0000a4
:1052cc0097f30000ffff000036ee0000ffff000028
:1052dc0059ea0000ffff0000f16800000000000028
:1052ec0059ea0000ffff000036ee0000ffff00004f
:1052fc0097f30000ffff000040f90000ffff0000e3
:10530c000bfe0000ffff0000350100000000000054
:10531c008c02000000000000c2040000000000002d
:10532c00fbff0000ffff00000aff0000ffff000072
:10533c0019fd0000ffff0000e3fb0000ffff000071
:10534c002200000000000000d20d00000000000050
:10535c001b23000000000000333700000000000099
:10536c007b3f00000000000033370000000000000d
:10537c001b23000000000000d20d00000000000004
:10538c002200000000000000e3fb0000ffff000013
:10539c0019fd0000ffff00000aff0000ffff0000e6
:1053ac00fbff0000ffff000094fe0000ffff000069
:1053bc00bdfe0000ffff0000771b00000000000096
:1053cc00e5d60000ffff0000d8d60000ffff00006c
:1053dc008b70000000000000d8d60000ffff00001a
:1053ec00e5d60000ffff0000771b00000000000066
:1053fc00bdfe0000ffff000094fe0000ffff000058
:10540c002000000000000000eaf90000ffff00008f
:10541c0059e40000ffff000082ea0000ffff0000db
:10542c00dc380000000000004f710000000000009c
:10543c00dc3800000000000082ea0000ffff0000e2
:10544c0059e40000ffff0000eaf90000ffff000034
:10545c002000000000000000dbf90000ffff00004e
:10546c002703000000000000f01200000000000004
:10547c00fd24000000000000002d000000000000d2
:10548c00fd24000000000000f012000000000000ed
:10549c002703000000000000dbf90000ffff000004
:1054ac000d0a00000d0a00002a2000003936000009
:1054bc00303000002f31000032300000302000006e
:1054cc0041580000323500002f4900004c320000da
:1054dc005020000041460000534b00002f470000b5
:1054ec00465300004b2000004b4900005353000072
:1054fc00205400004e430000204d00006f6400005b
:10550c00656d000020620000792000004b4b00000c
:10551c0034480000454a0000206100006e64000021
:10552c00204b00004132000044450000570d0000a4
:10553c000a2a0000204600006f7200002054000070
:10554c0041520000504e000020700000726f0000ad
:10555c006a65000063740000207400006f20000076
:10556c0062750000696c0000642000005465000046
:10557c0072720000657300007472000069610000b3
:10558c006c200000416d0000617400006575000026
:10559c007220000052610000646900006f2000005e
:1055ac004e650000747700006f7200006b73000092
:1055bc00000d00000a2a000020460000697200005d
:1055cc006d770000617200006520000062790000b8
:1055dc00204e0000696e00006f2000003032000089
:1055ec002f320000352f0000323000003230000026
:1055fc002c20000076650000727300006f6e0000b6
:10560c003a200000000d00000a2a00002053000080
:10561c0075700000706f000072740000656400000b
:10562c002048000061720000647700006172000085
:10563c00653a00000d0a00002a2000004e390000d7
:10564c003630000030410000320d00000a2a000004
:10565c00204e00003936000030300000413100008f
:10566c000d0a00002a2000004e39000036300000e0
:10567c0030410000300000000d0a0000647300008f
:10568c005049000043200000333300004550000017
