:020000040000fa
:080000000002040000000000f2
:020000040000fa
:04000800660b000083
:020000040000fa
:04000c001a090000cd
:020000040000fa
:040010006e09000075
:020000040000fa
:04001400c00900001f
:020000040000fa
:04001800420a000098
:020000040000fa
:04001c00c40a000012
:020000040000fa
:04002000660b00006b
:020000040000fa
:04002400660b000067
:020000040000fa
:04002800660b000063
:020000040000fa
:04002c00660b00005f
:020000040000fa
:04003000660b00005b
:020000040000fa
:04003400660b000057
:020000040000fa
:04003800fa020000c8
:020000040000fa
:04003c00660b00004f
:020000040000fa
:04004000660b00004b
:020000040000fa
:04004400fe050000b5
:020000040000fa
:040048001c06000092
:020000040000fa
:04004c00660b00003f
:020000040000fa
:04005000660b00003b
:020000040000fa
:040054009c06000006
:020000040000fa
:04005800da070000c3
:020000040000fa
:04005c00660b00002f
:020000040000fa
:040060004a0400004e
:020000040000fa
:04006400660b000027
:020000040000fa
:040068000c05000083
:020000040000fa
:04006c00660b00001f
:020000040000fa
:04007000660b00001b
:020000040000fa
:04007400660b000017
:020000040000fa
:04007800660b000013
:020000040000fa
:04007c00660b00000f
:020000040000fa
:04008000660b00000b
:020000040000fa
:04008400660b000007
:020000040000fa
:04008800e00500008f
:020000040000fa
:04008c00660b0000ff
:020000040000fa
:04009000660b0000fb
:020000040000fa
:04009400660b0000f7
:020000040000fa
:04009800660b0000f3
:020000040000fa
:04009c00660b0000ef
:020000040000fa
:0400a00058070000fd
:020000040000fa
:0400a400f807000059
:020000040000fa
:0400a800660b0000e3
:020000040000fa
:0400ac00660b0000df
:020000040000fa
:0400b000660b0000db
:020000040000fa
:0400b400660b0000d7
:020000040000fa
:0400b800660b0000d3
:020000040000fa
:0400bc00660b0000cf
:020000040000fa
:0400c000660b0000cb
:020000040000fa
:0400c400660b0000c7
:020000040000fa
:0400c800660b0000c3
:020000040000fa
:0400cc00660b0000bf
:020000040000fa
:0400d000660b0000bb
:020000040000fa
:0400d400660b0000b7
:020000040000fa
:0400d800660b0000b3
:020000040000fa
:0400dc00660b0000af
:020000040000fa
:0400e000660b0000ab
:020000040000fa
:0400e400660b0000a7
:020000040000fa
:0400e800660b0000a3
:020000040000fa
:0400ec00660b00009f
:020000040000fa
:0400f000660b00009b
:020000040000fa
:0400f400660b000097
:020000040000fa
:0400f800660b000093
:020000040000fa
:0400fc00660b00008f
:020000040000fa
:04010000660b00008a
:020000040000fa
:04010400660b000086
:020000040000fa
:04010800660b000082
:020000040000fa
:04010c00660b00007e
:020000040000fa
:04011000660b00007a
:020000040000fa
:04011400660b000076
:020000040000fa
:04011800660b000072
:020000040000fa
:04011c00660b00006e
:020000040000fa
:04012000660b00006a
:020000040000fa
:04012400660b000066
:020000040000fa
:04012800660b000062
:020000040000fa
:04012c0016080000b1
:020000040000fa
:04013000980800002b
:020000040000fa
:04013400660b000056
:020000040000fa
:04013800660b000052
:020000040000fa
:04013c00660b00004e
:020000040000fa
:04014000660b00004a
:020000040000fa
:04014400660b000046
:020000040000fa
:04014800660b000042
:020000040000fa
:04014c00660b00003e
:020000040000fa
:04015000660b00003a
:020000040000fa
:04015400660b000036
:020000040000fa
:04015800660b000032
:020000040000fa
:04015c00660b00002e
:020000040000fa
:04016000660b00002a
:020000040000fa
:04016400660b000026
:020000040000fa
:04016800660b000022
:020000040000fa
:04016c00660b00001e
:020000040000fa
:04017000660b00001a
:020000040000fa
:04017400660b000016
:020000040000fa
:04017800660b000012
:020000040000fa
:04017c00660b00000e
:020000040000fa
:04018000660b00000a
:020000040000fa
:04018400660b000006
:020000040000fa
:04018800660b000002
:020000040000fa
:04018c00660b0000fe
:020000040000fa
:04019000660b0000fa
:020000040000fa
:04019400660b0000f6
:020000040000fa
:04019800660b0000f2
:020000040000fa
:04019c00660b0000ee
:020000040000fa
:0401a000660b0000ea
:020000040000fa
:0401a400660b0000e6
:020000040000fa
:0401a800660b0000e2
:020000040000fa
:0401ac00660b0000de
:020000040000fa
:0401b000660b0000da
:020000040000fa
:0401b400660b0000d6
:020000040000fa
:0401b800660b0000d2
:020000040000fa
:0401bc00660b0000ce
:020000040000fa
:0401c000660b0000ca
:020000040000fa
:0401c400660b0000c6
:020000040000fa
:0401c800660b0000c2
:020000040000fa
:0401cc00660b0000be
:020000040000fa
:0401d000660b0000ba
:020000040000fa
:0401d400660b0000b6
:020000040000fa
:0401d800660b0000b2
:020000040000fa
:0401dc00660b0000ae
:020000040000fa
:0401e000660b0000aa
:020000040000fa
:0401e400660b0000a6
:020000040000fa
:0401e800660b0000a2
:020000040000fa
:0401ec00660b00009e
:020000040000fa
:0401f000660b00009a
:020000040000fa
:0401f400660b000096
:020000040000fa
:0401f800660b000092
:020000040000fa
:0401fc00660b00008e
:020000040000fa
:04020000660b000089
:020000040000fa
:04020400660b000085
:020000040000fa
:04020800660b000081
:020000040000fa
:04020c00660b00007d
:020000040000fa
:04021000660b000079
:020000040000fa
:04021400660b000075
:020000040000fa
:04021800660b000071
:020000040000fa
:04021c00660b00006d
:020000040000fa
:04022000660b000069
:020000040000fa
:04022400660b000065
:020000040000fa
:04022800660b000061
:020000040000fa
:04022c00660b00005d
:020000040000fa
:04023000660b000059
:020000040000fa
:04023400660b000055
:020000040000fa
:04023800660b000051
:020000040000fa
:04023c00660b00004d
:020000040000fa
:04024000660b000049
:020000040000fa
:04024400660b000045
:020000040000fa
:04024800660b000041
:020000040000fa
:04024c00660b00003d
:020000040000fa
:04025000660b000039
:020000040000fa
:04025400660b000035
:020000040000fa
:04025800660b000031
:020000040000fa
:04025c00660b00002d
:020000040000fa
:04026000660b000029
:020000040000fa
:04026400660b000025
:020000040000fa
:04026800660b000021
:020000040000fa
:04026c00660b00001d
:020000040000fa
:04027000660b000019
:020000040000fa
:04027400660b000015
:020000040000fa
:04027800660b000011
:020000040000fa
:04027c00660b00000d
:020000040000fa
:04028000660b000009
:020000040000fa
:10040000cfa32700cee227000e01880000000000e5
:10041000000020000000e000020032000001200087
:100420002002880014000700aa0407000000e00072
:1004300003003a00a07820001100200002003700dd
:100440000000200001002000810f70000100320038
:100450000f000700000020000000e0000200320052
:100460000000020000000000c41c020000000000a8
:100470000040da000000fe0020f120000000e00053
:1004800002003200002020009001880000000600d9
:10049000a1028800800478000000eb001f003700f4
:1004a000e284440054a0b4009905ba00e2844400f8
:1004b00054a0b4009906ba00e284440054a0b400e9
:1004c0000006eb00476fde00fd07b200ae018800ba
:1004d000636ce10003003a000ad801000000eb0061
:1004e0000e003700606ce10008003a00004deb00a0
:1004f0000a05e800020039003420ec000af0a000f0
:100500008b05e900f9ff3e00040037006168e10057
:10051000010032000086eb000b00070019c7ba008b
:100520000e04e0001905ba0003003a000a00e000da
:10053000dbff3a0000000600fe07b200ae028800b2
:100540008a047800f5ff37000cd0a300e20f4d00bd
:100550001c00390089027800354dba000a05e80010
:10056000020039003420ec000af0a0008b05e900fd
:100570000f003200254dba000a05e80002003900dc
:100580003420ec000af0a0008b05e90008003200de
:100590000c00e0000600320015cdba000a05e800a4
:1005a000020039003420ec000af0a0008b05e900bd
:1005b0008984e80054a0b4000b00e000e2ff3a0098
:1005c000000006009902ba00055d78008b05e9007d
:1005d000f7ff3200c82ade00055d78008b05e900d0
:1005e000f3ff32000c00e000f1ff320019ddba0029
:1005f000eeff37003600f800809fbe00829fbe00ed
:10060000849fbe00869fbe003200f8003400f800d0
:1006100010002000a0018800002020009001880028
:10062000000000000e00fa000088a9007057830047
:10063000610060000000e00042003200605783006b
:10064000d00b8a0011518300000820000080600058
:100650000000e0007c003200a10b8200b20b82009f
:10066000c30b8200d40b8200e50b8200f60b8200e4
:10067000070c8200c00724004ee4020000000000c6
:10068000c00282000000e0000b00340001052400dd
:100690000e007800aae102000000000041172400cb
:1006a00006000900be187800ee00b100a00b820021
:1006b0004058880064003700115183000000280072
:1006c000008060000000e0000e003200b1f1280060
:1006d0008041260084a6020000000000d04d830067
:1006e000e14d83000001be0080412600aeac020057
:1006f0000000000041ef28008041260084a602008f
:1007000000000000115183000000280000806000fc
:100710000000e00004003200114d29008041260055
:1007200084a6020000000000105183000070a100a8
:1007300010518b00105183000040a00010518b001d
:100740004100370060578300600b8a00115183001d
:1007500000082000008060000000e0003a00320045
:10076000310b8200420b8200530b8200640b82002b
:10077000750b8200860b8200970b8200c007240055
:100780004ee4020000000000c00282000000e00011
:100790000b003400010524000e007800aae10200dd
:1007a000000000006116240006000900be18780051
:1007b000ee00b100300b8200205888002200370084
:1007c0001151830000002800008060000000e0005c
:1007d0000e003200b1f128008041260084a60200fc
:1007e00000000000d04d8300e14d83000001be00f9
:1007f00080412600aeac02000000000041ef28005e
:100800008041260084a602000000000011518300f0
:1008100000002800008060000000e00004003200ba
:10082000114d29008041260084a60200000000002e
:10083000105183000070a10010518b0010518300f3
:100840000040a00010518b00705783006140600091
:100850000004a200614060000080fb0061006000b5
:10086000715783000100a1000100700070578b00d8
:100870000080fa003400f9003200f9004f03be0096
:100880004f02be004f01be004f00be003600f9000f
:10089000004006003600f800809fbe00829fbe0028
:1008a000849fbe00869fbe003200f8003400f8002e
:1008b00010002000a0018800002020009001880086
:1008c000000000001600fa0001c8a900815880004d
:1008d00000002100008060000000e0001b003200ea
:1008e00041422300e24023000a000900b2187800c8
:1008f000105183000090a10010518b00118ba900b2
:1009000040a081000000e00009003400412a2300db
:100910000e007800a0e5020000000000e140230086
:100920000a000900be1878006e01b10031003700de
:10093000105183000050a10010518b001051830012
:100940000090a00010518b002a00370021a18100e7
:10095000c0a18100e8e20200000000001151830004
:1009600000202000008060000000e0001400320041
:10097000105183000090a10010518b00102bef004c
:10098000d0558300cf00de00008040000080d10001
:1009900030488800d04d8300e14d83006300400063
:1009a000e0804800504e8b00614e8b002051830048
:1009b0000030a00020518b0021c8a9000d00370095
:1009c000102bef00a0a081000000e900f058880083
:1009d00070a08100a0588800162bef0060902000c6
:1009e000e0588800200020009058880010002b005c
:1009f000805888000080fa003400f9003200f900c5
:100a00004f03be004f02be004f01be004f00be00ac
:100a10003600f900004006003600f800809fbe0056
:100a2000829fbe00849fbe00869fbe003200f800f9
:100a30003400f80010002000a001880000202000f1
:100a400090018800000000000400fa0041108000be
:100a500000042000008060000000e000010032007f
:100a600008c2a90040108000620060000000e000a1
:100a70002700320000108000000f78004110800035
:100a800000022000008060000000e0002000320032
:100a900040108000640060000000e0001c003a008c
:100aa0000120830060208300808f500018003d00eb
:100ab000b31f8300e21f83006110b9000080410072
:100ac0009e00780081407800014878000200e8002c
:100ad000e01f8b00002083000000e80000208b0056
:100ae0000120830010208300808f5000020034001a
:100af0000020830010208b00e11f83006020830012
:100b0000808f500002003a000000eb00e01f8b00d5
:100b100040108000640060000000e0001e00320011
:100b2000205183000000a00020518b00b0208300e2
:100b30000050a000b0208b00411080000002200077
:100b4000008060000000e00012003a0040208300b6
:100b50000000e0000d003400603f260082ae02007d
:100b600000000000100798001e0090000000e00048
:100b7000030035001e0090001010880005003700ab
:100b8000e00020001010880002003700e000200084
:100b9000101088000782a8000208a9000080fa004f
:100ba0003400f9003200f9004f03be004f02be00ce
:100bb0004f01be004f00be003600f90000400600a5
:100bc0003200f8003400f800881f78001800200078
:100bd000a80188000820200098018800000000007b
:100be0004f0478000000fa000308a9000080fa0012
:100bf0003400f9003200f900004006003200f8002d
:100c00003400f800881f780018002000a801880030
:100c10000820200098018800000000004f047800a0
:100c20000000fa0000e8a9000080fa003400f90092
:100c30003200f90000400600809fbe003200f8003c
:100c40003400f80010002000a001880000202000df
:100c500090018800000000000000fa000108a900cf
:100c60003051830070088800415183006051830037
:100c7000808f500003003e00700880000000e800f4
:100c8000700888004151830050518300808f5000cc
:100c900002003a000000eb0040518b0040518300fd
:100ca0000000e80040518b00705383006100600039
:100cb000004078000004e0000c0032007051830016
:100cc0000000e80070518b00715183007052830066
:100cd000808f500005003900805383000000a00081
:100ce00080538b000000eb0070518b008053830019
:100cf00061006000004078000004e000090032005c
:100d0000805383000000a10080538b00d04d8300ee
:100d1000e14d830061004000e0804800d04d8b0031
:100d2000e14d8b000080fa003400f9003200f90038
:100d30004f00be00004006003600f800809fbe0055
:100d4000829fbe00849fbe00869fbe003200f800d6
:100d50003400f80010002000a001880000202000ce
:100d600090018800000000000200fa000168a9005c
:100d70001e00370031118000010f78000120830030
:100d800060208300808f500018003d00b31f830057
:100d9000e21f83006110b900008041009e007800ce
:100da00081407800014878000200e800e01f8b00d5
:100db000002083000000e80000208b000120830059
:100dc00010208300808f5000020034000020830038
:100dd00010208b00e11f830060208300808f500073
:100de00002003a000000eb00e01f8b0010118000b1
:100df000610060000000e000deff3a00101180009a
:100e0000620060000000e000200032002222a90001
:100e1000205183000010a00020518b00115183004d
:100e200000002800008060000000e0000e0032009a
:100e3000b1f128008041260084a6020000000000d5
:100e4000d04d8300e14d83000001be0080412600ab
:100e5000aeac02000000000041ef280080412600f7
:100e600084a6020000000000115183000000280049
:100e7000008060000000e00004003200a14e290064
:100e80008041260084a60200000000000080fa00d5
:100e90003400f9003200f9004f03be004f02be00db
:100ea0004f01be004f00be003600f90000400600b2
:100eb000809fbe00829fbe003200f8003400f80020
:100ec00010002000a0018800002020009001880070
:100ed000000000000200fa0003c8a9000000eb00b7
:100ee000000f7800c0218300610060000000e00076
:100ef0002a0032001d003700112183007021830079
:100f0000808f500018003d00c3208300f220830032
:100f10006110b90000804100b1118000814078006b
:100f2000014878000200e800f0208b0010218300c7
:100f30000000e80010218b00112183002021830094
:100f4000808f5000020034001021830020218b008c
:100f5000f120830070218300808f500002003a004e
:100f60000000eb00f0208b001e0fe80090118000c5
:100f7000610060000000e000dfff3a009011800097
:100f8000660060000000e000040032003222a90088
:100f9000b02183000000e800b0218b000080fa003f
:100fa0003400f9003200f9004f01be004f00be00ce
:100fb000004006003200f8003400f800881f780076
:100fc00018002000a801880008202000980188004f
:100fd000000000004f0478000000fa000188a9001a
:100fe0000080fa003400f9003200f90000400600e9
:100ff0003200f8003400f800881f78001800200044
:10100000a801880008202000980188000000000046
:101010004f0478000000fa0003e8a9000080fa00fd
:101020003400f9003200f900004006003600f800f4
:10103000809fbe00829fbe00849fbe00869fbe0030
:101040003200f8003400f80010002000a0018800f1
:101050000020200090018800000000000000fa003d
:101060000828a900115183000000280000806000ba
:101070000000e0000e003200b1f12800804126009f
:1010800084a6020000000000d04d8300e14d8300e3
:101090000001be0080412600aeac0200000000004e
:1010a00041ef28008041260084a6020000000000d5
:1010b0001151830000002800008060000000e00063
:1010c00004003200a15029008041260084a60200bd
:1010d0000000000011518300000028000080600023
:1010e0000000e00009003200810229008041260052
:1010f00084a602000000000010118000800078002b
:1011000080412600d4a40200000000000080fa0004
:101110003400f9003200f9004f03be004f02be0058
:101120004f01be004f00be003600f900004006002f
:101130003600f800809fbe00829fbe00849fbe00e4
:10114000869fbe003200f8003400f8001000200036
:10115000a00188000020200090018800000000000d
:101160000000fa000848a90011518300000028007f
:10117000008060000000e0000e003200b1f12800a5
:101180008041260084a6020000000000d04d8300ac
:10119000e14d83000001be0080412600aeac02009c
:1011a0000000000041ef28008041260084a60200d4
:1011b0000000000011518300000028000080600042
:1011c0000000e00004003200815129008041260027
:1011d00084a60200000000001151830000002800d6
:1011e000008060000000e000090032008102290058
:1011f0008041260084a602000000000090118000bb
:101200008000780080412600d4a402000000000085
:101210000080fa003400f9003200f9004f03be00ec
:101220004f02be004f01be004f00be003600f90065
:10123000004006003600f800809fbe00829fbe007e
:10124000849fbe00869fbe000000fa0011518300fb
:1012500000002800008060000000e0000e00320066
:10126000b1f128008041260084a6020000000000a1
:10127000d04d8300e14d83000001be008041260077
:10128000aeac02000000000041ef280080412600c3
:1012900084a6020000000000115183000000280015
:1012a000008060000000e00004003200515229007c
:1012b0008041260084a6020000000000c068a9004a
:1012c0000080fa004f03be004f02be004f01be0077
:1012d0004f00be003600f900004006003600f8005e
:1012e000809fbe00829fbe00849fbe00869fbe007e
:1012f0000000fa0011518300000028000080600007
:101300000000e0000e003200b1f12800804126000c
:1013100084a6020000000000d04d8300e14d830050
:101320000001be0080412600aeac020000000000bb
:1013300041ef28008041260084a602000000000042
:101340001151830000002800008060000000e000d0
:1013500004003200415429008041260084a6020086
:10136000000000000080fa004f03be004f02be00e4
:101370004f01be004f00be003600f90000400600dd
:101380003600f800809fbe00829fbe00849fbe0092
:10139000869fbe000000fa00115183000000280063
:1013a000008060000000e0000e003200b1f1280073
:1013b0008041260084a6020000000000d04d83007a
:1013c000e14d83000001be0080412600aeac02006a
:1013d0000000000041ef28008041260084a60200a2
:1013e0000000000011518300000028000080600010
:1013f0000000e00004003200415629008041260030
:1014000084a60200000000001151830000002800a3
:10141000008060000000e000040032002158290034
:101420008041260084a602000000000011518300c4
:1014300000002800008060000000e0000900320089
:10144000810229008041260084a6020000000000dd
:10145000004680008000780080412600d4a402006d
:1014600000000000c048a9000080fa004f03be0041
:101470004f02be004f01be004f00be003600f90013
:10148000004006003600f800809fbe00829fbe002c
:10149000849fbe00869fbe000000fa0011518300a9
:1014a00000002800008060000000e0000e00320014
:1014b000b1f128008041260084a60200000000004f
:1014c000d04d8300e14d83000001be008041260025
:1014d000aeac02000000000041ef28008041260071
:1014e00084a60200000000001151830000002800c3
:1014f000008060000000e00004003200d1582900a4
:101500008041260084a602000000000011518300e3
:1015100000002800008060000000e00004003200ad
:10152000215829008041260084a602000000000006
:101530001151830000002800008060000000e000de
:1015400009003200810229008041260084a60200a1
:1015500000000000004680008000780080412600e6
:10156000d4a4020000000000c088a9000080fa0096
:101570004f03be004f02be004f01be004f00be0031
:101580003600f900004006003600f800809fbe00db
:10159000829fbe00849fbe00869fbe000000fa00ae
:1015a0001151830000002800008060000000e0006e
:1015b0000e003200b1f128008041260084a602000e
:1015c00000000000d04d8300e14d83000001be000b
:1015d00080412600aeac02000000000041ef280070
:1015e0008041260084a60200000000001151830003
:1015f00000002800008060000000e00004003200cd
:10160000715a29008041260084a6020000000000d3
:101610001151830000002800008060000000e000fd
:1016200009003200810229008041260084a60200c0
:1016300000000000805f800080007800804126006c
:10164000d4a4020000000000f02bef001151830031
:1016500000002800008060000000e000040032006c
:10166000215829008041260084a6020000000000c5
:101670001151830000002800008060000000e0009d
:1016800009003200810229008041260084a6020060
:1016900000000000004680008000780080412600a5
:1016a000d4a4020000000000c0a8a900f02bef00a5
:1016b0000080fa004f03be004f02be004f01be0083
:1016c0004f00be003600f900004006000040da007e
:1016d0000000fe0000000500839f68000100e0009c
:1016e00002003d0060001000e08018000300e000f0
:1016f00002003d0060011100e081190005000700b3
:101700004f00e00002003b0060001000e080180085
:10171000000006006022b800060220000000d00091
:101720008180d2000482d2008582d2000000a00015
:101730000202520083825a0003003100020242007a
:1017400083824a000000a1000603e900f3ff3a008b
:1017500000000600889fbe008a9fbe003004420041
:10176000b0844a0030054b0090854b006000b1000a
:101770000898be000a90be000440e10005c8e100e0
:1017800006d0e10007d8e100020031006800400007
:101790001008e8004f05be004f04be000000060020
:1017a000889fbe008a9fbe001004780090049000bd
:1017b00020059000b00590000418540005985c00c6
:1017c00006185d0007985d00110020000440e1004c
:1017d00005c8e10006d0e10007d8e10001003900aa
:1017e0008000eb00108810004f05be004f04be00c3
:1017f000000006001200fa00889fbe008a9fbe000b
:101800008c9fbe00e0b79f00f1b79f0082bf9f0092
:1018100093bf9f000605be000404be000000eb005d
:10182000d0b79f00c0b79f00b0b79f00a0b79f0080
:1018300090b79f00000678005fb19700cfb0970087
:10184000820141003fb097000200e00004003d002b
:10185000370007007e805700beff070003003700f7
:10186000330007007e805700cdff0700dfb69700ea
:101870000d00e0000c0035006fb29700ffb297003a
:101880000fbb97009fbb97001000200001002000b5
:101890006011b800000272008182720002037300be
:1018a000838373001b0007000c06e800010420007e
:1018b000810f5600e0ff3a000d00e00004003d00fb
:1018c0000802be000a03be007e805700a1ff070089
:1018d0005fa897000000e00005003a001fb29700e3
:1018e000afb297003fb39700cfb39700090007004e
:1018f0006fb09700ffb097000fb997009fb997009e
:101900004f06be004f05be004f04be000080fa0027
:10191000000006000100070000000600a4b79f00b9
:10192000b5b79f00c6b79f00d7b79f00000006005d
:101930004f09de0082817100b3b79f004f01de00c6
:101940008180400082807000a1b79f008fb0970017
:101950004f09de00000040000200700090b79f00b9
:101960007fa897004f01de008180400082807000d8
:1019700081b79f000d0007004f3ade0000004000d5
:1019800004007000f0af9f0008000700040242004e
:1019900085824a0006034b0087834b00dfff070068
:1019a0000802be000a03be00000006002fb2970026
:1019b000bfb297004fb39700dfb397000000060057
:1019c000881f780018002000881f780089ff070012
:1019d0008f87e9004f04780000000600801feb00ad
:1019e00084ff07008f87e90000000600889fbe0083
:1019f0008a9fbe00e00f5000e08f5800e00f5900b2
:101a0000e08f59000c003d006044b8006055b800fc
:101a10000000540081805c0002015d0083815d0054
:101a2000180020001500070008003d0018000700fe
:101a30000004eb00050037000004eb000f00070076
:101a400002003d001200070018002000dcff070024
:101a50000800e000060032006022b8006033b800e1
:101a60000000520081805a0002015b0083815b000c
:101a70004f05be004f04be0000000600e00f5200fc
:101a8000e08f5a00e00f5b00e08f5b000000060073
:101a90006044b8006055b8000402540085825c00c0
:101aa00006035d0087835d0000000600889fbe007e
:101ab0008a9fbe008c1f7800e00f5000e08f580016
:101ac000e00f5900e08f59000d003d006044b80060
:101ad0006055b8000000540081805c0002015d0088
:101ae00083815d001c0020000820e10009a8e100be
:101af0000ab0e1000bb8e1000d003d00080037001e
:101b00000006eb00e00f5200e08f5a00e00f5b0090
:101b1000e08f5b0006003d006044b8006055b800ef
:101b20000402540085825c0006035d0087835d002b
:101b3000aaff07000c00e000060032006022b80097
:101b40006033b8000000520081805a0002015b003f
:101b500083815b004f0678004f05be004f04be0036
:041b6000000006007b
:020000040000fa
:101b64000d0a00000d0a00002a2000004e69000042
:101b74006e6f0000544e0000432000004d750000bd
:101b84006c740000696d00006f6400006520000043
:101b94004b49000053530000205400004e43000002
:101ba40020620000792000004b4b00003448000004
:101bb400454a0000206100006e640000204b0000d4
:101bc4004132000044450000570000000d0a0000a7
:101bd4002a20000046690000726d00007761000051
:101be4007265000020620000792000004e69000048
:101bf4006e6f000020300000342f000031390000e7
:101c04002f32000030320000312c0000207600001a
:101c140065720000736f00006e3a0000200000003f
:101c24000d0a0000647300005049000043200000c6
:101c3400333300004550000020520000434f0000a1
:101c44004e3a0000200000000d0a00004e5600002d
:101c54004d200000636f00006e660000696700009d
:101c64003a200000000d00000a44000065660000f0
:101c7400617500006c740000206300006f6e00004a
:101c840066690000673a000020000000202d000073
:101c940020390000363000003020000047460000a4
:101ca400534b000020410000582e00003235000044
:101cb400002000002d2000003936000030300000e4
:101cc40020470000465300004b200000494c000010
:101cd40032500000002000002d20000031320000ae
:101ce4003030000020410000465300004b2000002b
:101cf400415800002e32000035000000202d000065
:101d04002031000032300000302000004146000045
:101d1400534b0000204900004c32000050000000ea
:101d2400202d00002032000034300000302000005c
:101d340044410000505300004b2000004158000073
:101d44002e32000035000000202d0000203200005b
:101d540034300000302000004441000050530000a3
:101d64004b200000494c00003250000000200000cd
:101d74002d200000343800003030000020470000df
:101d8400465300004b200000415800002e32000052
:101d940035000000202d0000203400003830000001
:101da4003020000047460000534b0000204900004b
:101db4004c320000500000000d0a00005365000082
:101dc40072690000616c0000204e0000756d000017
:101dd400626500007220000048650000783a000047
:101de40020000000200000000d0a000053650000e0
:101df40072690000616c0000204e0000756d0000e7
:101e04006265000072200000415300004349000055
:101e1400493a0000200000000d0a0000426f000053
:101e24006172000064200000494400003a20000070
:101e3400000d00000a0000005570000074690000e5
:101e44006d650000206f00007665000072200000c0
:101e5400323300002064000061790000732c00001c
:101e640020720000656200006f6f0000746900005a
:101e74006e6700002e00000054520000414e000026
:101e8400534d000049540000204300005943000012
:101e94004c45000020540000494d0000455200000c
:101ea400204500004c410000505300004544000010
:101eb4002c200000524500005345000054540000fb
:101ec400494e000047210000210000000d0a0000d7
:101ed4002054000058200000505700004d200000fe
:101ee4005175000065750000653a0000200000008f
:101ef4000d0a000020540000582000005175000015
:101f040065750000653a0000200000000d0a00001d
:101f14002054000058200000537400006172000037
:101f240074200000546900006d6500003a20000030
:101f3400000d00000a200000545800002043000057
:101f44006f6d0000706c000065740000653a00005d
:101f54002000000020590000657300002e000000de
:101f6400204e00006f2e0000000d00000a2000002b
:101f740054580000204f00006e3a0000200000007a
:101f840053650000724e00006f200000636c000077
:101f940065610000722c000020700000726f000068
:101fa40067720000616d00006d6900006e670000db
:101fb4002e0000004e5600004d2000005772000015
:101fc40069740000652000004f4b00002e000000e3
:101fd4004e5600004d200000577200006974000046
:101fe4006520000046610000696c00002e000000be
:101ff4004572000061730000696e000067200000f4
:1020040053650000724e00006f21000021000000a3
:102014004d6f0000646500002073000077690000c4
:10202400746300006820000063680000616e0000b3
:1020340067650000206400006574000065630000ab
:1020440074650000643a000020000000307800004d
:1020540000540000726100006e7300006d6900009e
:10206400742000006f660000662e0000005300001c
:10207400616d0000702000005458000020440000ee
:102084002e2000005072000065200000436e000006
:10209400743a0000200000002c2000006d53000062
:1020a4003a200000005300007461000072740000c4
:1020b4002052000065630000656900007665000039
:1020c400722e000000530000657200004e6f000085
:1020d400204600006c610000736800003a20000094
:1020e40000460000697200006d7700006172000014
:1020f400652000007665000072730000696f0000bf
:102104006e200000736500006e74000020740000ef
:102114006f200000686f00007374000020700000de
:102124006f7200007420000030780000452e00001b
:10213400003d000046690000726d000077610000f8
:1021440072650000567200003a0000003d53000022
:1021540065720000696100006c4e00006d62000051
:10216400723a0000003d00005570000074690000e0
:102174006d6500004d6900006c5300003a000000da
:102184003d42000072640000537700006368000061
:102194004d6f0000643a0000003d0000415800000b
:1021a4003235000052780000506b00007473000058
:1021b4003a0000003d4900004c320000505200003b
:1021c400785000006b740000733a0000003d00007a
:1021d400494c00003250000052780000556e000057
:1021e400437200003a0000003d54000078500000a3
:1021f4006b740000436f0000756e0000743a0000b9
:10220400003d000050720000656100006d62000036
:102214006c4300006e7400003a300000303000005f
:10222400300000003d4c00006f6f00007043000060
:10223400796300006c650000733a000000440000fc
:102244006174000061200000647500006d7000007e
:1022540020300000784500002e0000003d300000d2
:10226400303a0000003d0000303100003a00000028
:102274003d300000323a0000003d000030330000e1
:102284003a0000003d300000343a0000003d0000f8
:10229400303600003a0000003d300000373a0000bc
:1022a400003d0000303800003a0000003d300000de
:1022b400393a0000003d0000304100003a000000bf
:1022c4003d300000423a0000303000003030000061
:1022d400003d0000304300003a0000003d300000a3
:1022e400443a0000003d0000304500003a00000080
:1022f4003d300000463a0000003d0000313000004f
:102304003a0000003d310000313a00000054000062
:1023140041520000504e000020640000756d000022
:10232400702e00000052000078200000494c00008c
:102334003250000020000000205400006f740000a0
:10234400616c00003a200000003a000000520000d6
:1023540078200000494c0000325000002055000055
:102364006e6300006f720000200000002e20000049
:10237400546f0000746100006c3a000020000000fb
:10238400527800002041000058320000352000003f
:1023940000530000796e00006320000044430000f5
:1023a4004420000054720000696700006765000063
:1023b40072650000642e000000530000796e000076
:1023c400632000004443000044200000436c0000ec
:1023d4006561000072650000642e00000053000077
:1023e400656e000074200000414300004d4f000062
:1023f4004445000020410000434b000020660000db
:102404006f72000020500000616300006b650000e3
:1024140074200000494400003a200000004e0000ef
:102424006f2000006c65000061730000657300009c
:1024340020540000585f0000505700004d5f00001a
:102444004d6500006d2e0000004c0000617300001b
:10245400742000005458000020730000616d0000d7
:10246400702e0000204500006e640000204e000025
:102474004c5400003a200000004e00006f20000081
:102484006c6500006173000065730000206100004a
:1024940076610000696c0000616200006c650000f8
:1024a400206900006e200000545800005f500000b6
:1024b400574d00005f4d0000656d00002e000000c8
:1024c4005458000020430000534d000041200000f8
:1024d400476f00002e00000020550000315400001a
:1024e400584d000061780000513a000020000000bf
:1024f4002055000031520000584d00006178000062
:10250400513a000020000000205500003254000021
:10251400584d000061780000513a0000200000008e
:1025240052650000636500006976000065200000c4
:10253400537400006f700000204900006e680000b2
:102544006962000069740000656400002e000000e8
:10255400537400006f700000205200006563000097
:102564006569000076650000722e000000540000ca
:10257400726100006e7300006d6900007420000039
:102584004f6e00002e200000545800005f510000e0
:1025940075650000756500003a2000000020000009
:1025a400545800005f500000574d00005f51000078
:1025b40075650000756500003a20000000200000e9
:1025c400525800005f5100007565000075650000f9
:1025d4003a2000000020000041440000435f000056
:1025e4005175000065750000653a00002000000088
:1025f4005458000020430000534d000041200000c7
:1026040057610000697400002c2000005052000043
:102614004e3a000020000000205300006c6f0000c0
:10262400743a000020000000476500006e65000059
:1026340072610000746900006e670000207400007d
:102644006573000074200000746f00006e65000064
:102654002e000000536100006d7000006c650000e6
:10266400642000005458000020440000656c000001
:1026740061790000205000006f7400002e200000db
:1026840050720000656100006d6200006c6500001e
:10269400205700006f72000064200000436f0000a8
:1026a400756e0000743a0000200000002c20000029
:1026b4006d6900006c6c00006973000065630000c4
:1026c4006f6e0000647300003a20000000430000b5
:1026d4006f6d0000706f0000736900006e6700008a
:1026e4002054000065730000742000005061000055
:1026f400636b0000657400002e000000456e00004e
:1027040071750000657500006564000020540000c8
:10271400657300007420000050610000636b0000ca
:10272400657400002050000072650000616d0000b7
:10273400626c0000652e0000004500006e71000010
:102744007565000075650000642000005465000094
:102754007374000020500000616300006b6500008a
:10276400742e000000470000656e000065720000d2
:1027740061740000696e0000672000004158000089
:102784002e32000035200000494400002070000073
:10279400616300006b650000742e000000450000ba
:1027a4006e7100007565000075650000642000000e
:1027b400415800002e32000035200000494400003a
:1027c4002050000072650000616d0000626c000022
:1027d400652e0000004500006e7100007565000064
:1027e4007565000064200000415800002e3200008e
:1027f40035200000494400002050000061630000bf
:102804006b650000742e0000004b0000495300006b
:102814005320000045520000524f00005220000097
:102824002d20000052450000534500005454000080
:10283400494e0000472100002100000042500000e2
:102844005120000043680000656300006b730000c2
:10285400756d000020420000616400002e2000001d
:102864004469000073630000617200006469000041
:102874006e670000204b0000495300005320000005
:1028840066720000616d0000652e000000500000bb
:102894006172000073650000642000004b49000071
:1028a40053530000206600006f7200002074000083
:1028b400783a0000004500006e71000020700000ae
:1028c400726500003a20000000200000416400000e
:1028d400647200003a20000000410000434b0000f5
:1028e4004d4f00004445000020500000616300008b
:1028f4006b65000074200000494400003a20000089
:10290400004500006e710000206600006f72000038
:1029140020740000783a0000200000005472000087
:10292400616e0000736d00006974000020510000a6
:102934007565000075650000204300006f75000098
:102944006e7400003a200000005400004152000060
:10295400504e0000737400006174000000480000d1
:102964006f73000074200000447500006d70000057
:10297400204500006e2e0000004b0000495300006b
:1029840053200000436d000064200000503a000012
:1029940020000000204300003a200000004e000008
:1029a4006f20000041440000432000004c650000fb
:1029b400617300006573000020610000766100000f
:1029c400696c0000616200006c6500002e0000006c
:1029d40055410000525400002046000049460000c2
:1029e4004f2000004f560000455200005255000091
:1029f4004e2000002d2000005245000053450000e9
:102a040054540000494e00004721000021000000fa
:102a1400554100005254000031200000457200006e
:102a2400726f0000722e000020000000554100006b
:102a3400525400003220000045720000726f000002
:102a4400722e000000410000646400007265000002
:102a54007373000020450000727200006f72000062
:102a64002e2000002a2a00002a2a00002a2a000018
:102a74002a2a00002a2a00002a2a00002a2a000002
:102a84002a000000486100007264000054720000d3
:102a94006170000020450000727200006f72000037
:102aa4002e2000002a2a00002a2a00002a2a0000d8
:102ab4002a2a00002a2a00002a2a00002a2a0000c2
:102ac4002a00000053740000616300006b200000c2
:102ad40045720000726f0000722e0000202a000070
:102ae4002a2a00002a2a00002a2a00002a2a000092
:102af4002a2a00002a2a00002a2a00002a000000ac
:102b0400204900004e540000434f00004e310000a5
:102b14003a200000004d000041540000482000000d
:102b240045720000726f0000722e00002a2a000015
:102b34002a2a00002a2a00002a2a00002a2a000041
:102b44002a2a00002a2a0000004400004d41000007
:102b54004320000045720000726f0000722e0000d6
:102b64002a2a00002a2a00002a2a00002a2a000011
:102b74002a2a00002a2a00002a2a000020440000f1
:102b84004d41000050570000433a0000200000006f
:102b940020200000000d00000a0000003a20000080
:102ba40000200000000d00000a2a0000204300005d
:102bb4006f7500006e7400003a200000002c0000c5
:102bc4002044000065730000743a000020000000f7
:102bd4002d0000002c200000536f000075720000cf
:102be400636500003a200000000d00000a2a00007e
:102bf40020410000583200003520000046720000d9
:102c0400616d0000652000005479000070650000cb
:102c14003a200000002000002d2000005375000021
:102c24007065000072760000697300006f72000026
:102c3400790d00000a2a0000204300006f6e000096
:102c4400747200006f6c0000204f0000706300007d
:102c54006f640000653a000020000000525200003a
:102c6400202d00002052000065630000656900000b
:102c74007665000020520000656100006479000060
:102c8400005200004e520000202d0000205200008f
:102c9400656300006569000076650000204e000051
:102ca4006f74000020520000656100006479000028
:102cb40000520000454a0000202d00002052000070
:102cc400656a000065630000740000005352000050
:102cd400454a0000202d000020530000656c0000d0
:102ce40065630000746900007665000020520000ee
:102cf400656a000065630000740000002c20000079
:102d04004e280000522900003a2000000020000054
:102d14002d200000556e00006e7500006d620000ed
:102d240065720000656400000d0a00002a2000009e
:102d3400436f00006e740000726f00006c2000008e
:102d44004f700000636f0000646500003a000000eb
:102d540020530000414200004d450000202d00009a
:102d640020530000657400002041000073790000c6
:102d74006e63000020420000616c0000616e000080
:102d840063650000642000004d6f0000646500006e
:102d94002045000078740000656e00006465000042
:102da4006400000020530000414200004d20000058
:102db4002d200000536500007420000041730000c2
:102dc400796e000063200000426100006c61000025
:102dd4006e63000065640000204d00006f64000015
:102de4006500000020440000495300004320000017
:102df4002d20000044690000736300006f6e000022
:102e04006e6500006374000000200000444d000063
:102e1400202d00002044000069730000636f00004f
:102e24006e6e000065630000742000004d6f0000aa
:102e3400646500000020000055410000202d0000c2
:102e4400205500006e6e0000756d00006265000084
:102e54007265000064200000416300006b6e000096
:102e64006f7700006c650000646700006500000077
:102e740020460000524d0000522000002d2000008a
:102e840046720000616d000065200000526500007c
:102e94006a650000637400000020000055490000ca
:102ea400202d0000205500006e6e0000756d00009e
:102eb400626500007265000064200000496e000035
:102ec400666f0000726d000061740000696f00009d
:102ed4006e2c000020500000494400003a200000fd
:102ee400002000002d00000020490000534f000086
:102ef4002038000032300000380000002043000079
:102f04006f6d00007072000065730000736500004f
:102f14006420000054430000502f0000495000007a
:102f240000200000556e0000636f00006d7000000b
:102f34007265000073730000656400002054000093
:102f4400435000002f4900005000000020530000af
:102f5400656700006d6500006e7400006174000018
:102f6400696f00006e200000467200006167000077
:102f74006d6500006e7400000020000054450000e0
:102f8400584e000045540000002000004c69000029
:102f94006e6b000020510000756100006c69000038
:102fa4007479000020500000726f0000746f0000fc
:102fb400636f00006c00000020410000707000008e
:102fc4006c650000746100006c6b00000020000060
:102fd40041700000706c000065740000616c0000ba
:102fe4006b2000004152000050000000204100000e
:102ff4005250000041200000495000000020000011
:103004004152000050410000204100005250000095
:1030140000200000464c0000455800004e450000ca
:103024005400000020540000686500004e45000074
:1030340054000000204e00006f2000004c330000bc
:103044000020000058490000442000002d2000000a
:103054004578000063680000616e00006765000049
:1030640020490000646500006e7400006966000079
:103074006963000061740000696f00006e00000065
:10308400205400004553000054000000202d00008f
:10309400204900006e6600006f7200006d61000040
:1030a400746900006f6e00000d0a00002a20000001
:1030b40050490000443a0000200000002c20000089
:1030c4004e280000532900003a20000000000000b0
:1030d40007000000070000000700000007000000d0
:1030e40007000000070000000700000007000000c0
:1030f40007000000080000000800000008000000ad
:10310400080000000800000008000000080000009b
:10311400080000000800000008000000090000008a
:103124000900000009000000090000000900000077
:1031340009000000090000000a0000000a00000065
:103144000a0000000a0000000a0000000b00000052
:103154000b0000000b0000000b0000000c0000003e
:103164000c0000000c0000000d0000000d00000029
:103174000d0000000e0000000e0000000e00000014
:103184000f0000000f0000001000000010000000fd
:1031940011000000110000001200000012000000e5
:1031a40013000000140000001400000015000000cb
:1031b40016000000170000001800000019000000ad
:1031c400190000001a0000001b0000001d00000090
:1031d4001e0000001f00000020000000220000006c
:1031e4002300000024000000260000002800000046
:1031f400290000002b0000002d0000002f0000001b
:1032040031000000330000003500000038000000e9
:103214003a0000003d0000004000000043000000b0
:1032240046000000490000004c000000500000006f
:1032340054000000580000005c0000006000000022
:10324400650000006a0000006f00000074000000c8
:10325400790000007f000000850000008c00000061
:10326400930000009a000000a1000000a9000000e3
:10327400b1000000ba000000c3000000cd0000004f
:10328400d7000000e2000000ed000000f80000009c
:1032940005010000120100001f0100002d010000c3
:1032a4003c0100004c0100005d0100006e010000c3
:1032b4008001000094010000a8010000bd0100008d
:1032c400d3010000eb010000030200001d02000016
:1032d40002000000020000000200000002000000e2
:1032e40002000000020000000200000002000000d2
:1032f40002000000020000000200000002000000c2
:1033040003000000030000000300000003000000ad
:10331400030000000300000003000000030000009d
:10332400030000000300000003000000030000008d
:10333400030000000300000003000000030000007d
:103344000400000004000000040000000400000069
:103354000400000004000000040000000400000059
:103364000400000005000000050000000500000046
:103374000500000005000000050000000500000035
:103384000500000006000000060000000600000022
:103394000600000006000000060000000700000010
:1033a40007000000070000000700000007000000fd
:1033b40008000000080000000800000008000000e9
:1033c40009000000090000000900000009000000d5
:1033d4000a0000000a0000000a0000000b000000c0
:1033e4000b0000000b0000000c0000000c000000ab
:1033f4000c0000000d0000000d0000000e00000095
:103404000e0000000f0000000f000000100000007c
:103414001000000011000000110000001200000064
:10342400120000001300000013000000140000004c
:103434001500000015000000160000001700000031
:103444001800000018000000190000001a00000015
:103454001b0000001c0000001d0000001e000000f6
:103464001f000000200000002100000022000000d6
:1034740023000000240000002500000027000000b5
:1034840028000000290000002b0000002c00000090
:103494002e0000002f000000310000003200000068
:1034a400340000003600000038000000390000003d
:1034b4003b0000003d0000003f000000420000000f
:1034c4004400000046000000490000004b000000da
:1034d4000004000077030000000200000000000068
:1034e40000fe000089fc000000fc000089fc0000d4
:1034f40000fe00000000000000020000770300004e
:103504000004000026010000cc0300003503000085
:10351400e2ff0000a8fc000048fc000014ff0000cb
:10352400a9020000f9030000e601000034fe0000d7
:103534000bfc000041fd00000004000077030000c4
:10354400000200000000000000fe000077030000fd
:1035540000fc000089fc000000fe000000000000e8
:10356400000200007703000000040000770300005d
:10357400000200000000000000fe000089fc0000c2
:10358400240300001ffd00008ff900007dfb0000f4
:1035940044010000f7050000940500006f000000de
:1035a400ebfa0000bdf90000e6fd0000da030000bc
:1035b40085060000a1030000a4fd0000abf9000093
:1035c40018fb0000b400000047020000c90000001e
:1035d4009d000000330000008fff0000c4fe0000c7
:1035e400f3fd000043fd0000e4fc000001fd0000c9
:1035f400bcfd000025ff000035010000cf030000e2
:10360400bf060000be090000810c0000bb0e0000d4
:103614002e100000ae1000002e100000bb0e0000a3
:10362400810c0000be090000bf060000cf030000ab
:103634003501000025ff0000bcfd000001fd000075
:10364400e4fc000043fd0000f3fd0000c4fe0000a4
:103654008fff0000330000009d000000c90000003f
:10366400470200002300000038fd0000a7fe000010
:1036740099fe000095fe0000b9fe00000dff000059
:1036840094ff000051000000420100005f020000ae
:103694009f030000f504000051060000a00700008d
:1036a400d0080000d2090000960a0000110b0000a7
:1036b4003a0b0000110b0000960a0000d20900002a
:1036c400d0080000a007000051060000f504000027
:1036d4009f0300005f02000042010000510000004f
:1036e40094ff00000dff0000b9fe000095fe0000ed
:1036f40099fe0000a7fe000038fd00002300000032
:103704004d000000350000003a00000035000000c4
:103714002700000012000000fcff0000e9ff000089
:10372400daff0000cfff0000c3ff0000b1ff00007c
:1037340096ff000072ff00004cff000030ff000005
:1037440029ff000042ff00007eff0000d4ff0000bc
:103754003400000086000000b5000000b500000041
:1037640089000000460000000b000000f9ff000083
:10377400270000009b0000003d010000e50100005f
:103784005c02000075020000160200004c010000fb
:103794004300000041ff000090fe000063fe0000b3
:1037a400c5fe00008bff00005e000000cf0000009b
:1037b4007c00000031ff000003fd000055fa00000a
:1037c400cdf700002cf600001af60000f6f7000012
:1037d400b8fb0000df0000008b060000ac0b00000b
:1037e4003d0f0000831000003d0f0000ac0b0000f3
:1037f4008b060000df000000b8fb0000f6f70000b5
:103804001af600002cf60000cdf7000055fa00006f
:1038140003fd000031ff00007c000000cf00000029
:103824005e0000008bff0000c5fe000063fe000088
:1038340090fe000041ff0000430000004c01000026
:1038440016020000750200005c020000e5010000a1
:103854003d0100009b00000027000000f9ff00006c
:103864000b0000004600000089000000b5000000c5
:10387400b50000008600000034000000d4ff000002
:103884007eff000042ff000029ff000030ff00001f
:103894004cff000072ff000096ff0000b1ff000023
:1038a400c3ff0000cfff0000daff0000e9ff0000c3
:1038b400fcff00001200000027000000350000009b
:1038c4003a000000350000004d0000000000000038
:1038d40000000000100000000100000006000000cd
:1038e4000700000008000000c3000000c40000003e
:1038f400ca000000cb000000cc000000cd00000096
:10390400ce000000cf000000f00000002f000000f7
:10391400430000000f000000630000008700000067
:1039240003000000af000000e30000002068000076
:1039340074740000703a00002f2f000074610000be
:10394400727000006e2e00006e650000742f00007f
:10395400494c0000325000003a54000065730000e6
:103964007420000050610000636b00006574000067
:1039740054410000525000004e7300007461000076
:0439840074000000cb
:020000040000fa
:103988004800fa00889fbe008a1f7800209a260007
:10399800aa0d0200010000007ef5020000000000f0
:1039a800a0508b00a05083003e10020001000000d0
:1039b800140ea90015cea800400620000100200022
:1039c800800902000100000015cea900158ea8008c
:1039d80040062000010020008009020001000000cc
:1039e800158ea900a05083000000e00006003c00ee
:1039f800142ea800400620000100200080090200c3
:103a080001000000142ea90014eea80040062000b2
:103a180001002000800902000100000014eea90046
:103a280015aea80040062000010020008009020011
:103a38000100000015aea90014eea8004006200001
:103a480001002000800902000100000014eea90016
:103a5800a05083000000e00006003c00142ea800df
:103a6800400620000100200080090200010000003b
:103a7800142ea900158ea800400620000100200081
:103a88008009020001000000158ea90015cea800cb
:103a9800400620000100200080090200010000000b
:103aa80015cea900820320008000eb00a086260026
:103ab8003ee8020000000000e086260041032000e6
:103ac800bcfe0200000000000001be00504383005d
:103ad80061438300800f5100818f590004003a0030
:103ae8001051830000a0a00010518b00080037007f
:103af800a0862600e8000200010000000000eb009c
:103b0800a0448b001051830000a0a10010518b002d
:103b180010002000d01f8b0000102e000100200094
:103b280080208b0091208b004083200060208b0038
:103b3800a0b12600b01f8b000000eb0000208b0016
:103b4800c044200070208b00e0342700c01f8b0089
:103b58000000eb0040208b0002002800433f2000bb
:103b6800603f260058a202000000000001458300c3
:103b780000082000008060000000e000140032000f
:103b8800004583000070a10000458b00e0862600f8
:103b980041032000bcfe02000000000050438b00df
:103ba80061438b0083072200820320008000eb0022
:103bb800a086260048ea020000000000000022005b
:103bc800600798006e0090003ea10200020000000d
:103bd800d01f8300f4a3020000000000b02083007f
:103be8000000a000b0208b006006220030518b003e
:103bf800a000200050518b004000200060518b0035
:103c08000000eb0040518b000000eb0070538b006c
:103c18000000eb0080538b0030518300700888004f
:103c28000108a9002108a8000a21ef0000012800c6
:103c380090088800805383000000a10080538b0007
:103c48001000200070528b000000eb0070518b00b8
:103c5800705383000000a00070538b00a0508300b5
:103c6800e10f50000a003a00a04483006c00600095
:103c7800a0448b00a844830088f6020000000000de
:103c880008007000a0448b000000eb00c0448b00cb
:103c9800a0508300e20f50000a003a00a0448300bd
:103ca8006c006000a0448b00a844830014f7020055
:103cb8000000000008007000a0448b000000eb002a
:103cc800c0448b00a0508300e20f50000a0034006b
:103cd800a04483006c006000a0448b00a8448300cb
:103ce80014f702000000000008007000a0448b00d8
:103cf80010002000c0448b00a08626004e01020060
:103d08000100000000302000d0558b000006200084
:103d180060578b0080448300e10f50007000320030
:103d2800e10f500003003c000000e00006003200f4
:103d3800e5003700e20f5000ad003200e30f5000fd
:103d480034003200e0003700228a260030002300c9
:103d580061002000d0ef020000000000004783004f
:103d68000010a00000478b00228e260030002300a0
:103d780061002000d0ef020000000000004983002d
:103d88000010a00000498b003000200020578b0055
:103d98009000200030578b000001200050578b0006
:103da80000482000a0568b000000eb00000f7800b0
:103db800120037001e007800cf80de00020b2000c2
:103dc8008289b900e002b90084017800030141004a
:103dd800030b20000300b8000101410082007800b5
:103de800000ab0000180b000c21a2400020040009e
:103df80061002000010878001e0fe8001e0078000e
:103e0800e10f5000ebff34006090200090508b00d1
:103e1800ad003700228a2600300023006100200010
:103e2800d0ef020000000000004783000010a0004f
:103e380000478b00228e26003000230061002000fe
:103e4800d0ef020000000000004983000010a0002d
:103e580000498b003000200020578b0020012000f3
:103e680030578b008000200050578b0000902000b6
:103e7800a0568b000000eb00000f780012003700fe
:103e88001e007800cf80de00020b20008289b90076
:103e9800e003b9008601780003014100030b20000c
:103ea8000300b8000101410082007800000ab00058
:103eb8000180b000c21a2400020040006100200006
:103ec800010878001e0fe8001e007800e10f50007e
:103ed800ebff340000a5200090508b007a003700db
:103ee800228e26003000200001002000d0ef0200c2
:103ef80000000000004983000010a00000498b006a
:103f08000000eb00000f78002c0037001e0078003e
:103f18006101b9004618dd00ca10de00810070009a
:103f28004610dd00229226000200400000017800c1
:103f38003000200001002000d0ef02000000000047
:103f48001e0078006101b9004618dd00ca10de00c5
:103f5800810070004610dd00e003b0000180b00071
:103f68002292260002004000900078000110a00074
:103f7800010878001e007800cf80de00020b2000c8
:103f88008289b900e002b900840178000301410088
:103f9800030b20000300b8000101410082007800f3
:103fa800000ab0000180b000c21a240002004000dc
:103fb800c1002000010878001e0fe8001e007800ec
:103fc800e10f5000d1ff340000902000a0568b0074
:103fd8008004200030578b00c05883000010a100d7
:103fe800c0588b00e04c200090508b003600370002
:103ff800228a26001000210021002000d0ef0200b4
:1040080000000000004783000010a00000478b005c
:10401800228e26001000210021002000d0ef02008f
:1040280000000000004983000010a00000498b0038
:1040380000482000a0568b004002200030578b001b
:104048004000200050578b002000200020578b0094
:104058000000eb00000f7800120037001e00780007
:10406800cf80de00020b20008289b900e003b9008e
:104078008601780003014100030b20000300b8000b
:104088000101410082007800000ab0000180b00000
:10409800c21a2400020040008101200001087800b3
:1040a8001e0fe8001e007800e10f5000ebff3400ff
:1040b800c05883000010a000c0588b00a0502000fa
:1040c80090508b00000000000000210080578b00fa
:1040d800600e210090578b0040132100a0578b00e1
:1040e80020182100b0578b00001d2100c0578b00fd
:1040f800c0e32700d0578b0080e52700e0578b00ee
:1041080040e72700f0578b00a0e9270000588b00f4
:1041180000ec270010588b0080ec270030588b00eb
:1041280000fb270020588b0000af2600eeae0200ef
:104138000000000060ad2600ceae020000000000c6
:104148000000eb00000f7800100037001e00780018
:10415800cf80de00020b20008289b900e002b9009e
:104168008401780003014100030b20000300b8001c
:104178000101410082007800c21a240002004000b8
:10418800daf00200000000001e0fe8001e007800b0
:10419800e10f5000edff340020002000e0208b00ec
:1041a80000202c001100200090218b00a1218b0001
:1041b8001000200070218b00a0792700c0208b0000
:1041c800000a200080218b00b0792700d0208b00c6
:1041d80002002800433f20008041260058a2020028
:1041e80000000000e0208300f4a3020000000000ab
:1041f800d321200072652000e1212100c0ec2100bc
:1042080040df02000000000080ef21009ce0020077
:10421800000000008300200082042000c130240038
:10422800c039240040df0200000000000000eb005d
:10423800000f78001f0037001e007800cf80de00d6
:10424800a21620008289b900e003b900860178002f
:1042580003014100a31620000300b800010141003a
:1042680082007800823c2400020040009ce00200aa
:10427800000000001e007800cf80de0042142000fd
:104288008289b900e002b900840178000301410085
:10429800431420000300b8000101410082007800a7
:1042a800e26d24000200400060930200000000005c
:1042b8001e0fe8001e007800e10f5000deff3400fa
:1042c8000000eb00000f7800250037001e00780082
:1042d800cf80de0022a420008289b900e003b90063
:1042e800860178000301410023a420000300b800e0
:1042f800010141008200780062962400020040001b
:10430800a1de2500b6590200000000001e0078005a
:10431800cf80de0022a420008289b900e002b90023
:10432800840178000301410023a420000300b800a1
:104338000101410082007800e2a320000300200070
:10434800000041008180490062962400020040007c
:10435800900078000130a000010878001e0fe800e6
:104368001e007800e10f5000d8ff3400a04326005b
:1043780044bb02000000000021db28008041260029
:1043880084a602000000000081de2800804126008b
:1043980084a602000000000031c3b300804126005b
:1043a8003ca8020000000000e1c2b30080412600e2
:1043b8003ca802000000000001c3b30080412600b1
:1043c8003ca802000000000051c3b3008041260051
:1043d8003ca802000000000021e1280080412600de
:1043e80084a6020000000000b0508300800078001e
:1043f80080412600d4a4020000000000115183006f
:1044080000402000008060000000e0000a00320048
:1044180061e228008041260084a602000000000016
:10442800a04483008000780080412600d4a40200c4
:10443800000000000900370051e3280080412600f1
:1044480084a6020000000000a044830080007800d9
:1044580080412600d4a4020000000000a14483008b
:10446800300f200000806000cf80de003202200084
:1044780003002000820f5000838f58004d003e003b
:104488000006010023003700270037002b00370003
:104498002f00370049003700480037004700370031
:1044a8004600370045003700440037004300370016
:1044b8004200370041003700400037003f00370016
:1044c8003e0037003100370035003700250037003f
:1044d8002900370039003700380037003700370027
:1044e8003600370035003700340037003300370016
:1044f8003200370031003700300037002f00370016
:104508002e0037002d0037002c0037000b00370035
:104518000f00370081e428008041260084a60200ad
:104528000000000026003700b1e528008041260081
:1045380084a602000000000021003700d1e6280010
:104548008041260084a60200000000001c003700fd
:1045580001e828008041260084a60200000000002f
:104568001700370021e928008041260084a60200b0
:10457800000000001200370061ea28008041260090
:1045880084a60200000000000d00370091eb28000f
:104598008041260084a602000000000008003700c1
:1045a800c1ec28008041260084a60200000000001b
:1045b8000300370000000000010037000000000081
:1045c800e1ed28008041260084a6020000000000da
:1045d8000000eb00000f7800100037001e00780084
:1045e800cf80de0064004000e0804800a2862600fc
:1045f800020040001040780080407800804126008a
:10460800f6a502000000000041ef280080412600c6
:1046180084a60200000000001e0fe8001e007800bb
:10462800e70f5000edff340061ef280080412600bd
:1046380084a60200000000000000eb00000f7800d4
:104648000c0037001e007800cf80de0064004000b8
:10465800e0804800a2862600020040001040780052
:1046680080407800804126003ca80200000000003d
:104678001e0fe8001e007800e70f5000f1ff34001d
:10468800e1f028008041260084a602000000000016
:10469800a05083008000780080412600d4a4020046
:1046a8000000000022a726001000200021012000a1
:1046b800d0ef020000000000030920000290200053
:1046c800810722008027230040df0200000000004d
:1046d800402a23009ce0020000000000030620009e
:1046e800026020000145230000052400b4df020019
:1046f80000000000c0072400bce002000000000029
:10470800400220000e00400001052400aae102003a
:1047180000000000661624004102200081004700c6
:1047280006000900311b7800400220000e004000fe
:1047380001052400aae1020000000000421724003d
:1047480044022000040247000600090034197800da
:104758000000eb00000f78002d0037001e007800e5
:10476800cf80de00ee09b900e003b90086017800c9
:1047780003014100e30020000300b80001014100eb
:104788008200780002192400020440004002200040
:104798000e00400001052400aae10200000000000c
:1047a800410220008100470006000900311c780002
:1047b800e800b1001e007800cf80de00f609b900dd
:1047c800e002b90084017800030141006301200080
:1047d8000300b8000101410082007800c26924008a
:1047e80002044000200320000e004000c1392400cc
:1047f800fce002000000000026032000060347003a
:104808000a000900361c78006801b1001e0fe80094
:104818001e007800e10f5000d0ff34000000eb00cc
:1048280090558b00905683000000a00090568b0096
:10483800a05683001a12020001000000c144830040
:10484800d0558300200f02000100000010518300a2
:1048580000f0a00010518b00105183000040a00010
:1048680010518b0070052000f211020001000000b9
:10487800205183000000a10020518b000700370061
:1048880000000000050037000000000003003700aa
:10489800000000000100370000000000f04d830018
:1048a800014e830061004000e0804800f04d8b001d
:1048b800014e8b002051830000b0a00020518b00d6
:1048c800d24d8300e34d8300704e8300814e8300f8
:1048d800000151008181590000e82e006103200089
:1048e800800f5100818f590003003600205183004a
:1048f80000b0a10020518b00d24d8300e34d83000e
:10490800904e8300a14e830000015100818159001f
:1049180000f8240021012000800f5100818f5900e8
:10492800030036002051830000b0a10020518b0005
:10493800d24d8300e34d8300b04e8300c14e830007
:10494800000151008181590000e82e006103200018
:10495800800f5100818f59000300360020518300d9
:1049680000b0a10020518b0021518300008020005d
:10497800008060000000e000010032000060fe00de
:104988000000eb00300f9800760047008002eb0033
:104998000002eb0023a726000201200011002000de
:1049a8003ced02000000000020518300610060001f
:1049b8000000e0001d003a0009003700603f2600b3
:1049c80082ae020000000000700798007e00900090
:1049d8000000e000020035007e00900020118800f1
:1049e8001111800000202000008060000000e0001d
:1049f80010003a00402083000000e000efff3c0078
:104a08000d0037008041260082ae02000000000041
:104a1800000f98000e0890000000e0000600350026
:104a28000e089000a0118800030037000000000065
:104a380001003700000000009111800000202000d4
:104a4800008060000000e00003003a00502183006d
:104a58000000e000ebff3c00d24d8300e34d8300f3
:104a680000402a0091ad2700800f5100818f590026
:104a78002b003600115183000010200000806000d8
:104a88000000e00026003a00e00281000000e0009b
:104a980023003a0010518300610060000000e0002c
:104aa8001f003a00115183000000280000806000b8
:104ab8000000e0000e003200b1f12800804126001d
:104ac80084a6020000000000d04d8300e14d830061
:104ad8000001be0080412600aeac020000000000cc
:104ae80041ef28008041260084a602000000000053
:104af8001151830000002800008060000000e000e1
:104b080004003200e1f128008041260084a602005a
:104b180000000000205183000010a00020518b00ed
:104b28002151830000002200008060000000e000a6
:104b3800a5003200d24d8300e34d8300f04e830080
:104b4800014f8300800f5100818f59009e0039006a
:104b58002051830000d0a10020518b001151830007
:104b680000002800008060000000e0000e00320015
:104b7800b1f128008041260084a602000000000050
:104b8800d04d8300e14d83000001be008041260026
:104b9800aeac02000000000041ef28008041260072
:104ba80084a60200000000001151830000002800c4
:104bb800008060000000e00004003200e1f32800fb
:104bc8008041260084a602000000000011518300e5
:104bd80000002800008060000000e00004003200af
:104be80081f628008041260084a60200000000000b
:104bf8001151830000002800008060000000e000e0
:104c08000500320040a08100800078008041260025
:104c180052ab020000000000115183000000280080
:104c2800008060000000e00004003200a1f72800c6
:104c38008041260084a60200000000001151830074
:104c480000002800008060000000e000050032003d
:104c5800e0028100800078008041260052ab02000b
:104c6800000000001151830000002800008060004f
:104c78000000e0000400320081f82800804126008e
:104c880084a60200000000001151830000002800e3
:104c9800008060000000e00006003200104e830033
:104ca800214e83000001be0080412600aeac020008
:104cb80000000000115183000000280000806000ff
:104cc8000000e00004003200b1f92800804126000d
:104cd80084a602000000000011518300002020007b
:104ce800008060000000e0000a00320011518300db
:104cf80000002800008060000000e0000e00320084
:104d0800c1fa28008041260084a6020000000000a5
:104d1800090037001151830000002800008060005e
:104d28000000e0000400320021fb2800804126003a
:104d380084a6020000000000115183000000280032
:104d4800008060000000e0000400320071fb2800d1
:104d58008041260084a60200000000001151830053
:104d680000102000008060000000e0000a0032000f
:104d78001151830000002800008060000000e0005e
:104d88000e003200c1fa28008041260084a60200e5
:104d980000000000090037001151830000002800be
:104da800008060000000e0000400320021fb2800c1
:104db8008041260084a602000000000020518300e4
:104dc8000010a00020518b00a1708000000024007a
:104dd800008060000000e00014003200d24d830023
:104de800e34d8300304f8300414f8300800f510013
:104df800818f59000d00390015cea900f24f8300ac
:104e080003508300d44d8300e54d8300904e83000a
:104e1800a14e83000000520081805a000200400029
:104e280083804800f04f8b0001508b00a1708000f8
:104e380000002100008060000000e000080032004f
:104e4800d24d8300e34d8300504f8300614f8300b0
:104e5800800f5100818f590001003900158ea9007b
:104e68002151830000002400008060000000e00061
:104e78000200320015aea80012003700a1708000b1
:104e880000002200008060000000e0000d003200f9
:104e9800d24d8300e34d8300904f8300a14f8300e0
:104ea800800f5100818f590006003900215183007d
:104eb80000002400008060000000e00001003a00cb
:104ec80015aea900e00281000000e00003003c00ec
:104ed800002083000000e0000200340014eea80067
:104ee8000100370014eea9007150830050a52a0074
:104ef800808f500002013a000000eb0070508b00d8
:104f0800780047007ce60200000000000000eb008b
:104f1800100798000000eb00200798000c003700ed
:104f28002e009000cf80de00780040006e407800b0
:104f38000004e000030032001e0090000000a00002
:104f4800100798002e0090000000e8002007980045
:104f58002e009000e70f5000f1ff34001e00900073
:104f68000000e00066003a001151830000002800ac
:104f7800008060000000e0000e003200b1f128005f
:104f88008041260084a6020000000000d04d830066
:104f9800e14d83000001be0080412600aeac020056
:104fa8000000000041ef28008041260084a602008e
:104fb80000000000115183000000280000806000fc
:104fc8000000e0000400320021fc28008041260097
:104fd80084a6020000000000e086260041032000ad
:104fe800bcfe02000000000050438b0061438b00b0
:104ff80083072200820320008000eb00a0862600a1
:1050080048ea0200000000000000e0001d003a002d
:105018001151830000002800008060000000e000bb
:105028000e003200b1f128008041260084a602005b
:1050380000000000d04d8300e14d83000001be0058
:1050480080412600aeac02000000000041ef2800bd
:105058008041260084a60200000000001151830050
:1050680000002800008060000000e00021003200fd
:10507800c1fd28008041260084a60200000000002f
:105088001c003700115183000000280000806000d8
:105098000000e0000e003200b1f128008041260037
:1050a80084a6020000000000d04d8300e14d83007b
:1050b8000001be0080412600aeac020000000000e6
:1050c80041ef28008041260084a60200000000006d
:1050d8001151830000002800008060000000e000fb
:1050e80004003200a1fe28008041260084a60200a8
:1050f80000000000205183000010a00020518b0008
:105108000000eb00100798000000eb002007980053
:105118000f0037002e009000cf80de0064004000b2
:10512800e0804800a2862600020040001040780077
:105138000004e000030032001e0090000000a00000
:10514800100798002e0090000000e8002007980043
:105158002e009000e70f5000eeff34001e00900074
:105168000000e00066003a001151830000002800aa
:10517800008060000000e0000e003200b1f128005d
:105188008041260084a6020000000000d04d830064
:10519800e14d83000001be0080412600aeac020054
:1051a8000000000041ef28008041260084a602008c
:1051b80000000000115183000000280000806000fa
:1051c8000000e00004003200a1ff28008041260012
:1051d80084a6020000000000e086260041032000ab
:1051e800bcfe02000000000050438b0061438b00ae
:1051f80083072200820320008000eb00a08626009f
:1052080048ea0200000000000000e0001d003a002b
:105218001151830000002800008060000000e000b9
:105228000e003200b1f128008041260084a6020059
:1052380000000000d04d8300e14d83000001be0056
:1052480080412600aeac02000000000041ef2800bb
:105258008041260084a6020000000000115183004e
:1052680000002800008060000000e00021003200fb
:10527800c1fd28008041260084a60200000000002d
:105288001c003700115183000000280000806000d6
:105298000000e0000e003200b1f128008041260035
:1052a80084a6020000000000d04d8300e14d830079
:1052b8000001be0080412600aeac020000000000e4
:1052c80041ef28008041260084a60200000000006b
:1052d8001151830000002800008060000000e000f9
:1052e80004003200a1fe28008041260084a60200a6
:1052f80000000000205183000010a00020518b0006
:1053080000458300700060000000e0005b00320090
:1053180040a081000000e00058003a00d24d830010
:10532800e34d8300b4438300c5438300007122002a
:10533800010020000400400085804800800f5100d3
:10534800818f59004d003600004583000040a100c0
:1053580000458b00e08626007ce602000000000085
:10536800e086260041032000bcfe02000000000089
:1053780050438b0061438b00830722008203200087
:105388008000eb00a086260048ea0200000000002a
:105398000000e0001d003a001151830000002800c1
:1053a800008060000000e0000e003200b1f128002b
:1053b8008041260084a6020000000000d04d830032
:1053c800e14d83000001be0080412600aeac020022
:1053d8000000000041ef28008041260084a602005a
:1053e80000000000115183000000280000806000c8
:1053f8000000e00021003200c1fd280080412600a5
:1054080084a60200000000001c0037001151830030
:1054180000002800008060000000e0000e0032005c
:10542800b1f128008041260084a602000000000097
:10543800d04d8300e14d83000001be00804126006d
:10544800aeac02000000000041ef280080412600b9
:1054580084a602000000000011518300000028000b
:10546800008060000000e00004003200a1fe280077
:105478008041260084a6020000000000a05083009e
:10548800e10f500038003a00a1448300300f20009b
:105498000084600088f6020000000000800f5400bd
:1054a80031003200205183000010a00020518b00f1
:1054b800004583000050a00000458b001151830077
:1054c80000002800008060000000e0000e003200ac
:1054d800b1f128008041260084a6020000000000e7
:1054e800d04d8300e14d83000001be0080412600bd
:1054f800aeac02000000000041ef28008041260009
:1055080084a602000000000011518300000028005a
:10551800008060000000e00004003200a1002900c3
:105528008041260084a6020000000000115183007b
:1055380000002800008060000000e0000a0032003f
:10554800810229008041260084a602000000000094
:1055580088f60200000000008000780080412600e4
:10556800d4a4020000000000a0508300e10f500006
:1055780038003400a1448300300f2000008460000c
:1055880014f7020000000000800f540031003200c0
:10559800205183000010a00020518b00004583009b
:1055a8000050a00000458b00115183000000280026
:1055b800008060000000e0000e003200b1f1280019
:1055c8008041260084a6020000000000d04d830020
:1055d800e14d83000001be0080412600aeac020010
:1055e8000000000041ef28008041260084a6020048
:1055f80000000000115183000000280000806000b6
:105608000000e00004003200a100290080412600cb
:1056180084a6020000000000115183000000280049
:10562800008060000000e0000a00320081022900ca
:105638008041260084a602000000000014f7020042
:10564800000000008000780080412600d4a40200f9
:105658000000000001458300000220000080600077
:105668000000e0004d003200004583000050a1001a
:1056780000458b00e08626007ce602000000000062
:10568800e086260041032000bcfe02000000000066
